{
  "_format": "hh-sol-artifact-1",
  "contractName": "CollateralManager",
  "sourceName": "contracts/CollateralManager.sol",
  "abi": [
    {
      "inputs": [
        {
          "internalType": "address",
          "name": "_collateralToken",
          "type": "address"
        }
      ],
      "stateMutability": "nonpayable",
      "type": "constructor"
    },
    {
      "inputs": [
        {
          "internalType": "address",
          "name": "owner",
          "type": "address"
        }
      ],
      "name": "OwnableInvalidOwner",
      "type": "error"
    },
    {
      "inputs": [
        {
          "internalType": "address",
          "name": "account",
          "type": "address"
        }
      ],
      "name": "OwnableUnauthorizedAccount",
      "type": "error"
    },
    {
      "anonymous": false,
      "inputs": [
        {
          "indexed": true,
          "internalType": "address",
          "name": "user",
          "type": "address"
        },
        {
          "indexed": false,
          "internalType": "uint256",
          "name": "amount",
          "type": "uint256"
        }
      ],
      "name": "CollateralDeposited",
      "type": "event"
    },
    {
      "anonymous": false,
      "inputs": [
        {
          "indexed": true,
          "internalType": "address",
          "name": "user",
          "type": "address"
        },
        {
          "indexed": false,
          "internalType": "uint256",
          "name": "amount",
          "type": "uint256"
        }
      ],
      "name": "CollateralLocked",
      "type": "event"
    },
    {
      "anonymous": false,
      "inputs": [
        {
          "indexed": true,
          "internalType": "address",
          "name": "user",
          "type": "address"
        },
        {
          "indexed": false,
          "internalType": "uint256",
          "name": "amount",
          "type": "uint256"
        }
      ],
      "name": "CollateralReleased",
      "type": "event"
    },
    {
      "anonymous": false,
      "inputs": [
        {
          "indexed": true,
          "internalType": "address",
          "name": "user",
          "type": "address"
        },
        {
          "indexed": false,
          "internalType": "uint256",
          "name": "amount",
          "type": "uint256"
        }
      ],
      "name": "CollateralWithdrawn",
      "type": "event"
    },
    {
      "anonymous": false,
      "inputs": [
        {
          "indexed": true,
          "internalType": "address",
          "name": "market",
          "type": "address"
        }
      ],
      "name": "MarketAuthorized",
      "type": "event"
    },
    {
      "anonymous": false,
      "inputs": [
        {
          "indexed": true,
          "internalType": "address",
          "name": "market",
          "type": "address"
        }
      ],
      "name": "MarketDeauthorized",
      "type": "event"
    },
    {
      "anonymous": false,
      "inputs": [
        {
          "indexed": true,
          "internalType": "address",
          "name": "previousOwner",
          "type": "address"
        },
        {
          "indexed": true,
          "internalType": "address",
          "name": "newOwner",
          "type": "address"
        }
      ],
      "name": "OwnershipTransferred",
      "type": "event"
    },
    {
      "inputs": [
        {
          "internalType": "address",
          "name": "_market",
          "type": "address"
        }
      ],
      "name": "authorizeMarket",
      "outputs": [],
      "stateMutability": "nonpayable",
      "type": "function"
    },
    {
      "inputs": [
        {
          "internalType": "address",
          "name": "",
          "type": "address"
        }
      ],
      "name": "authorizedMarkets",
      "outputs": [
        {
          "internalType": "bool",
          "name": "",
          "type": "bool"
        }
      ],
      "stateMutability": "view",
      "type": "function"
    },
    {
      "inputs": [],
      "name": "collateralToken",
      "outputs": [
        {
          "internalType": "contract IERC20",
          "name": "",
          "type": "address"
        }
      ],
      "stateMutability": "view",
      "type": "function"
    },
    {
      "inputs": [
        {
          "internalType": "address",
          "name": "_market",
          "type": "address"
        }
      ],
      "name": "deauthorizeMarket",
      "outputs": [],
      "stateMutability": "nonpayable",
      "type": "function"
    },
    {
      "inputs": [
        {
          "internalType": "uint256",
          "name": "_amount",
          "type": "uint256"
        }
      ],
      "name": "depositCollateral",
      "outputs": [],
      "stateMutability": "nonpayable",
      "type": "function"
    },
    {
      "inputs": [
        {
          "internalType": "address",
          "name": "_user",
          "type": "address"
        }
      ],
      "name": "getAvailableCollateral",
      "outputs": [
        {
          "internalType": "uint256",
          "name": "",
          "type": "uint256"
        }
      ],
      "stateMutability": "view",
      "type": "function"
    },
    {
      "inputs": [
        {
          "internalType": "address",
          "name": "_user",
          "type": "address"
        },
        {
          "internalType": "uint256",
          "name": "_amount",
          "type": "uint256"
        }
      ],
      "name": "lockCollateral",
      "outputs": [],
      "stateMutability": "nonpayable",
      "type": "function"
    },
    {
      "inputs": [
        {
          "internalType": "address",
          "name": "",
          "type": "address"
        }
      ],
      "name": "lockedCollateral",
      "outputs": [
        {
          "internalType": "uint256",
          "name": "",
          "type": "uint256"
        }
      ],
      "stateMutability": "view",
      "type": "function"
    },
    {
      "inputs": [],
      "name": "owner",
      "outputs": [
        {
          "internalType": "address",
          "name": "",
          "type": "address"
        }
      ],
      "stateMutability": "view",
      "type": "function"
    },
    {
      "inputs": [
        {
          "internalType": "address",
          "name": "_user",
          "type": "address"
        },
        {
          "internalType": "uint256",
          "name": "_amount",
          "type": "uint256"
        }
      ],
      "name": "releaseCollateral",
      "outputs": [],
      "stateMutability": "nonpayable",
      "type": "function"
    },
    {
      "inputs": [],
      "name": "renounceOwnership",
      "outputs": [],
      "stateMutability": "nonpayable",
      "type": "function"
    },
    {
      "inputs": [
        {
          "internalType": "address",
          "name": "newOwner",
          "type": "address"
        }
      ],
      "name": "transferOwnership",
      "outputs": [],
      "stateMutability": "nonpayable",
      "type": "function"
    },
    {
      "inputs": [
        {
          "internalType": "address",
          "name": "",
          "type": "address"
        }
      ],
      "name": "userBalance",
      "outputs": [
        {
          "internalType": "uint256",
          "name": "",
          "type": "uint256"
        }
      ],
      "stateMutability": "view",
      "type": "function"
    },
    {
      "inputs": [
        {
          "internalType": "uint256",
          "name": "_amount",
          "type": "uint256"
        }
      ],
      "name": "withdrawCollateral",
      "outputs": [],
      "stateMutability": "nonpayable",
      "type": "function"
    }
  ],
  "bytecode": "0x608060405234801561001057600080fd5b50604051610c1c380380610c1c83398101604081905261002f916100d4565b338061005557604051631e4fbdf760e01b81526000600482015260240160405180910390fd5b61005e81610084565b50600180546001600160a01b0319166001600160a01b0392909216919091179055610104565b600080546001600160a01b038381166001600160a01b0319831681178455604051919092169283917f8be0079c531659141344cd1fd0a4f28419497f9722a3daafe3b4186f6b6457e09190a35050565b6000602082840312156100e657600080fd5b81516001600160a01b03811681146100fd57600080fd5b9392505050565b610b09806101136000396000f3fe608060405234801561001057600080fd5b50600436106100ea5760003560e01c8063b2016bd41161008c578063bd6f2c5211610066578063bd6f2c5214610203578063f2862e6714610216578063f2fde38b14610229578063fa26958c1461023c57600080fd5b8063b2016bd4146101ca578063bad4a01f146101dd578063bb69bc71146101f057600080fd5b80636112fe2e116100c85780636112fe2e1461016a578063715018a61461017d5780638da5cb5b1461018557806392bdf9ba146101aa57600080fd5b80630103c92b146100ef5780634299b8a21461012257806347a7d10714610155575b600080fd5b61010f6100fd366004610998565b60036020526000908152604090205481565b6040519081526020015b60405180910390f35b610145610130366004610998565b60046020526000908152604090205460ff1681565b6040519015158152602001610119565b6101686101633660046109ba565b61024f565b005b6101686101783660046109e4565b61038e565b610168610506565b6000546001600160a01b03165b6040516001600160a01b039091168152602001610119565b61010f6101b8366004610998565b60026020526000908152604090205481565b600154610192906001600160a01b031681565b6101686101eb3660046109e4565b61051a565b61010f6101fe366004610998565b61064f565b6101686102113660046109ba565b610683565b610168610224366004610998565b6107cd565b610168610237366004610998565b610870565b61016861024a366004610998565b6108ae565b3360009081526004602052604090205460ff166102ae5760405162461bcd60e51b8152602060048201526018602482015277139bdd08185b88185d5d1a1bdc9a5e9959081b585c9ad95d60421b60448201526064015b60405180910390fd5b600081116102ce5760405162461bcd60e51b81526004016102a5906109fd565b6001600160a01b03821660009081526002602090815260408083205460039092528220546102fc9190610a4a565b90508181101561031e5760405162461bcd60e51b81526004016102a590610a5d565b6001600160a01b03831660009081526002602052604081208054849290610346908490610a9e565b90915550506040518281526001600160a01b038416907f2251f6a4ed7fe619e9e8ce557d05a63dd484284f9c95c9ab334f6a7707cd08009060200160405180910390a2505050565b600081116103ae5760405162461bcd60e51b81526004016102a5906109fd565b3360009081526002602090815260408083205460039092528220546103d39190610a4a565b9050818110156103f55760405162461bcd60e51b81526004016102a590610a5d565b3360009081526003602052604081208054849290610414908490610a4a565b909155505060015460405163a9059cbb60e01b8152336004820152602481018490526001600160a01b039091169063a9059cbb906044016020604051808303816000875af115801561046a573d6000803e3d6000fd5b505050506040513d601f19601f8201168201806040525081019061048e9190610ab1565b6104cc5760405162461bcd60e51b815260206004820152600f60248201526e151c985b9cd9995c8819985a5b1959608a1b60448201526064016102a5565b60405182815233907fc30fcfbcaac9e0deffa719714eaa82396ff506a0d0d0eebe170830177288715d906020015b60405180910390a25050565b61050e6108ff565b610518600061092c565b565b6000811161053a5760405162461bcd60e51b81526004016102a5906109fd565b6001546040516323b872dd60e01b8152336004820152306024820152604481018390526001600160a01b03909116906323b872dd906064016020604051808303816000875af1158015610591573d6000803e3d6000fd5b505050506040513d601f19601f820116820180604052508101906105b59190610ab1565b6105f35760405162461bcd60e51b815260206004820152600f60248201526e151c985b9cd9995c8819985a5b1959608a1b60448201526064016102a5565b3360009081526003602052604081208054839290610612908490610a9e565b909155505060405181815233907fd7243f6f8212d5188fd054141cf6ea89cfc0d91facb8c3afe2f88a13584801429060200160405180910390a250565b6001600160a01b038116600090815260026020908152604080832054600390925282205461067d9190610a4a565b92915050565b3360009081526004602052604090205460ff166106dd5760405162461bcd60e51b8152602060048201526018602482015277139bdd08185b88185d5d1a1bdc9a5e9959081b585c9ad95d60421b60448201526064016102a5565b600081116106fd5760405162461bcd60e51b81526004016102a5906109fd565b6001600160a01b0382166000908152600260205260409020548111156107655760405162461bcd60e51b815260206004820152601e60248201527f496e73756666696369656e74206c6f636b656420636f6c6c61746572616c000060448201526064016102a5565b6001600160a01b0382166000908152600260205260408120805483929061078d908490610a4a565b90915550506040518181526001600160a01b038316907f15192ee5c95e01de0681c61d6cbfa4b8d1e4c160294017332eb7d6e5c4ea38b7906020016104fa565b6107d56108ff565b6001600160a01b0381166108245760405162461bcd60e51b8152602060048201526016602482015275496e76616c6964206d61726b6574206164647265737360501b60448201526064016102a5565b6001600160a01b038116600081815260046020526040808220805460ff19166001179055517fff192fe3e3e847428def87bbc2d04aa27048f6669caf7380828f868acd86bbfa9190a250565b6108786108ff565b6001600160a01b0381166108a257604051631e4fbdf760e01b8152600060048201526024016102a5565b6108ab8161092c565b50565b6108b66108ff565b6001600160a01b038116600081815260046020526040808220805460ff19169055517f014dad1a8290ff4fc1990d6ffdfce4ef09f541b4e8e02abce86c42d4c310d0569190a250565b6000546001600160a01b031633146105185760405163118cdaa760e01b81523360048201526024016102a5565b600080546001600160a01b038381166001600160a01b0319831681178455604051919092169283917f8be0079c531659141344cd1fd0a4f28419497f9722a3daafe3b4186f6b6457e09190a35050565b80356001600160a01b038116811461099357600080fd5b919050565b6000602082840312156109aa57600080fd5b6109b38261097c565b9392505050565b600080604083850312156109cd57600080fd5b6109d68361097c565b946020939093013593505050565b6000602082840312156109f657600080fd5b5035919050565b6020808252601d908201527f416d6f756e74206d7573742062652067726561746572207468616e2030000000604082015260600190565b634e487b7160e01b600052601160045260246000fd5b8181038181111561067d5761067d610a34565b60208082526021908201527f496e73756666696369656e7420617661696c61626c6520636f6c6c61746572616040820152601b60fa1b606082015260800190565b8082018082111561067d5761067d610a34565b600060208284031215610ac357600080fd5b815180151581146109b357600080fdfea26469706673582212207906c15ec5cf57aa7710669a75f609e6e8368fb5e961bf33cbaa7fac97a4186264736f6c63430008140033",
  "linkReferences": {},
  "deployedLinkReferences": {}
}