{"contracts/mocks/MockLiquidityPool.sol":{"MockLiquidityPool":{"abi":[{"inputs":[{"internalType":"uint256","name":"_amount","type":"uint256"}],"name":"addLiquidity","outputs":[],"stateMutability":"nonpayable","type":"function"},{"inputs":[],"name":"claimRewards","outputs":[],"stateMutability":"nonpayable","type":"function"},{"inputs":[{"internalType":"uint256","name":"amount","type":"uint256"}],"name":"collectFees","outputs":[],"stateMutability":"nonpayable","type":"function"},{"inputs":[],"name":"getInsuranceFund","outputs":[{"internalType":"uint256","name":"","type":"uint256"}],"stateMutability":"view","type":"function"},{"inputs":[{"internalType":"address","name":"_provider","type":"address"}],"name":"getProviderInfo","outputs":[{"internalType":"uint256","name":"amount","type":"uint256"},{"internalType":"uint256","name":"sharePercentage","type":"uint256"},{"internalType":"uint256","name":"rewardsAccrued","type":"uint256"}],"stateMutability":"view","type":"function"},{"inputs":[{"internalType":"uint256","name":"_amount","type":"uint256"}],"name":"removeLiquidity","outputs":[],"stateMutability":"nonpayable","type":"function"},{"inputs":[{"internalType":"uint256","name":"amount","type":"uint256"}],"name":"setInsuranceFund","outputs":[],"stateMutability":"nonpayable","type":"function"},{"inputs":[{"internalType":"uint256","name":"amount","type":"uint256"}],"name":"setTotalLiquidity","outputs":[],"stateMutability":"nonpayable","type":"function"},{"inputs":[],"name":"totalLiquidity","outputs":[{"internalType":"uint256","name":"","type":"uint256"}],"stateMutability":"view","type":"function"},{"inputs":[{"internalType":"uint256","name":"newRate","type":"uint256"}],"name":"updateUtilizationRate","outputs":[],"stateMutability":"nonpayable","type":"function"},{"inputs":[{"internalType":"uint256","name":"amount","type":"uint256"}],"name":"useInsuranceFund","outputs":[{"internalType":"bool","name":"","type":"bool"}],"stateMutability":"nonpayable","type":"function"},{"inputs":[],"name":"utilizationRate","outputs":[{"internalType":"uint256","name":"","type":"uint256"}],"stateMutability":"view","type":"function"}],"evm":{"bytecode":{"linkReferences":{},"object":"608060405269d3c21bcecceda100000060005569152d02c7e14af680000060025534801561002c57600080fd5b506103148061003c6000396000f3fe608060405234801561001057600080fd5b50600436106100b45760003560e01c80636c321c8a116100715780636c321c8a146101135780637583902f1461011b5780639c8f9f231461014e578063a50e6fc914610161578063b17acdcd14610184578063b237adf51461019557600080fd5b806309b7d94b146100b957806315770f92146100ce578063158626f7146100e5578063372500ab146100cc57806351c6590a146100ed5780635c0f8f0114610100575b600080fd5b6100cc6100c7366004610253565b600055565b005b6000545b6040519081526020015b60405180910390f35b6002546100d2565b6100cc6100fb366004610253565b6101a8565b6100cc61010e366004610253565b600155565b6001546100d2565b61013361012936600461026c565b5060009081908190565b604080519384526020840192909252908201526060016100dc565b6100cc61015c366004610253565b6101c1565b61017461016f366004610253565b610221565b60405190151581526020016100dc565b6100cc610192366004610253565b50565b6100cc6101a3366004610253565b600255565b806000808282546101b991906102b2565b909155505050565b8060005410156102105760405162461bcd60e51b8152602060048201526016602482015275496e73756666696369656e74206c697175696469747960501b604482015260640160405180910390fd5b806000808282546101b991906102cb565b6000816002541061024b57816002600082825461023e91906102cb565b9091555060019392505050565b506000919050565b60006020828403121561026557600080fd5b5035919050565b60006020828403121561027e57600080fd5b81356001600160a01b038116811461029557600080fd5b9392505050565b634e487b7160e01b600052601160045260246000fd5b808201808211156102c5576102c561029c565b92915050565b818103818111156102c5576102c561029c56fea26469706673582212202b873498d309a2a1a96f7ea8003e7c11dd747af9a92002df5cc490db2f9f22d664736f6c63430008140033","opcodes":"PUSH1 0x80 PUSH1 0x40 MSTORE PUSH10 0xD3C21BCECCEDA1000000 PUSH1 0x0 SSTORE PUSH10 0x152D02C7E14AF6800000 PUSH1 0x2 SSTORE CALLVALUE DUP1 ISZERO PUSH2 0x2C JUMPI PUSH1 0x0 DUP1 REVERT JUMPDEST POP PUSH2 0x314 DUP1 PUSH2 0x3C PUSH1 0x0 CODECOPY PUSH1 0x0 RETURN INVALID PUSH1 0x80 PUSH1 0x40 MSTORE CALLVALUE DUP1 ISZERO PUSH2 0x10 JUMPI PUSH1 0x0 DUP1 REVERT JUMPDEST POP PUSH1 0x4 CALLDATASIZE LT PUSH2 0xB4 JUMPI PUSH1 0x0 CALLDATALOAD PUSH1 0xE0 SHR DUP1 PUSH4 0x6C321C8A GT PUSH2 0x71 JUMPI DUP1 PUSH4 0x6C321C8A EQ PUSH2 0x113 JUMPI DUP1 PUSH4 0x7583902F EQ PUSH2 0x11B JUMPI DUP1 PUSH4 0x9C8F9F23 EQ PUSH2 0x14E JUMPI DUP1 PUSH4 0xA50E6FC9 EQ PUSH2 0x161 JUMPI DUP1 PUSH4 0xB17ACDCD EQ PUSH2 0x184 JUMPI DUP1 PUSH4 0xB237ADF5 EQ PUSH2 0x195 JUMPI PUSH1 0x0 DUP1 REVERT JUMPDEST DUP1 PUSH4 0x9B7D94B EQ PUSH2 0xB9 JUMPI DUP1 PUSH4 0x15770F92 EQ PUSH2 0xCE JUMPI DUP1 PUSH4 0x158626F7 EQ PUSH2 0xE5 JUMPI DUP1 PUSH4 0x372500AB EQ PUSH2 0xCC JUMPI DUP1 PUSH4 0x51C6590A EQ PUSH2 0xED JUMPI DUP1 PUSH4 0x5C0F8F01 EQ PUSH2 0x100 JUMPI JUMPDEST PUSH1 0x0 DUP1 REVERT JUMPDEST PUSH2 0xCC PUSH2 0xC7 CALLDATASIZE PUSH1 0x4 PUSH2 0x253 JUMP JUMPDEST PUSH1 0x0 SSTORE JUMP JUMPDEST STOP JUMPDEST PUSH1 0x0 SLOAD JUMPDEST PUSH1 0x40 MLOAD SWAP1 DUP2 MSTORE PUSH1 0x20 ADD JUMPDEST PUSH1 0x40 MLOAD DUP1 SWAP2 SUB SWAP1 RETURN JUMPDEST PUSH1 0x2 SLOAD PUSH2 0xD2 JUMP JUMPDEST PUSH2 0xCC PUSH2 0xFB CALLDATASIZE PUSH1 0x4 PUSH2 0x253 JUMP JUMPDEST PUSH2 0x1A8 JUMP JUMPDEST PUSH2 0xCC PUSH2 0x10E CALLDATASIZE PUSH1 0x4 PUSH2 0x253 JUMP JUMPDEST PUSH1 0x1 SSTORE JUMP JUMPDEST PUSH1 0x1 SLOAD PUSH2 0xD2 JUMP JUMPDEST PUSH2 0x133 PUSH2 0x129 CALLDATASIZE PUSH1 0x4 PUSH2 0x26C JUMP JUMPDEST POP PUSH1 0x0 SWAP1 DUP2 SWAP1 DUP2 SWAP1 JUMP JUMPDEST PUSH1 0x40 DUP1 MLOAD SWAP4 DUP5 MSTORE PUSH1 0x20 DUP5 ADD SWAP3 SWAP1 SWAP3 MSTORE SWAP1 DUP3 ADD MSTORE PUSH1 0x60 ADD PUSH2 0xDC JUMP JUMPDEST PUSH2 0xCC PUSH2 0x15C CALLDATASIZE PUSH1 0x4 PUSH2 0x253 JUMP JUMPDEST PUSH2 0x1C1 JUMP JUMPDEST PUSH2 0x174 PUSH2 0x16F CALLDATASIZE PUSH1 0x4 PUSH2 0x253 JUMP JUMPDEST PUSH2 0x221 JUMP JUMPDEST PUSH1 0x40 MLOAD SWAP1 ISZERO ISZERO DUP2 MSTORE PUSH1 0x20 ADD PUSH2 0xDC JUMP JUMPDEST PUSH2 0xCC PUSH2 0x192 CALLDATASIZE PUSH1 0x4 PUSH2 0x253 JUMP JUMPDEST POP JUMP JUMPDEST PUSH2 0xCC PUSH2 0x1A3 CALLDATASIZE PUSH1 0x4 PUSH2 0x253 JUMP JUMPDEST PUSH1 0x2 SSTORE JUMP JUMPDEST DUP1 PUSH1 0x0 DUP1 DUP3 DUP3 SLOAD PUSH2 0x1B9 SWAP2 SWAP1 PUSH2 0x2B2 JUMP JUMPDEST SWAP1 SWAP2 SSTORE POP POP POP JUMP JUMPDEST DUP1 PUSH1 0x0 SLOAD LT ISZERO PUSH2 0x210 JUMPI PUSH1 0x40 MLOAD PUSH3 0x461BCD PUSH1 0xE5 SHL DUP2 MSTORE PUSH1 0x20 PUSH1 0x4 DUP3 ADD MSTORE PUSH1 0x16 PUSH1 0x24 DUP3 ADD MSTORE PUSH22 0x496E73756666696369656E74206C6971756964697479 PUSH1 0x50 SHL PUSH1 0x44 DUP3 ADD MSTORE PUSH1 0x64 ADD PUSH1 0x40 MLOAD DUP1 SWAP2 SUB SWAP1 REVERT JUMPDEST DUP1 PUSH1 0x0 DUP1 DUP3 DUP3 SLOAD PUSH2 0x1B9 SWAP2 SWAP1 PUSH2 0x2CB JUMP JUMPDEST PUSH1 0x0 DUP2 PUSH1 0x2 SLOAD LT PUSH2 0x24B JUMPI DUP2 PUSH1 0x2 PUSH1 0x0 DUP3 DUP3 SLOAD PUSH2 0x23E SWAP2 SWAP1 PUSH2 0x2CB JUMP JUMPDEST SWAP1 SWAP2 SSTORE POP PUSH1 0x1 SWAP4 SWAP3 POP POP POP JUMP JUMPDEST POP PUSH1 0x0 SWAP2 SWAP1 POP JUMP JUMPDEST PUSH1 0x0 PUSH1 0x20 DUP3 DUP5 SUB SLT ISZERO PUSH2 0x265 JUMPI PUSH1 0x0 DUP1 REVERT JUMPDEST POP CALLDATALOAD SWAP2 SWAP1 POP JUMP JUMPDEST PUSH1 0x0 PUSH1 0x20 DUP3 DUP5 SUB SLT ISZERO PUSH2 0x27E JUMPI PUSH1 0x0 DUP1 REVERT JUMPDEST DUP2 CALLDATALOAD PUSH1 0x1 PUSH1 0x1 PUSH1 0xA0 SHL SUB DUP2 AND DUP2 EQ PUSH2 0x295 JUMPI PUSH1 0x0 DUP1 REVERT JUMPDEST SWAP4 SWAP3 POP POP POP JUMP JUMPDEST PUSH4 0x4E487B71 PUSH1 0xE0 SHL PUSH1 0x0 MSTORE PUSH1 0x11 PUSH1 0x4 MSTORE PUSH1 0x24 PUSH1 0x0 REVERT JUMPDEST DUP1 DUP3 ADD DUP1 DUP3 GT ISZERO PUSH2 0x2C5 JUMPI PUSH2 0x2C5 PUSH2 0x29C JUMP JUMPDEST SWAP3 SWAP2 POP POP JUMP JUMPDEST DUP2 DUP2 SUB DUP2 DUP2 GT ISZERO PUSH2 0x2C5 JUMPI PUSH2 0x2C5 PUSH2 0x29C JUMP INVALID LOG2 PUSH5 0x6970667358 0x22 SLT KECCAK256 0x2B DUP8 CALLVALUE SWAP9 0xD3 MULMOD LOG2 LOG1 0xA9 PUSH16 0x7EA8003E7C11DD747AF9A92002DF5CC4 SWAP1 0xDB 0x2F SWAP16 0x22 0xD6 PUSH5 0x736F6C6343 STOP ADDMOD EQ STOP CALLER "},"methodIdentifiers":{"addLiquidity(uint256)":"51c6590a","claimRewards()":"372500ab","collectFees(uint256)":"b17acdcd","getInsuranceFund()":"158626f7","getProviderInfo(address)":"7583902f","removeLiquidity(uint256)":"9c8f9f23","setInsuranceFund(uint256)":"b237adf5","setTotalLiquidity(uint256)":"09b7d94b","totalLiquidity()":"15770f92","updateUtilizationRate(uint256)":"5c0f8f01","useInsuranceFund(uint256)":"a50e6fc9","utilizationRate()":"6c321c8a"}}}}}