{"contracts/PerpetualMarket.sol":{"PerpetualMarket":{"abi":[{"inputs":[{"internalType":"address","name":"_oracle","type":"address"},{"internalType":"address","name":"_collateralManager","type":"address"},{"internalType":"address","name":"_liquidityPool","type":"address"},{"internalType":"string","name":"_marketSymbol","type":"string"},{"internalType":"uint256","name":"_fundingInterval","type":"uint256"},{"internalType":"uint256","name":"_tradingFee","type":"uint256"}],"stateMutability":"nonpayable","type":"constructor"},{"anonymous":false,"inputs":[{"indexed":false,"internalType":"uint256","name":"newFundingRate","type":"uint256"}],"name":"FundingRateUpdated","type":"event"},{"anonymous":false,"inputs":[],"name":"MarketPaused","type":"event"},{"anonymous":false,"inputs":[],"name":"MarketResumed","type":"event"},{"anonymous":false,"inputs":[{"indexed":true,"internalType":"address","name":"trader","type":"address"},{"indexed":false,"internalType":"uint256","name":"size","type":"uint256"},{"indexed":false,"internalType":"uint256","name":"margin","type":"uint256"},{"indexed":false,"internalType":"bool","name":"isLong","type":"bool"},{"indexed":false,"internalType":"uint256","name":"price","type":"uint256"},{"indexed":false,"internalType":"int256","name":"pnl","type":"int256"}],"name":"PositionClosed","type":"event"},{"anonymous":false,"inputs":[{"indexed":true,"internalType":"address","name":"trader","type":"address"},{"indexed":false,"internalType":"uint256","name":"size","type":"uint256"},{"indexed":false,"internalType":"uint256","name":"margin","type":"uint256"},{"indexed":false,"internalType":"bool","name":"isLong","type":"bool"},{"indexed":false,"internalType":"uint256","name":"price","type":"uint256"}],"name":"PositionLiquidated","type":"event"},{"anonymous":false,"inputs":[{"indexed":true,"internalType":"address","name":"trader","type":"address"},{"indexed":false,"internalType":"uint256","name":"size","type":"uint256"},{"indexed":false,"internalType":"uint256","name":"margin","type":"uint256"},{"indexed":false,"internalType":"bool","name":"isLong","type":"bool"},{"indexed":false,"internalType":"uint256","name":"price","type":"uint256"}],"name":"PositionOpened","type":"event"},{"inputs":[],"name":"LIQUIDATION_THRESHOLD","outputs":[{"internalType":"uint256","name":"","type":"uint256"}],"stateMutability":"view","type":"function"},{"inputs":[],"name":"MAX_LEVERAGE","outputs":[{"internalType":"uint256","name":"","type":"uint256"}],"stateMutability":"view","type":"function"},{"inputs":[],"name":"PRECISION","outputs":[{"internalType":"uint256","name":"","type":"uint256"}],"stateMutability":"view","type":"function"},{"inputs":[],"name":"closePosition","outputs":[],"stateMutability":"nonpayable","type":"function"},{"inputs":[],"name":"collateralManager","outputs":[{"internalType":"contract ICollateralManager","name":"","type":"address"}],"stateMutability":"view","type":"function"},{"inputs":[],"name":"fundingInterval","outputs":[{"internalType":"uint256","name":"","type":"uint256"}],"stateMutability":"view","type":"function"},{"inputs":[],"name":"fundingRate","outputs":[{"internalType":"uint256","name":"","type":"uint256"}],"stateMutability":"view","type":"function"},{"inputs":[],"name":"lastFundingTime","outputs":[{"internalType":"uint256","name":"","type":"uint256"}],"stateMutability":"view","type":"function"},{"inputs":[{"internalType":"address","name":"_trader","type":"address"}],"name":"liquidatePosition","outputs":[],"stateMutability":"nonpayable","type":"function"},{"inputs":[],"name":"liquidityPool","outputs":[{"internalType":"contract ILiquidityPool","name":"","type":"address"}],"stateMutability":"view","type":"function"},{"inputs":[],"name":"marketSymbol","outputs":[{"internalType":"string","name":"","type":"string"}],"stateMutability":"view","type":"function"},{"inputs":[],"name":"openInterestLong","outputs":[{"internalType":"uint256","name":"","type":"uint256"}],"stateMutability":"view","type":"function"},{"inputs":[],"name":"openInterestShort","outputs":[{"internalType":"uint256","name":"","type":"uint256"}],"stateMutability":"view","type":"function"},{"inputs":[{"internalType":"uint256","name":"_margin","type":"uint256"},{"internalType":"uint256","name":"_leverage","type":"uint256"},{"internalType":"bool","name":"_isLong","type":"bool"}],"name":"openPosition","outputs":[],"stateMutability":"nonpayable","type":"function"},{"inputs":[],"name":"oracle","outputs":[{"internalType":"contract IPriceOracle","name":"","type":"address"}],"stateMutability":"view","type":"function"},{"inputs":[],"name":"pauseTrading","outputs":[],"stateMutability":"nonpayable","type":"function"},{"inputs":[{"internalType":"address","name":"","type":"address"}],"name":"positions","outputs":[{"internalType":"uint256","name":"size","type":"uint256"},{"internalType":"uint256","name":"margin","type":"uint256"},{"internalType":"uint256","name":"entryPrice","type":"uint256"},{"internalType":"bool","name":"isLong","type":"bool"},{"internalType":"uint256","name":"lastFundingPayment","type":"uint256"}],"stateMutability":"view","type":"function"},{"inputs":[],"name":"resumeTrading","outputs":[],"stateMutability":"nonpayable","type":"function"},{"inputs":[],"name":"tradingEnabled","outputs":[{"internalType":"bool","name":"","type":"bool"}],"stateMutability":"view","type":"function"},{"inputs":[],"name":"tradingFee","outputs":[{"internalType":"uint256","name":"","type":"uint256"}],"stateMutability":"view","type":"function"}],"evm":{"bytecode":{"linkReferences":{},"object":"60806040523480156200001157600080fd5b5060405162001b5138038062001b518339810160408190526200003491620000d7565b600080546001600160a01b038089166001600160a01b03199283161790925560018054888416908316179055600280549287169290911691909117905560096200007f848262000285565b50600891909155600b555050426007555050600a805460ff1916600117905562000351565b80516001600160a01b0381168114620000bc57600080fd5b919050565b634e487b7160e01b600052604160045260246000fd5b60008060008060008060c08789031215620000f157600080fd5b620000fc87620000a4565b955060206200010d818901620000a4565b95506200011d60408901620000a4565b60608901519095506001600160401b03808211156200013b57600080fd5b818a0191508a601f8301126200015057600080fd5b815181811115620001655762000165620000c1565b604051601f8201601f19908116603f01168101908382118183101715620001905762000190620000c1565b816040528281528d86848701011115620001a957600080fd5b600093505b82841015620001cd5784840186015181850187015292850192620001ae565b60008684830101528098505050505050506080870151915060a087015190509295509295509295565b600181811c908216806200020b57607f821691505b6020821081036200022c57634e487b7160e01b600052602260045260246000fd5b50919050565b601f8211156200028057600081815260208120601f850160051c810160208610156200025b5750805b601f850160051c820191505b818110156200027c5782815560010162000267565b5050505b505050565b81516001600160401b03811115620002a157620002a1620000c1565b620002b981620002b28454620001f6565b8462000232565b602080601f831160018114620002f15760008415620002d85750858301515b600019600386901b1c1916600185901b1785556200027c565b600085815260208120601f198616915b82811015620003225788860151825594840194600190910190840162000301565b5085821015620003415787850151600019600388901b60f8161c191681555b5050505050600190811b01905550565b6117f080620003616000396000f3fe608060405234801561001057600080fd5b506004361061012c5760003560e01c8063665a11ca116100ad5780639849e412116100715780639849e4121461028d5780639b45ec9714610296578063aaf5eb681461029e578063c393d0e3146102ad578063dcdd079d146102b557600080fd5b8063665a11ca146102435780637498a0f014610256578063794a9747146102695780637dc0d1d01461027257806390a8ae9b1461028557600080fd5b8063321d7fa9116100f4578063321d7fa91461019d57806341d3c84c146101a65780634ada218b146101af57806355f57510146101cc57806356f433521461023a57600080fd5b80630694db1e146101315780631031e36e1461013b5780631558c9661461014357806323be345c14610156578063310a224014610186575b600080fd5b6101396102ca565b005b610139610302565b61013961015136600461152f565b610337565b600154610169906001600160a01b031681565b6040516001600160a01b0390911681526020015b60405180910390f35b61018f60045481565b60405190815260200161017d565b61018f60075481565b61018f60065481565b600a546101bc9060ff1681565b604051901515815260200161017d565b6102106101da366004611568565b60036020819052600091825260409091208054600182015460028301549383015460049093015491939092909160ff9091169085565b6040805195865260208601949094529284019190915215156060830152608082015260a00161017d565b61018f600b5481565b600254610169906001600160a01b031681565b610139610264366004611568565b610834565b61018f60055481565b600054610169906001600160a01b031681565b61018f605081565b61018f60085481565b61018f601481565b61018f670de0b6b3a764000081565b610139610d71565b6102bd6112ab565b60405161017d9190611598565b600a805460ff191660011790556040517fd1f57e4ea31dbdc1e20bfa1e1bd3b7165389e65ec7f9c6fc5ba0b1d55e61fcd090600090a1565b600a805460ff191690556040517f54882d18a6359e96e87b8aaeffe9f2fa9548a1dc5b62f8d0010e5554e6c7771d90600090a1565b600a5460ff1661038e5760405162461bcd60e51b815260206004820152601d60248201527f54726164696e672069732063757272656e746c792064697361626c656400000060448201526064015b60405180910390fd5b60008211801561039f575060148211155b6103de5760405162461bcd60e51b815260206004820152601060248201526f496e76616c6964206c6576657261676560801b6044820152606401610385565b6000831161042e5760405162461bcd60e51b815260206004820152601d60248201527f4d617267696e206d7573742062652067726561746572207468616e20300000006044820152606401610385565b336000908152600360205260409020541561048b5760405162461bcd60e51b815260206004820152601760248201527f506f736974696f6e20616c7265616479206578697374730000000000000000006044820152606401610385565b6000805460405163524f388960e01b81526001600160a01b039091169063524f3889906104bd90600990600401611620565b602060405180830381865afa1580156104da573d6000803e3d6000fd5b505050506040513d601f19601f820116820180604052508101906104fe91906116cc565b9050600081116105205760405162461bcd60e51b8152600401610385906116e5565b600061052c8486611722565b90506000670de0b6b3a7640000600b54836105479190611722565b6105519190611739565b6001546040516347a7d10760e01b8152336004820152602481018990529192506001600160a01b0316906347a7d10790604401600060405180830381600087803b15801561059e57600080fd5b505af11580156105b2573d6000803e3d6000fd5b50505050600081111561061e5760025460405163b17acdcd60e01b8152600481018390526001600160a01b039091169063b17acdcd90602401600060405180830381600087803b15801561060557600080fd5b505af1158015610619573d6000803e3d6000fd5b505050505b6040805160a081018252838152602080820189815282840187815288158015606086019081524260808701908152336000908152600396879052979097209551865592516001860155905160028501559051918301805460ff19169215159290921790915591516004909101556106ac5781600460008282546106a1919061175b565b909155506106c49050565b81600560008282546106be919061175b565b90915550505b60006005546004546106d6919061175b565b90506000600260009054906101000a90046001600160a01b03166001600160a01b03166315770f926040518163ffffffff1660e01b8152600401602060405180830381865afa15801561072d573d6000803e3d6000fd5b505050506040513d601f19601f8201168201806040525081019061075191906116cc565b61075c906002611722565b61076e670de0b6b3a764000084611722565b6107789190611739565b600254604051635c0f8f0160e01b8152600481018390529192506001600160a01b031690635c0f8f0190602401600060405180830381600087803b1580156107bf57600080fd5b505af11580156107d3573d6000803e3d6000fd5b505050506107df611339565b60408051858152602081018a90528715158183015260608101879052905133917fcd994640f2c49b14feb3faffeeb78367dd4be7f01b02e885e5c905ef46a535af919081900360800190a25050505050505050565b6001600160a01b038116600090815260036020818152604092839020835160a08101855281548082526001830154938201939093526002820154948101949094529182015460ff161515606084015260049091015460808301526108cf5760405162461bcd60e51b81526020600482015260126024820152714e6f20706f736974696f6e2065786973747360701b6044820152606401610385565b6000805460405163524f388960e01b81526001600160a01b039091169063524f38899061090190600990600401611620565b602060405180830381865afa15801561091e573d6000803e3d6000fd5b505050506040513d601f19601f8201168201806040525081019061094291906116cc565b9050600081116109645760405162461bcd60e51b8152600401610385906116e5565b60006109708383611359565b905060008082126109855783602001516109b7565b61098e8261176e565b84602001511161099f5760006109b7565b6109a88261176e565b84602001516109b7919061178a565b84519091506000906109ca836064611722565b6109d49190611739565b905060508110610a265760405162461bcd60e51b815260206004820152601960248201527f506f736974696f6e206e6f74206c6971756964617461626c65000000000000006044820152606401610385565b846060015115610a4f57845160048054600090610a4490849061178a565b90915550610a699050565b845160058054600090610a6390849061178a565b90915550505b8451600090610a7a90606490611739565b905060008085128015610a9857506020870151610a968661176e565b115b610aa3576000610abb565b6020870151610ab18661176e565b610abb919061178a565b90508015610b345760025460405163a50e6fc960e01b8152600481018390526001600160a01b039091169063a50e6fc9906024016020604051808303816000875af1158015610b0e573d6000803e3d6000fd5b505050506040513d601f19601f82011682018060405250810190610b32919061179d565b505b8115610b9f57600154604051635eb7962960e11b8152336004820152602481018490526001600160a01b039091169063bd6f2c5290604401600060405180830381600087803b158015610b8657600080fd5b505af1158015610b9a573d6000803e3d6000fd5b505050505b6000600554600454610bb1919061175b565b90506000808211610bc3576000610c61565b600260009054906101000a90046001600160a01b03166001600160a01b03166315770f926040518163ffffffff1660e01b8152600401602060405180830381865afa158015610c16573d6000803e3d6000fd5b505050506040513d601f19601f82011682018060405250810190610c3a91906116cc565b610c45906002611722565b610c57670de0b6b3a764000084611722565b610c619190611739565b600254604051635c0f8f0160e01b8152600481018390529192506001600160a01b031690635c0f8f0190602401600060405180830381600087803b158015610ca857600080fd5b505af1158015610cbc573d6000803e3d6000fd5b50505050896001600160a01b03167fd53d819123736d03ecf50a5157bdb1eb07eec9394e022f7e466550828b4b77a28a600001518b602001518c606001518c604051610d239493929190938452602084019290925215156040830152606082015260800190565b60405180910390a25050506001600160a01b03909616600090815260036020819052604082208281556001810183905560028101839055908101805460ff1916905560040155505050505050565b33600090815260036020526040902054610dc25760405162461bcd60e51b81526020600482015260126024820152714e6f20706f736974696f6e2065786973747360701b6044820152606401610385565b336000908152600360208181526040808420815160a081018352815481526001820154938101939093526002810154838301529283015460ff161515606083015260049283015460808301528354905163524f388960e01b81529193926001600160a01b039091169163524f388991610e3e9160099101611620565b602060405180830381865afa158015610e5b573d6000803e3d6000fd5b505050506040513d601f19601f82011682018060405250810190610e7f91906116cc565b905060008111610ea15760405162461bcd60e51b8152600401610385906116e5565b6000610ead8383611359565b9050610eb7611339565b826060015115610ee057825160048054600090610ed590849061178a565b90915550610efa9050565b825160058054600090610ef490849061178a565b90915550505b6000670de0b6b3a7640000600b548560000151610f179190611722565b610f219190611739565b90508015610f885760025460405163b17acdcd60e01b8152600481018390526001600160a01b039091169063b17acdcd90602401600060405180830381600087803b158015610f6f57600080fd5b505af1158015610f83573d6000803e3d6000fd5b505050505b6000821261102d576000828560200151610fa2919061175b565b905081811115611027576001546001600160a01b031663bd6f2c5233610fc8858561178a565b6040516001600160e01b031960e085901b1681526001600160a01b0390921660048301526024820152604401600060405180830381600087803b15801561100e57600080fd5b505af1158015611022573d6000803e3d6000fd5b505050505b506110e8565b60006110388361176e565b856020015111611049576000611061565b6110528361176e565b8560200151611061919061178a565b9050818111156110e6576001546001600160a01b031663bd6f2c5233611087858561178a565b6040516001600160e01b031960e085901b1681526001600160a01b0390921660048301526024820152604401600060405180830381600087803b1580156110cd57600080fd5b505af11580156110e1573d6000803e3d6000fd5b505050505b505b60006005546004546110fa919061175b565b9050600080821161110c5760006111aa565b600260009054906101000a90046001600160a01b03166001600160a01b03166315770f926040518163ffffffff1660e01b8152600401602060405180830381865afa15801561115f573d6000803e3d6000fd5b505050506040513d601f19601f8201168201806040525081019061118391906116cc565b61118e906002611722565b6111a0670de0b6b3a764000084611722565b6111aa9190611739565b600254604051635c0f8f0160e01b8152600481018390529192506001600160a01b031690635c0f8f0190602401600060405180830381600087803b1580156111f157600080fd5b505af1158015611205573d6000803e3d6000fd5b50508751602089015160608a01516040513395507fcab106ae09bd9cbca858ce88089abda79f874f5e57bbc3f3aff1facd8acbfb01945061126a939291908b908b90948552602085019390935290151560408401526060830152608082015260a00190565b60405180910390a2505033600090815260036020819052604082208281556001810183905560028101839055908101805460ff191690556004015550505050565b600980546112b8906115e6565b80601f01602080910402602001604051908101604052809291908181526020018280546112e4906115e6565b80156113315780601f1061130657610100808354040283529160200191611331565b820191906000526020600020905b81548152906001019060200180831161131457829003601f168201915b505050505081565b600854600754611349919061175b565b4210611357576113576113ff565b565b60008260600151156113cb57826040015182111561139d5760408301518351611382828561178a565b61138c9190611722565b6113969190611739565b90506113f9565b604083015183516113ae848361178a565b6113b89190611722565b6113c29190611739565b6113969061176e565b81836040015111156113e85760408301518351611382848361178a565b604083015183516113ae828561178a565b92915050565b60045415801561140f5750600554155b1561141e5760006006556114e2565b600060055460045411156114705760055460045461143c919061175b565b670de0b6b3a7640000600554600454611455919061178a565b61145f9190611722565b6114699190611739565b90506114b9565b600554600454611480919061175b565b670de0b6b3a7640000600454600554611499919061178a565b6114a39190611722565b6114ad9190611739565b6114b69061176e565b90505b6064600082136114d1576114cc8261176e565b6114d3565b815b6114dd9190611739565b600655505b426007556006546040519081527f54b4f3d4a67cc5da94aefdc1f13908a295dc0ba318e23f92e728131ed95d27c59060200160405180910390a1565b801515811461152c57600080fd5b50565b60008060006060848603121561154457600080fd5b8335925060208401359150604084013561155d8161151e565b809150509250925092565b60006020828403121561157a57600080fd5b81356001600160a01b038116811461159157600080fd5b9392505050565b600060208083528351808285015260005b818110156115c5578581018301518582016040015282016115a9565b506000604082860101526040601f19601f8301168501019250505092915050565b600181811c908216806115fa57607f821691505b60208210810361161a57634e487b7160e01b600052602260045260246000fd5b50919050565b600060208083526000845481600182811c91508083168061164257607f831692505b858310810361165f57634e487b7160e01b85526022600452602485fd5b87860183815260200181801561167c5760018114611692576116bd565b60ff198616825284151560051b820196506116bd565b60008b81526020902060005b868110156116b75781548482015290850190890161169e565b83019750505b50949998505050505050505050565b6000602082840312156116de57600080fd5b5051919050565b6020808252600d908201526c496e76616c696420707269636560981b604082015260600190565b634e487b7160e01b600052601160045260246000fd5b80820281158282048414176113f9576113f961170c565b60008261175657634e487b7160e01b600052601260045260246000fd5b500490565b808201808211156113f9576113f961170c565b6000600160ff1b82016117835761178361170c565b5060000390565b818103818111156113f9576113f961170c565b6000602082840312156117af57600080fd5b81516115918161151e56fea2646970667358221220d3c2a5a652a65122aa03910b2155c7abd3a88249b41f5e2ad9ee1dbbf9e4fc1264736f6c63430008140033","opcodes":"PUSH1 0x80 PUSH1 0x40 MSTORE CALLVALUE DUP1 ISZERO PUSH3 0x11 JUMPI PUSH1 0x0 DUP1 REVERT JUMPDEST POP PUSH1 0x40 MLOAD PUSH3 0x1B51 CODESIZE SUB DUP1 PUSH3 0x1B51 DUP4 CODECOPY DUP2 ADD PUSH1 0x40 DUP2 SWAP1 MSTORE PUSH3 0x34 SWAP2 PUSH3 0xD7 JUMP JUMPDEST PUSH1 0x0 DUP1 SLOAD PUSH1 0x1 PUSH1 0x1 PUSH1 0xA0 SHL SUB DUP1 DUP10 AND PUSH1 0x1 PUSH1 0x1 PUSH1 0xA0 SHL SUB NOT SWAP3 DUP4 AND OR SWAP1 SWAP3 SSTORE PUSH1 0x1 DUP1 SLOAD DUP9 DUP5 AND SWAP1 DUP4 AND OR SWAP1 SSTORE PUSH1 0x2 DUP1 SLOAD SWAP3 DUP8 AND SWAP3 SWAP1 SWAP2 AND SWAP2 SWAP1 SWAP2 OR SWAP1 SSTORE PUSH1 0x9 PUSH3 0x7F DUP5 DUP3 PUSH3 0x285 JUMP JUMPDEST POP PUSH1 0x8 SWAP2 SWAP1 SWAP2 SSTORE PUSH1 0xB SSTORE POP POP TIMESTAMP PUSH1 0x7 SSTORE POP POP PUSH1 0xA DUP1 SLOAD PUSH1 0xFF NOT AND PUSH1 0x1 OR SWAP1 SSTORE PUSH3 0x351 JUMP JUMPDEST DUP1 MLOAD PUSH1 0x1 PUSH1 0x1 PUSH1 0xA0 SHL SUB DUP2 AND DUP2 EQ PUSH3 0xBC JUMPI PUSH1 0x0 DUP1 REVERT JUMPDEST SWAP2 SWAP1 POP JUMP JUMPDEST PUSH4 0x4E487B71 PUSH1 0xE0 SHL PUSH1 0x0 MSTORE PUSH1 0x41 PUSH1 0x4 MSTORE PUSH1 0x24 PUSH1 0x0 REVERT JUMPDEST PUSH1 0x0 DUP1 PUSH1 0x0 DUP1 PUSH1 0x0 DUP1 PUSH1 0xC0 DUP8 DUP10 SUB SLT ISZERO PUSH3 0xF1 JUMPI PUSH1 0x0 DUP1 REVERT JUMPDEST PUSH3 0xFC DUP8 PUSH3 0xA4 JUMP JUMPDEST SWAP6 POP PUSH1 0x20 PUSH3 0x10D DUP2 DUP10 ADD PUSH3 0xA4 JUMP JUMPDEST SWAP6 POP PUSH3 0x11D PUSH1 0x40 DUP10 ADD PUSH3 0xA4 JUMP JUMPDEST PUSH1 0x60 DUP10 ADD MLOAD SWAP1 SWAP6 POP PUSH1 0x1 PUSH1 0x1 PUSH1 0x40 SHL SUB DUP1 DUP3 GT ISZERO PUSH3 0x13B JUMPI PUSH1 0x0 DUP1 REVERT JUMPDEST DUP2 DUP11 ADD SWAP2 POP DUP11 PUSH1 0x1F DUP4 ADD SLT PUSH3 0x150 JUMPI PUSH1 0x0 DUP1 REVERT JUMPDEST DUP2 MLOAD DUP2 DUP2 GT ISZERO PUSH3 0x165 JUMPI PUSH3 0x165 PUSH3 0xC1 JUMP JUMPDEST PUSH1 0x40 MLOAD PUSH1 0x1F DUP3 ADD PUSH1 0x1F NOT SWAP1 DUP2 AND PUSH1 0x3F ADD AND DUP2 ADD SWAP1 DUP4 DUP3 GT DUP2 DUP4 LT OR ISZERO PUSH3 0x190 JUMPI PUSH3 0x190 PUSH3 0xC1 JUMP JUMPDEST DUP2 PUSH1 0x40 MSTORE DUP3 DUP2 MSTORE DUP14 DUP7 DUP5 DUP8 ADD ADD GT ISZERO PUSH3 0x1A9 JUMPI PUSH1 0x0 DUP1 REVERT JUMPDEST PUSH1 0x0 SWAP4 POP JUMPDEST DUP3 DUP5 LT ISZERO PUSH3 0x1CD JUMPI DUP5 DUP5 ADD DUP7 ADD MLOAD DUP2 DUP6 ADD DUP8 ADD MSTORE SWAP3 DUP6 ADD SWAP3 PUSH3 0x1AE JUMP JUMPDEST PUSH1 0x0 DUP7 DUP5 DUP4 ADD ADD MSTORE DUP1 SWAP9 POP POP POP POP POP POP POP PUSH1 0x80 DUP8 ADD MLOAD SWAP2 POP PUSH1 0xA0 DUP8 ADD MLOAD SWAP1 POP SWAP3 SWAP6 POP SWAP3 SWAP6 POP SWAP3 SWAP6 JUMP JUMPDEST PUSH1 0x1 DUP2 DUP2 SHR SWAP1 DUP3 AND DUP1 PUSH3 0x20B JUMPI PUSH1 0x7F DUP3 AND SWAP2 POP JUMPDEST PUSH1 0x20 DUP3 LT DUP2 SUB PUSH3 0x22C JUMPI PUSH4 0x4E487B71 PUSH1 0xE0 SHL PUSH1 0x0 MSTORE PUSH1 0x22 PUSH1 0x4 MSTORE PUSH1 0x24 PUSH1 0x0 REVERT JUMPDEST POP SWAP2 SWAP1 POP JUMP JUMPDEST PUSH1 0x1F DUP3 GT ISZERO PUSH3 0x280 JUMPI PUSH1 0x0 DUP2 DUP2 MSTORE PUSH1 0x20 DUP2 KECCAK256 PUSH1 0x1F DUP6 ADD PUSH1 0x5 SHR DUP2 ADD PUSH1 0x20 DUP7 LT ISZERO PUSH3 0x25B JUMPI POP DUP1 JUMPDEST PUSH1 0x1F DUP6 ADD PUSH1 0x5 SHR DUP3 ADD SWAP2 POP JUMPDEST DUP2 DUP2 LT ISZERO PUSH3 0x27C JUMPI DUP3 DUP2 SSTORE PUSH1 0x1 ADD PUSH3 0x267 JUMP JUMPDEST POP POP POP JUMPDEST POP POP POP JUMP JUMPDEST DUP2 MLOAD PUSH1 0x1 PUSH1 0x1 PUSH1 0x40 SHL SUB DUP2 GT ISZERO PUSH3 0x2A1 JUMPI PUSH3 0x2A1 PUSH3 0xC1 JUMP JUMPDEST PUSH3 0x2B9 DUP2 PUSH3 0x2B2 DUP5 SLOAD PUSH3 0x1F6 JUMP JUMPDEST DUP5 PUSH3 0x232 JUMP JUMPDEST PUSH1 0x20 DUP1 PUSH1 0x1F DUP4 GT PUSH1 0x1 DUP2 EQ PUSH3 0x2F1 JUMPI PUSH1 0x0 DUP5 ISZERO PUSH3 0x2D8 JUMPI POP DUP6 DUP4 ADD MLOAD JUMPDEST PUSH1 0x0 NOT PUSH1 0x3 DUP7 SWAP1 SHL SHR NOT AND PUSH1 0x1 DUP6 SWAP1 SHL OR DUP6 SSTORE PUSH3 0x27C JUMP JUMPDEST PUSH1 0x0 DUP6 DUP2 MSTORE PUSH1 0x20 DUP2 KECCAK256 PUSH1 0x1F NOT DUP7 AND SWAP2 JUMPDEST DUP3 DUP2 LT ISZERO PUSH3 0x322 JUMPI DUP9 DUP7 ADD MLOAD DUP3 SSTORE SWAP5 DUP5 ADD SWAP5 PUSH1 0x1 SWAP1 SWAP2 ADD SWAP1 DUP5 ADD PUSH3 0x301 JUMP JUMPDEST POP DUP6 DUP3 LT ISZERO PUSH3 0x341 JUMPI DUP8 DUP6 ADD MLOAD PUSH1 0x0 NOT PUSH1 0x3 DUP9 SWAP1 SHL PUSH1 0xF8 AND SHR NOT AND DUP2 SSTORE JUMPDEST POP POP POP POP POP PUSH1 0x1 SWAP1 DUP2 SHL ADD SWAP1 SSTORE POP JUMP JUMPDEST PUSH2 0x17F0 DUP1 PUSH3 0x361 PUSH1 0x0 CODECOPY PUSH1 0x0 RETURN INVALID PUSH1 0x80 PUSH1 0x40 MSTORE CALLVALUE DUP1 ISZERO PUSH2 0x10 JUMPI PUSH1 0x0 DUP1 REVERT JUMPDEST POP PUSH1 0x4 CALLDATASIZE LT PUSH2 0x12C JUMPI PUSH1 0x0 CALLDATALOAD PUSH1 0xE0 SHR DUP1 PUSH4 0x665A11CA GT PUSH2 0xAD JUMPI DUP1 PUSH4 0x9849E412 GT PUSH2 0x71 JUMPI DUP1 PUSH4 0x9849E412 EQ PUSH2 0x28D JUMPI DUP1 PUSH4 0x9B45EC97 EQ PUSH2 0x296 JUMPI DUP1 PUSH4 0xAAF5EB68 EQ PUSH2 0x29E JUMPI DUP1 PUSH4 0xC393D0E3 EQ PUSH2 0x2AD JUMPI DUP1 PUSH4 0xDCDD079D EQ PUSH2 0x2B5 JUMPI PUSH1 0x0 DUP1 REVERT JUMPDEST DUP1 PUSH4 0x665A11CA EQ PUSH2 0x243 JUMPI DUP1 PUSH4 0x7498A0F0 EQ PUSH2 0x256 JUMPI DUP1 PUSH4 0x794A9747 EQ PUSH2 0x269 JUMPI DUP1 PUSH4 0x7DC0D1D0 EQ PUSH2 0x272 JUMPI DUP1 PUSH4 0x90A8AE9B EQ PUSH2 0x285 JUMPI PUSH1 0x0 DUP1 REVERT JUMPDEST DUP1 PUSH4 0x321D7FA9 GT PUSH2 0xF4 JUMPI DUP1 PUSH4 0x321D7FA9 EQ PUSH2 0x19D JUMPI DUP1 PUSH4 0x41D3C84C EQ PUSH2 0x1A6 JUMPI DUP1 PUSH4 0x4ADA218B EQ PUSH2 0x1AF JUMPI DUP1 PUSH4 0x55F57510 EQ PUSH2 0x1CC JUMPI DUP1 PUSH4 0x56F43352 EQ PUSH2 0x23A JUMPI PUSH1 0x0 DUP1 REVERT JUMPDEST DUP1 PUSH4 0x694DB1E EQ PUSH2 0x131 JUMPI DUP1 PUSH4 0x1031E36E EQ PUSH2 0x13B JUMPI DUP1 PUSH4 0x1558C966 EQ PUSH2 0x143 JUMPI DUP1 PUSH4 0x23BE345C EQ PUSH2 0x156 JUMPI DUP1 PUSH4 0x310A2240 EQ PUSH2 0x186 JUMPI JUMPDEST PUSH1 0x0 DUP1 REVERT JUMPDEST PUSH2 0x139 PUSH2 0x2CA JUMP JUMPDEST STOP JUMPDEST PUSH2 0x139 PUSH2 0x302 JUMP JUMPDEST PUSH2 0x139 PUSH2 0x151 CALLDATASIZE PUSH1 0x4 PUSH2 0x152F JUMP JUMPDEST PUSH2 0x337 JUMP JUMPDEST PUSH1 0x1 SLOAD PUSH2 0x169 SWAP1 PUSH1 0x1 PUSH1 0x1 PUSH1 0xA0 SHL SUB AND DUP2 JUMP JUMPDEST PUSH1 0x40 MLOAD PUSH1 0x1 PUSH1 0x1 PUSH1 0xA0 SHL SUB SWAP1 SWAP2 AND DUP2 MSTORE PUSH1 0x20 ADD JUMPDEST PUSH1 0x40 MLOAD DUP1 SWAP2 SUB SWAP1 RETURN JUMPDEST PUSH2 0x18F PUSH1 0x4 SLOAD DUP2 JUMP JUMPDEST PUSH1 0x40 MLOAD SWAP1 DUP2 MSTORE PUSH1 0x20 ADD PUSH2 0x17D JUMP JUMPDEST PUSH2 0x18F PUSH1 0x7 SLOAD DUP2 JUMP JUMPDEST PUSH2 0x18F PUSH1 0x6 SLOAD DUP2 JUMP JUMPDEST PUSH1 0xA SLOAD PUSH2 0x1BC SWAP1 PUSH1 0xFF AND DUP2 JUMP JUMPDEST PUSH1 0x40 MLOAD SWAP1 ISZERO ISZERO DUP2 MSTORE PUSH1 0x20 ADD PUSH2 0x17D JUMP JUMPDEST PUSH2 0x210 PUSH2 0x1DA CALLDATASIZE PUSH1 0x4 PUSH2 0x1568 JUMP JUMPDEST PUSH1 0x3 PUSH1 0x20 DUP2 SWAP1 MSTORE PUSH1 0x0 SWAP2 DUP3 MSTORE PUSH1 0x40 SWAP1 SWAP2 KECCAK256 DUP1 SLOAD PUSH1 0x1 DUP3 ADD SLOAD PUSH1 0x2 DUP4 ADD SLOAD SWAP4 DUP4 ADD SLOAD PUSH1 0x4 SWAP1 SWAP4 ADD SLOAD SWAP2 SWAP4 SWAP1 SWAP3 SWAP1 SWAP2 PUSH1 0xFF SWAP1 SWAP2 AND SWAP1 DUP6 JUMP JUMPDEST PUSH1 0x40 DUP1 MLOAD SWAP6 DUP7 MSTORE PUSH1 0x20 DUP7 ADD SWAP5 SWAP1 SWAP5 MSTORE SWAP3 DUP5 ADD SWAP2 SWAP1 SWAP2 MSTORE ISZERO ISZERO PUSH1 0x60 DUP4 ADD MSTORE PUSH1 0x80 DUP3 ADD MSTORE PUSH1 0xA0 ADD PUSH2 0x17D JUMP JUMPDEST PUSH2 0x18F PUSH1 0xB SLOAD DUP2 JUMP JUMPDEST PUSH1 0x2 SLOAD PUSH2 0x169 SWAP1 PUSH1 0x1 PUSH1 0x1 PUSH1 0xA0 SHL SUB AND DUP2 JUMP JUMPDEST PUSH2 0x139 PUSH2 0x264 CALLDATASIZE PUSH1 0x4 PUSH2 0x1568 JUMP JUMPDEST PUSH2 0x834 JUMP JUMPDEST PUSH2 0x18F PUSH1 0x5 SLOAD DUP2 JUMP JUMPDEST PUSH1 0x0 SLOAD PUSH2 0x169 SWAP1 PUSH1 0x1 PUSH1 0x1 PUSH1 0xA0 SHL SUB AND DUP2 JUMP JUMPDEST PUSH2 0x18F PUSH1 0x50 DUP2 JUMP JUMPDEST PUSH2 0x18F PUSH1 0x8 SLOAD DUP2 JUMP JUMPDEST PUSH2 0x18F PUSH1 0x14 DUP2 JUMP JUMPDEST PUSH2 0x18F PUSH8 0xDE0B6B3A7640000 DUP2 JUMP JUMPDEST PUSH2 0x139 PUSH2 0xD71 JUMP JUMPDEST PUSH2 0x2BD PUSH2 0x12AB JUMP JUMPDEST PUSH1 0x40 MLOAD PUSH2 0x17D SWAP2 SWAP1 PUSH2 0x1598 JUMP JUMPDEST PUSH1 0xA DUP1 SLOAD PUSH1 0xFF NOT AND PUSH1 0x1 OR SWAP1 SSTORE PUSH1 0x40 MLOAD PUSH32 0xD1F57E4EA31DBDC1E20BFA1E1BD3B7165389E65EC7F9C6FC5BA0B1D55E61FCD0 SWAP1 PUSH1 0x0 SWAP1 LOG1 JUMP JUMPDEST PUSH1 0xA DUP1 SLOAD PUSH1 0xFF NOT AND SWAP1 SSTORE PUSH1 0x40 MLOAD PUSH32 0x54882D18A6359E96E87B8AAEFFE9F2FA9548A1DC5B62F8D0010E5554E6C7771D SWAP1 PUSH1 0x0 SWAP1 LOG1 JUMP JUMPDEST PUSH1 0xA SLOAD PUSH1 0xFF AND PUSH2 0x38E JUMPI PUSH1 0x40 MLOAD PUSH3 0x461BCD PUSH1 0xE5 SHL DUP2 MSTORE PUSH1 0x20 PUSH1 0x4 DUP3 ADD MSTORE PUSH1 0x1D PUSH1 0x24 DUP3 ADD MSTORE PUSH32 0x54726164696E672069732063757272656E746C792064697361626C6564000000 PUSH1 0x44 DUP3 ADD MSTORE PUSH1 0x64 ADD JUMPDEST PUSH1 0x40 MLOAD DUP1 SWAP2 SUB SWAP1 REVERT JUMPDEST PUSH1 0x0 DUP3 GT DUP1 ISZERO PUSH2 0x39F JUMPI POP PUSH1 0x14 DUP3 GT ISZERO JUMPDEST PUSH2 0x3DE JUMPI PUSH1 0x40 MLOAD PUSH3 0x461BCD PUSH1 0xE5 SHL DUP2 MSTORE PUSH1 0x20 PUSH1 0x4 DUP3 ADD MSTORE PUSH1 0x10 PUSH1 0x24 DUP3 ADD MSTORE PUSH16 0x496E76616C6964206C65766572616765 PUSH1 0x80 SHL PUSH1 0x44 DUP3 ADD MSTORE PUSH1 0x64 ADD PUSH2 0x385 JUMP JUMPDEST PUSH1 0x0 DUP4 GT PUSH2 0x42E JUMPI PUSH1 0x40 MLOAD PUSH3 0x461BCD PUSH1 0xE5 SHL DUP2 MSTORE PUSH1 0x20 PUSH1 0x4 DUP3 ADD MSTORE PUSH1 0x1D PUSH1 0x24 DUP3 ADD MSTORE PUSH32 0x4D617267696E206D7573742062652067726561746572207468616E2030000000 PUSH1 0x44 DUP3 ADD MSTORE PUSH1 0x64 ADD PUSH2 0x385 JUMP JUMPDEST CALLER PUSH1 0x0 SWAP1 DUP2 MSTORE PUSH1 0x3 PUSH1 0x20 MSTORE PUSH1 0x40 SWAP1 KECCAK256 SLOAD ISZERO PUSH2 0x48B JUMPI PUSH1 0x40 MLOAD PUSH3 0x461BCD PUSH1 0xE5 SHL DUP2 MSTORE PUSH1 0x20 PUSH1 0x4 DUP3 ADD MSTORE PUSH1 0x17 PUSH1 0x24 DUP3 ADD MSTORE PUSH32 0x506F736974696F6E20616C726561647920657869737473000000000000000000 PUSH1 0x44 DUP3 ADD MSTORE PUSH1 0x64 ADD PUSH2 0x385 JUMP JUMPDEST PUSH1 0x0 DUP1 SLOAD PUSH1 0x40 MLOAD PUSH4 0x524F3889 PUSH1 0xE0 SHL DUP2 MSTORE PUSH1 0x1 PUSH1 0x1 PUSH1 0xA0 SHL SUB SWAP1 SWAP2 AND SWAP1 PUSH4 0x524F3889 SWAP1 PUSH2 0x4BD SWAP1 PUSH1 0x9 SWAP1 PUSH1 0x4 ADD PUSH2 0x1620 JUMP JUMPDEST PUSH1 0x20 PUSH1 0x40 MLOAD DUP1 DUP4 SUB DUP2 DUP7 GAS STATICCALL ISZERO DUP1 ISZERO PUSH2 0x4DA JUMPI RETURNDATASIZE PUSH1 0x0 DUP1 RETURNDATACOPY RETURNDATASIZE PUSH1 0x0 REVERT JUMPDEST POP POP POP POP PUSH1 0x40 MLOAD RETURNDATASIZE PUSH1 0x1F NOT PUSH1 0x1F DUP3 ADD AND DUP3 ADD DUP1 PUSH1 0x40 MSTORE POP DUP2 ADD SWAP1 PUSH2 0x4FE SWAP2 SWAP1 PUSH2 0x16CC JUMP JUMPDEST SWAP1 POP PUSH1 0x0 DUP2 GT PUSH2 0x520 JUMPI PUSH1 0x40 MLOAD PUSH3 0x461BCD PUSH1 0xE5 SHL DUP2 MSTORE PUSH1 0x4 ADD PUSH2 0x385 SWAP1 PUSH2 0x16E5 JUMP JUMPDEST PUSH1 0x0 PUSH2 0x52C DUP5 DUP7 PUSH2 0x1722 JUMP JUMPDEST SWAP1 POP PUSH1 0x0 PUSH8 0xDE0B6B3A7640000 PUSH1 0xB SLOAD DUP4 PUSH2 0x547 SWAP2 SWAP1 PUSH2 0x1722 JUMP JUMPDEST PUSH2 0x551 SWAP2 SWAP1 PUSH2 0x1739 JUMP JUMPDEST PUSH1 0x1 SLOAD PUSH1 0x40 MLOAD PUSH4 0x47A7D107 PUSH1 0xE0 SHL DUP2 MSTORE CALLER PUSH1 0x4 DUP3 ADD MSTORE PUSH1 0x24 DUP2 ADD DUP10 SWAP1 MSTORE SWAP2 SWAP3 POP PUSH1 0x1 PUSH1 0x1 PUSH1 0xA0 SHL SUB AND SWAP1 PUSH4 0x47A7D107 SWAP1 PUSH1 0x44 ADD PUSH1 0x0 PUSH1 0x40 MLOAD DUP1 DUP4 SUB DUP2 PUSH1 0x0 DUP8 DUP1 EXTCODESIZE ISZERO DUP1 ISZERO PUSH2 0x59E JUMPI PUSH1 0x0 DUP1 REVERT JUMPDEST POP GAS CALL ISZERO DUP1 ISZERO PUSH2 0x5B2 JUMPI RETURNDATASIZE PUSH1 0x0 DUP1 RETURNDATACOPY RETURNDATASIZE PUSH1 0x0 REVERT JUMPDEST POP POP POP POP PUSH1 0x0 DUP2 GT ISZERO PUSH2 0x61E JUMPI PUSH1 0x2 SLOAD PUSH1 0x40 MLOAD PUSH4 0xB17ACDCD PUSH1 0xE0 SHL DUP2 MSTORE PUSH1 0x4 DUP2 ADD DUP4 SWAP1 MSTORE PUSH1 0x1 PUSH1 0x1 PUSH1 0xA0 SHL SUB SWAP1 SWAP2 AND SWAP1 PUSH4 0xB17ACDCD SWAP1 PUSH1 0x24 ADD PUSH1 0x0 PUSH1 0x40 MLOAD DUP1 DUP4 SUB DUP2 PUSH1 0x0 DUP8 DUP1 EXTCODESIZE ISZERO DUP1 ISZERO PUSH2 0x605 JUMPI PUSH1 0x0 DUP1 REVERT JUMPDEST POP GAS CALL ISZERO DUP1 ISZERO PUSH2 0x619 JUMPI RETURNDATASIZE PUSH1 0x0 DUP1 RETURNDATACOPY RETURNDATASIZE PUSH1 0x0 REVERT JUMPDEST POP POP POP POP JUMPDEST PUSH1 0x40 DUP1 MLOAD PUSH1 0xA0 DUP2 ADD DUP3 MSTORE DUP4 DUP2 MSTORE PUSH1 0x20 DUP1 DUP3 ADD DUP10 DUP2 MSTORE DUP3 DUP5 ADD DUP8 DUP2 MSTORE DUP9 ISZERO DUP1 ISZERO PUSH1 0x60 DUP7 ADD SWAP1 DUP2 MSTORE TIMESTAMP PUSH1 0x80 DUP8 ADD SWAP1 DUP2 MSTORE CALLER PUSH1 0x0 SWAP1 DUP2 MSTORE PUSH1 0x3 SWAP7 DUP8 SWAP1 MSTORE SWAP8 SWAP1 SWAP8 KECCAK256 SWAP6 MLOAD DUP7 SSTORE SWAP3 MLOAD PUSH1 0x1 DUP7 ADD SSTORE SWAP1 MLOAD PUSH1 0x2 DUP6 ADD SSTORE SWAP1 MLOAD SWAP2 DUP4 ADD DUP1 SLOAD PUSH1 0xFF NOT AND SWAP3 ISZERO ISZERO SWAP3 SWAP1 SWAP3 OR SWAP1 SWAP2 SSTORE SWAP2 MLOAD PUSH1 0x4 SWAP1 SWAP2 ADD SSTORE PUSH2 0x6AC JUMPI DUP2 PUSH1 0x4 PUSH1 0x0 DUP3 DUP3 SLOAD PUSH2 0x6A1 SWAP2 SWAP1 PUSH2 0x175B JUMP JUMPDEST SWAP1 SWAP2 SSTORE POP PUSH2 0x6C4 SWAP1 POP JUMP JUMPDEST DUP2 PUSH1 0x5 PUSH1 0x0 DUP3 DUP3 SLOAD PUSH2 0x6BE SWAP2 SWAP1 PUSH2 0x175B JUMP JUMPDEST SWAP1 SWAP2 SSTORE POP POP JUMPDEST PUSH1 0x0 PUSH1 0x5 SLOAD PUSH1 0x4 SLOAD PUSH2 0x6D6 SWAP2 SWAP1 PUSH2 0x175B JUMP JUMPDEST SWAP1 POP PUSH1 0x0 PUSH1 0x2 PUSH1 0x0 SWAP1 SLOAD SWAP1 PUSH2 0x100 EXP SWAP1 DIV PUSH1 0x1 PUSH1 0x1 PUSH1 0xA0 SHL SUB AND PUSH1 0x1 PUSH1 0x1 PUSH1 0xA0 SHL SUB AND PUSH4 0x15770F92 PUSH1 0x40 MLOAD DUP2 PUSH4 0xFFFFFFFF AND PUSH1 0xE0 SHL DUP2 MSTORE PUSH1 0x4 ADD PUSH1 0x20 PUSH1 0x40 MLOAD DUP1 DUP4 SUB DUP2 DUP7 GAS STATICCALL ISZERO DUP1 ISZERO PUSH2 0x72D JUMPI RETURNDATASIZE PUSH1 0x0 DUP1 RETURNDATACOPY RETURNDATASIZE PUSH1 0x0 REVERT JUMPDEST POP POP POP POP PUSH1 0x40 MLOAD RETURNDATASIZE PUSH1 0x1F NOT PUSH1 0x1F DUP3 ADD AND DUP3 ADD DUP1 PUSH1 0x40 MSTORE POP DUP2 ADD SWAP1 PUSH2 0x751 SWAP2 SWAP1 PUSH2 0x16CC JUMP JUMPDEST PUSH2 0x75C SWAP1 PUSH1 0x2 PUSH2 0x1722 JUMP JUMPDEST PUSH2 0x76E PUSH8 0xDE0B6B3A7640000 DUP5 PUSH2 0x1722 JUMP JUMPDEST PUSH2 0x778 SWAP2 SWAP1 PUSH2 0x1739 JUMP JUMPDEST PUSH1 0x2 SLOAD PUSH1 0x40 MLOAD PUSH4 0x5C0F8F01 PUSH1 0xE0 SHL DUP2 MSTORE PUSH1 0x4 DUP2 ADD DUP4 SWAP1 MSTORE SWAP2 SWAP3 POP PUSH1 0x1 PUSH1 0x1 PUSH1 0xA0 SHL SUB AND SWAP1 PUSH4 0x5C0F8F01 SWAP1 PUSH1 0x24 ADD PUSH1 0x0 PUSH1 0x40 MLOAD DUP1 DUP4 SUB DUP2 PUSH1 0x0 DUP8 DUP1 EXTCODESIZE ISZERO DUP1 ISZERO PUSH2 0x7BF JUMPI PUSH1 0x0 DUP1 REVERT JUMPDEST POP GAS CALL ISZERO DUP1 ISZERO PUSH2 0x7D3 JUMPI RETURNDATASIZE PUSH1 0x0 DUP1 RETURNDATACOPY RETURNDATASIZE PUSH1 0x0 REVERT JUMPDEST POP POP POP POP PUSH2 0x7DF PUSH2 0x1339 JUMP JUMPDEST PUSH1 0x40 DUP1 MLOAD DUP6 DUP2 MSTORE PUSH1 0x20 DUP2 ADD DUP11 SWAP1 MSTORE DUP8 ISZERO ISZERO DUP2 DUP4 ADD MSTORE PUSH1 0x60 DUP2 ADD DUP8 SWAP1 MSTORE SWAP1 MLOAD CALLER SWAP2 PUSH32 0xCD994640F2C49B14FEB3FAFFEEB78367DD4BE7F01B02E885E5C905EF46A535AF SWAP2 SWAP1 DUP2 SWAP1 SUB PUSH1 0x80 ADD SWAP1 LOG2 POP POP POP POP POP POP POP POP JUMP JUMPDEST PUSH1 0x1 PUSH1 0x1 PUSH1 0xA0 SHL SUB DUP2 AND PUSH1 0x0 SWAP1 DUP2 MSTORE PUSH1 0x3 PUSH1 0x20 DUP2 DUP2 MSTORE PUSH1 0x40 SWAP3 DUP4 SWAP1 KECCAK256 DUP4 MLOAD PUSH1 0xA0 DUP2 ADD DUP6 MSTORE DUP2 SLOAD DUP1 DUP3 MSTORE PUSH1 0x1 DUP4 ADD SLOAD SWAP4 DUP3 ADD SWAP4 SWAP1 SWAP4 MSTORE PUSH1 0x2 DUP3 ADD SLOAD SWAP5 DUP2 ADD SWAP5 SWAP1 SWAP5 MSTORE SWAP2 DUP3 ADD SLOAD PUSH1 0xFF AND ISZERO ISZERO PUSH1 0x60 DUP5 ADD MSTORE PUSH1 0x4 SWAP1 SWAP2 ADD SLOAD PUSH1 0x80 DUP4 ADD MSTORE PUSH2 0x8CF JUMPI PUSH1 0x40 MLOAD PUSH3 0x461BCD PUSH1 0xE5 SHL DUP2 MSTORE PUSH1 0x20 PUSH1 0x4 DUP3 ADD MSTORE PUSH1 0x12 PUSH1 0x24 DUP3 ADD MSTORE PUSH18 0x4E6F20706F736974696F6E20657869737473 PUSH1 0x70 SHL PUSH1 0x44 DUP3 ADD MSTORE PUSH1 0x64 ADD PUSH2 0x385 JUMP JUMPDEST PUSH1 0x0 DUP1 SLOAD PUSH1 0x40 MLOAD PUSH4 0x524F3889 PUSH1 0xE0 SHL DUP2 MSTORE PUSH1 0x1 PUSH1 0x1 PUSH1 0xA0 SHL SUB SWAP1 SWAP2 AND SWAP1 PUSH4 0x524F3889 SWAP1 PUSH2 0x901 SWAP1 PUSH1 0x9 SWAP1 PUSH1 0x4 ADD PUSH2 0x1620 JUMP JUMPDEST PUSH1 0x20 PUSH1 0x40 MLOAD DUP1 DUP4 SUB DUP2 DUP7 GAS STATICCALL ISZERO DUP1 ISZERO PUSH2 0x91E JUMPI RETURNDATASIZE PUSH1 0x0 DUP1 RETURNDATACOPY RETURNDATASIZE PUSH1 0x0 REVERT JUMPDEST POP POP POP POP PUSH1 0x40 MLOAD RETURNDATASIZE PUSH1 0x1F NOT PUSH1 0x1F DUP3 ADD AND DUP3 ADD DUP1 PUSH1 0x40 MSTORE POP DUP2 ADD SWAP1 PUSH2 0x942 SWAP2 SWAP1 PUSH2 0x16CC JUMP JUMPDEST SWAP1 POP PUSH1 0x0 DUP2 GT PUSH2 0x964 JUMPI PUSH1 0x40 MLOAD PUSH3 0x461BCD PUSH1 0xE5 SHL DUP2 MSTORE PUSH1 0x4 ADD PUSH2 0x385 SWAP1 PUSH2 0x16E5 JUMP JUMPDEST PUSH1 0x0 PUSH2 0x970 DUP4 DUP4 PUSH2 0x1359 JUMP JUMPDEST SWAP1 POP PUSH1 0x0 DUP1 DUP3 SLT PUSH2 0x985 JUMPI DUP4 PUSH1 0x20 ADD MLOAD PUSH2 0x9B7 JUMP JUMPDEST PUSH2 0x98E DUP3 PUSH2 0x176E JUMP JUMPDEST DUP5 PUSH1 0x20 ADD MLOAD GT PUSH2 0x99F JUMPI PUSH1 0x0 PUSH2 0x9B7 JUMP JUMPDEST PUSH2 0x9A8 DUP3 PUSH2 0x176E JUMP JUMPDEST DUP5 PUSH1 0x20 ADD MLOAD PUSH2 0x9B7 SWAP2 SWAP1 PUSH2 0x178A JUMP JUMPDEST DUP5 MLOAD SWAP1 SWAP2 POP PUSH1 0x0 SWAP1 PUSH2 0x9CA DUP4 PUSH1 0x64 PUSH2 0x1722 JUMP JUMPDEST PUSH2 0x9D4 SWAP2 SWAP1 PUSH2 0x1739 JUMP JUMPDEST SWAP1 POP PUSH1 0x50 DUP2 LT PUSH2 0xA26 JUMPI PUSH1 0x40 MLOAD PUSH3 0x461BCD PUSH1 0xE5 SHL DUP2 MSTORE PUSH1 0x20 PUSH1 0x4 DUP3 ADD MSTORE PUSH1 0x19 PUSH1 0x24 DUP3 ADD MSTORE PUSH32 0x506F736974696F6E206E6F74206C6971756964617461626C6500000000000000 PUSH1 0x44 DUP3 ADD MSTORE PUSH1 0x64 ADD PUSH2 0x385 JUMP JUMPDEST DUP5 PUSH1 0x60 ADD MLOAD ISZERO PUSH2 0xA4F JUMPI DUP5 MLOAD PUSH1 0x4 DUP1 SLOAD PUSH1 0x0 SWAP1 PUSH2 0xA44 SWAP1 DUP5 SWAP1 PUSH2 0x178A JUMP JUMPDEST SWAP1 SWAP2 SSTORE POP PUSH2 0xA69 SWAP1 POP JUMP JUMPDEST DUP5 MLOAD PUSH1 0x5 DUP1 SLOAD PUSH1 0x0 SWAP1 PUSH2 0xA63 SWAP1 DUP5 SWAP1 PUSH2 0x178A JUMP JUMPDEST SWAP1 SWAP2 SSTORE POP POP JUMPDEST DUP5 MLOAD PUSH1 0x0 SWAP1 PUSH2 0xA7A SWAP1 PUSH1 0x64 SWAP1 PUSH2 0x1739 JUMP JUMPDEST SWAP1 POP PUSH1 0x0 DUP1 DUP6 SLT DUP1 ISZERO PUSH2 0xA98 JUMPI POP PUSH1 0x20 DUP8 ADD MLOAD PUSH2 0xA96 DUP7 PUSH2 0x176E JUMP JUMPDEST GT JUMPDEST PUSH2 0xAA3 JUMPI PUSH1 0x0 PUSH2 0xABB JUMP JUMPDEST PUSH1 0x20 DUP8 ADD MLOAD PUSH2 0xAB1 DUP7 PUSH2 0x176E JUMP JUMPDEST PUSH2 0xABB SWAP2 SWAP1 PUSH2 0x178A JUMP JUMPDEST SWAP1 POP DUP1 ISZERO PUSH2 0xB34 JUMPI PUSH1 0x2 SLOAD PUSH1 0x40 MLOAD PUSH4 0xA50E6FC9 PUSH1 0xE0 SHL DUP2 MSTORE PUSH1 0x4 DUP2 ADD DUP4 SWAP1 MSTORE PUSH1 0x1 PUSH1 0x1 PUSH1 0xA0 SHL SUB SWAP1 SWAP2 AND SWAP1 PUSH4 0xA50E6FC9 SWAP1 PUSH1 0x24 ADD PUSH1 0x20 PUSH1 0x40 MLOAD DUP1 DUP4 SUB DUP2 PUSH1 0x0 DUP8 GAS CALL ISZERO DUP1 ISZERO PUSH2 0xB0E JUMPI RETURNDATASIZE PUSH1 0x0 DUP1 RETURNDATACOPY RETURNDATASIZE PUSH1 0x0 REVERT JUMPDEST POP POP POP POP PUSH1 0x40 MLOAD RETURNDATASIZE PUSH1 0x1F NOT PUSH1 0x1F DUP3 ADD AND DUP3 ADD DUP1 PUSH1 0x40 MSTORE POP DUP2 ADD SWAP1 PUSH2 0xB32 SWAP2 SWAP1 PUSH2 0x179D JUMP JUMPDEST POP JUMPDEST DUP2 ISZERO PUSH2 0xB9F JUMPI PUSH1 0x1 SLOAD PUSH1 0x40 MLOAD PUSH4 0x5EB79629 PUSH1 0xE1 SHL DUP2 MSTORE CALLER PUSH1 0x4 DUP3 ADD MSTORE PUSH1 0x24 DUP2 ADD DUP5 SWAP1 MSTORE PUSH1 0x1 PUSH1 0x1 PUSH1 0xA0 SHL SUB SWAP1 SWAP2 AND SWAP1 PUSH4 0xBD6F2C52 SWAP1 PUSH1 0x44 ADD PUSH1 0x0 PUSH1 0x40 MLOAD DUP1 DUP4 SUB DUP2 PUSH1 0x0 DUP8 DUP1 EXTCODESIZE ISZERO DUP1 ISZERO PUSH2 0xB86 JUMPI PUSH1 0x0 DUP1 REVERT JUMPDEST POP GAS CALL ISZERO DUP1 ISZERO PUSH2 0xB9A JUMPI RETURNDATASIZE PUSH1 0x0 DUP1 RETURNDATACOPY RETURNDATASIZE PUSH1 0x0 REVERT JUMPDEST POP POP POP POP JUMPDEST PUSH1 0x0 PUSH1 0x5 SLOAD PUSH1 0x4 SLOAD PUSH2 0xBB1 SWAP2 SWAP1 PUSH2 0x175B JUMP JUMPDEST SWAP1 POP PUSH1 0x0 DUP1 DUP3 GT PUSH2 0xBC3 JUMPI PUSH1 0x0 PUSH2 0xC61 JUMP JUMPDEST PUSH1 0x2 PUSH1 0x0 SWAP1 SLOAD SWAP1 PUSH2 0x100 EXP SWAP1 DIV PUSH1 0x1 PUSH1 0x1 PUSH1 0xA0 SHL SUB AND PUSH1 0x1 PUSH1 0x1 PUSH1 0xA0 SHL SUB AND PUSH4 0x15770F92 PUSH1 0x40 MLOAD DUP2 PUSH4 0xFFFFFFFF AND PUSH1 0xE0 SHL DUP2 MSTORE PUSH1 0x4 ADD PUSH1 0x20 PUSH1 0x40 MLOAD DUP1 DUP4 SUB DUP2 DUP7 GAS STATICCALL ISZERO DUP1 ISZERO PUSH2 0xC16 JUMPI RETURNDATASIZE PUSH1 0x0 DUP1 RETURNDATACOPY RETURNDATASIZE PUSH1 0x0 REVERT JUMPDEST POP POP POP POP PUSH1 0x40 MLOAD RETURNDATASIZE PUSH1 0x1F NOT PUSH1 0x1F DUP3 ADD AND DUP3 ADD DUP1 PUSH1 0x40 MSTORE POP DUP2 ADD SWAP1 PUSH2 0xC3A SWAP2 SWAP1 PUSH2 0x16CC JUMP JUMPDEST PUSH2 0xC45 SWAP1 PUSH1 0x2 PUSH2 0x1722 JUMP JUMPDEST PUSH2 0xC57 PUSH8 0xDE0B6B3A7640000 DUP5 PUSH2 0x1722 JUMP JUMPDEST PUSH2 0xC61 SWAP2 SWAP1 PUSH2 0x1739 JUMP JUMPDEST PUSH1 0x2 SLOAD PUSH1 0x40 MLOAD PUSH4 0x5C0F8F01 PUSH1 0xE0 SHL DUP2 MSTORE PUSH1 0x4 DUP2 ADD DUP4 SWAP1 MSTORE SWAP2 SWAP3 POP PUSH1 0x1 PUSH1 0x1 PUSH1 0xA0 SHL SUB AND SWAP1 PUSH4 0x5C0F8F01 SWAP1 PUSH1 0x24 ADD PUSH1 0x0 PUSH1 0x40 MLOAD DUP1 DUP4 SUB DUP2 PUSH1 0x0 DUP8 DUP1 EXTCODESIZE ISZERO DUP1 ISZERO PUSH2 0xCA8 JUMPI PUSH1 0x0 DUP1 REVERT JUMPDEST POP GAS CALL ISZERO DUP1 ISZERO PUSH2 0xCBC JUMPI RETURNDATASIZE PUSH1 0x0 DUP1 RETURNDATACOPY RETURNDATASIZE PUSH1 0x0 REVERT JUMPDEST POP POP POP POP DUP10 PUSH1 0x1 PUSH1 0x1 PUSH1 0xA0 SHL SUB AND PUSH32 0xD53D819123736D03ECF50A5157BDB1EB07EEC9394E022F7E466550828B4B77A2 DUP11 PUSH1 0x0 ADD MLOAD DUP12 PUSH1 0x20 ADD MLOAD DUP13 PUSH1 0x60 ADD MLOAD DUP13 PUSH1 0x40 MLOAD PUSH2 0xD23 SWAP5 SWAP4 SWAP3 SWAP2 SWAP1 SWAP4 DUP5 MSTORE PUSH1 0x20 DUP5 ADD SWAP3 SWAP1 SWAP3 MSTORE ISZERO ISZERO PUSH1 0x40 DUP4 ADD MSTORE PUSH1 0x60 DUP3 ADD MSTORE PUSH1 0x80 ADD SWAP1 JUMP JUMPDEST PUSH1 0x40 MLOAD DUP1 SWAP2 SUB SWAP1 LOG2 POP POP POP PUSH1 0x1 PUSH1 0x1 PUSH1 0xA0 SHL SUB SWAP1 SWAP7 AND PUSH1 0x0 SWAP1 DUP2 MSTORE PUSH1 0x3 PUSH1 0x20 DUP2 SWAP1 MSTORE PUSH1 0x40 DUP3 KECCAK256 DUP3 DUP2 SSTORE PUSH1 0x1 DUP2 ADD DUP4 SWAP1 SSTORE PUSH1 0x2 DUP2 ADD DUP4 SWAP1 SSTORE SWAP1 DUP2 ADD DUP1 SLOAD PUSH1 0xFF NOT AND SWAP1 SSTORE PUSH1 0x4 ADD SSTORE POP POP POP POP POP POP JUMP JUMPDEST CALLER PUSH1 0x0 SWAP1 DUP2 MSTORE PUSH1 0x3 PUSH1 0x20 MSTORE PUSH1 0x40 SWAP1 KECCAK256 SLOAD PUSH2 0xDC2 JUMPI PUSH1 0x40 MLOAD PUSH3 0x461BCD PUSH1 0xE5 SHL DUP2 MSTORE PUSH1 0x20 PUSH1 0x4 DUP3 ADD MSTORE PUSH1 0x12 PUSH1 0x24 DUP3 ADD MSTORE PUSH18 0x4E6F20706F736974696F6E20657869737473 PUSH1 0x70 SHL PUSH1 0x44 DUP3 ADD MSTORE PUSH1 0x64 ADD PUSH2 0x385 JUMP JUMPDEST CALLER PUSH1 0x0 SWAP1 DUP2 MSTORE PUSH1 0x3 PUSH1 0x20 DUP2 DUP2 MSTORE PUSH1 0x40 DUP1 DUP5 KECCAK256 DUP2 MLOAD PUSH1 0xA0 DUP2 ADD DUP4 MSTORE DUP2 SLOAD DUP2 MSTORE PUSH1 0x1 DUP3 ADD SLOAD SWAP4 DUP2 ADD SWAP4 SWAP1 SWAP4 MSTORE PUSH1 0x2 DUP2 ADD SLOAD DUP4 DUP4 ADD MSTORE SWAP3 DUP4 ADD SLOAD PUSH1 0xFF AND ISZERO ISZERO PUSH1 0x60 DUP4 ADD MSTORE PUSH1 0x4 SWAP3 DUP4 ADD SLOAD PUSH1 0x80 DUP4 ADD MSTORE DUP4 SLOAD SWAP1 MLOAD PUSH4 0x524F3889 PUSH1 0xE0 SHL DUP2 MSTORE SWAP2 SWAP4 SWAP3 PUSH1 0x1 PUSH1 0x1 PUSH1 0xA0 SHL SUB SWAP1 SWAP2 AND SWAP2 PUSH4 0x524F3889 SWAP2 PUSH2 0xE3E SWAP2 PUSH1 0x9 SWAP2 ADD PUSH2 0x1620 JUMP JUMPDEST PUSH1 0x20 PUSH1 0x40 MLOAD DUP1 DUP4 SUB DUP2 DUP7 GAS STATICCALL ISZERO DUP1 ISZERO PUSH2 0xE5B JUMPI RETURNDATASIZE PUSH1 0x0 DUP1 RETURNDATACOPY RETURNDATASIZE PUSH1 0x0 REVERT JUMPDEST POP POP POP POP PUSH1 0x40 MLOAD RETURNDATASIZE PUSH1 0x1F NOT PUSH1 0x1F DUP3 ADD AND DUP3 ADD DUP1 PUSH1 0x40 MSTORE POP DUP2 ADD SWAP1 PUSH2 0xE7F SWAP2 SWAP1 PUSH2 0x16CC JUMP JUMPDEST SWAP1 POP PUSH1 0x0 DUP2 GT PUSH2 0xEA1 JUMPI PUSH1 0x40 MLOAD PUSH3 0x461BCD PUSH1 0xE5 SHL DUP2 MSTORE PUSH1 0x4 ADD PUSH2 0x385 SWAP1 PUSH2 0x16E5 JUMP JUMPDEST PUSH1 0x0 PUSH2 0xEAD DUP4 DUP4 PUSH2 0x1359 JUMP JUMPDEST SWAP1 POP PUSH2 0xEB7 PUSH2 0x1339 JUMP JUMPDEST DUP3 PUSH1 0x60 ADD MLOAD ISZERO PUSH2 0xEE0 JUMPI DUP3 MLOAD PUSH1 0x4 DUP1 SLOAD PUSH1 0x0 SWAP1 PUSH2 0xED5 SWAP1 DUP5 SWAP1 PUSH2 0x178A JUMP JUMPDEST SWAP1 SWAP2 SSTORE POP PUSH2 0xEFA SWAP1 POP JUMP JUMPDEST DUP3 MLOAD PUSH1 0x5 DUP1 SLOAD PUSH1 0x0 SWAP1 PUSH2 0xEF4 SWAP1 DUP5 SWAP1 PUSH2 0x178A JUMP JUMPDEST SWAP1 SWAP2 SSTORE POP POP JUMPDEST PUSH1 0x0 PUSH8 0xDE0B6B3A7640000 PUSH1 0xB SLOAD DUP6 PUSH1 0x0 ADD MLOAD PUSH2 0xF17 SWAP2 SWAP1 PUSH2 0x1722 JUMP JUMPDEST PUSH2 0xF21 SWAP2 SWAP1 PUSH2 0x1739 JUMP JUMPDEST SWAP1 POP DUP1 ISZERO PUSH2 0xF88 JUMPI PUSH1 0x2 SLOAD PUSH1 0x40 MLOAD PUSH4 0xB17ACDCD PUSH1 0xE0 SHL DUP2 MSTORE PUSH1 0x4 DUP2 ADD DUP4 SWAP1 MSTORE PUSH1 0x1 PUSH1 0x1 PUSH1 0xA0 SHL SUB SWAP1 SWAP2 AND SWAP1 PUSH4 0xB17ACDCD SWAP1 PUSH1 0x24 ADD PUSH1 0x0 PUSH1 0x40 MLOAD DUP1 DUP4 SUB DUP2 PUSH1 0x0 DUP8 DUP1 EXTCODESIZE ISZERO DUP1 ISZERO PUSH2 0xF6F JUMPI PUSH1 0x0 DUP1 REVERT JUMPDEST POP GAS CALL ISZERO DUP1 ISZERO PUSH2 0xF83 JUMPI RETURNDATASIZE PUSH1 0x0 DUP1 RETURNDATACOPY RETURNDATASIZE PUSH1 0x0 REVERT JUMPDEST POP POP POP POP JUMPDEST PUSH1 0x0 DUP3 SLT PUSH2 0x102D JUMPI PUSH1 0x0 DUP3 DUP6 PUSH1 0x20 ADD MLOAD PUSH2 0xFA2 SWAP2 SWAP1 PUSH2 0x175B JUMP JUMPDEST SWAP1 POP DUP2 DUP2 GT ISZERO PUSH2 0x1027 JUMPI PUSH1 0x1 SLOAD PUSH1 0x1 PUSH1 0x1 PUSH1 0xA0 SHL SUB AND PUSH4 0xBD6F2C52 CALLER PUSH2 0xFC8 DUP6 DUP6 PUSH2 0x178A JUMP JUMPDEST PUSH1 0x40 MLOAD PUSH1 0x1 PUSH1 0x1 PUSH1 0xE0 SHL SUB NOT PUSH1 0xE0 DUP6 SWAP1 SHL AND DUP2 MSTORE PUSH1 0x1 PUSH1 0x1 PUSH1 0xA0 SHL SUB SWAP1 SWAP3 AND PUSH1 0x4 DUP4 ADD MSTORE PUSH1 0x24 DUP3 ADD MSTORE PUSH1 0x44 ADD PUSH1 0x0 PUSH1 0x40 MLOAD DUP1 DUP4 SUB DUP2 PUSH1 0x0 DUP8 DUP1 EXTCODESIZE ISZERO DUP1 ISZERO PUSH2 0x100E JUMPI PUSH1 0x0 DUP1 REVERT JUMPDEST POP GAS CALL ISZERO DUP1 ISZERO PUSH2 0x1022 JUMPI RETURNDATASIZE PUSH1 0x0 DUP1 RETURNDATACOPY RETURNDATASIZE PUSH1 0x0 REVERT JUMPDEST POP POP POP POP JUMPDEST POP PUSH2 0x10E8 JUMP JUMPDEST PUSH1 0x0 PUSH2 0x1038 DUP4 PUSH2 0x176E JUMP JUMPDEST DUP6 PUSH1 0x20 ADD MLOAD GT PUSH2 0x1049 JUMPI PUSH1 0x0 PUSH2 0x1061 JUMP JUMPDEST PUSH2 0x1052 DUP4 PUSH2 0x176E JUMP JUMPDEST DUP6 PUSH1 0x20 ADD MLOAD PUSH2 0x1061 SWAP2 SWAP1 PUSH2 0x178A JUMP JUMPDEST SWAP1 POP DUP2 DUP2 GT ISZERO PUSH2 0x10E6 JUMPI PUSH1 0x1 SLOAD PUSH1 0x1 PUSH1 0x1 PUSH1 0xA0 SHL SUB AND PUSH4 0xBD6F2C52 CALLER PUSH2 0x1087 DUP6 DUP6 PUSH2 0x178A JUMP JUMPDEST PUSH1 0x40 MLOAD PUSH1 0x1 PUSH1 0x1 PUSH1 0xE0 SHL SUB NOT PUSH1 0xE0 DUP6 SWAP1 SHL AND DUP2 MSTORE PUSH1 0x1 PUSH1 0x1 PUSH1 0xA0 SHL SUB SWAP1 SWAP3 AND PUSH1 0x4 DUP4 ADD MSTORE PUSH1 0x24 DUP3 ADD MSTORE PUSH1 0x44 ADD PUSH1 0x0 PUSH1 0x40 MLOAD DUP1 DUP4 SUB DUP2 PUSH1 0x0 DUP8 DUP1 EXTCODESIZE ISZERO DUP1 ISZERO PUSH2 0x10CD JUMPI PUSH1 0x0 DUP1 REVERT JUMPDEST POP GAS CALL ISZERO DUP1 ISZERO PUSH2 0x10E1 JUMPI RETURNDATASIZE PUSH1 0x0 DUP1 RETURNDATACOPY RETURNDATASIZE PUSH1 0x0 REVERT JUMPDEST POP POP POP POP JUMPDEST POP JUMPDEST PUSH1 0x0 PUSH1 0x5 SLOAD PUSH1 0x4 SLOAD PUSH2 0x10FA SWAP2 SWAP1 PUSH2 0x175B JUMP JUMPDEST SWAP1 POP PUSH1 0x0 DUP1 DUP3 GT PUSH2 0x110C JUMPI PUSH1 0x0 PUSH2 0x11AA JUMP JUMPDEST PUSH1 0x2 PUSH1 0x0 SWAP1 SLOAD SWAP1 PUSH2 0x100 EXP SWAP1 DIV PUSH1 0x1 PUSH1 0x1 PUSH1 0xA0 SHL SUB AND PUSH1 0x1 PUSH1 0x1 PUSH1 0xA0 SHL SUB AND PUSH4 0x15770F92 PUSH1 0x40 MLOAD DUP2 PUSH4 0xFFFFFFFF AND PUSH1 0xE0 SHL DUP2 MSTORE PUSH1 0x4 ADD PUSH1 0x20 PUSH1 0x40 MLOAD DUP1 DUP4 SUB DUP2 DUP7 GAS STATICCALL ISZERO DUP1 ISZERO PUSH2 0x115F JUMPI RETURNDATASIZE PUSH1 0x0 DUP1 RETURNDATACOPY RETURNDATASIZE PUSH1 0x0 REVERT JUMPDEST POP POP POP POP PUSH1 0x40 MLOAD RETURNDATASIZE PUSH1 0x1F NOT PUSH1 0x1F DUP3 ADD AND DUP3 ADD DUP1 PUSH1 0x40 MSTORE POP DUP2 ADD SWAP1 PUSH2 0x1183 SWAP2 SWAP1 PUSH2 0x16CC JUMP JUMPDEST PUSH2 0x118E SWAP1 PUSH1 0x2 PUSH2 0x1722 JUMP JUMPDEST PUSH2 0x11A0 PUSH8 0xDE0B6B3A7640000 DUP5 PUSH2 0x1722 JUMP JUMPDEST PUSH2 0x11AA SWAP2 SWAP1 PUSH2 0x1739 JUMP JUMPDEST PUSH1 0x2 SLOAD PUSH1 0x40 MLOAD PUSH4 0x5C0F8F01 PUSH1 0xE0 SHL DUP2 MSTORE PUSH1 0x4 DUP2 ADD DUP4 SWAP1 MSTORE SWAP2 SWAP3 POP PUSH1 0x1 PUSH1 0x1 PUSH1 0xA0 SHL SUB AND SWAP1 PUSH4 0x5C0F8F01 SWAP1 PUSH1 0x24 ADD PUSH1 0x0 PUSH1 0x40 MLOAD DUP1 DUP4 SUB DUP2 PUSH1 0x0 DUP8 DUP1 EXTCODESIZE ISZERO DUP1 ISZERO PUSH2 0x11F1 JUMPI PUSH1 0x0 DUP1 REVERT JUMPDEST POP GAS CALL ISZERO DUP1 ISZERO PUSH2 0x1205 JUMPI RETURNDATASIZE PUSH1 0x0 DUP1 RETURNDATACOPY RETURNDATASIZE PUSH1 0x0 REVERT JUMPDEST POP POP DUP8 MLOAD PUSH1 0x20 DUP10 ADD MLOAD PUSH1 0x60 DUP11 ADD MLOAD PUSH1 0x40 MLOAD CALLER SWAP6 POP PUSH32 0xCAB106AE09BD9CBCA858CE88089ABDA79F874F5E57BBC3F3AFF1FACD8ACBFB01 SWAP5 POP PUSH2 0x126A SWAP4 SWAP3 SWAP2 SWAP1 DUP12 SWAP1 DUP12 SWAP1 SWAP5 DUP6 MSTORE PUSH1 0x20 DUP6 ADD SWAP4 SWAP1 SWAP4 MSTORE SWAP1 ISZERO ISZERO PUSH1 0x40 DUP5 ADD MSTORE PUSH1 0x60 DUP4 ADD MSTORE PUSH1 0x80 DUP3 ADD MSTORE PUSH1 0xA0 ADD SWAP1 JUMP JUMPDEST PUSH1 0x40 MLOAD DUP1 SWAP2 SUB SWAP1 LOG2 POP POP CALLER PUSH1 0x0 SWAP1 DUP2 MSTORE PUSH1 0x3 PUSH1 0x20 DUP2 SWAP1 MSTORE PUSH1 0x40 DUP3 KECCAK256 DUP3 DUP2 SSTORE PUSH1 0x1 DUP2 ADD DUP4 SWAP1 SSTORE PUSH1 0x2 DUP2 ADD DUP4 SWAP1 SSTORE SWAP1 DUP2 ADD DUP1 SLOAD PUSH1 0xFF NOT AND SWAP1 SSTORE PUSH1 0x4 ADD SSTORE POP POP POP POP JUMP JUMPDEST PUSH1 0x9 DUP1 SLOAD PUSH2 0x12B8 SWAP1 PUSH2 0x15E6 JUMP JUMPDEST DUP1 PUSH1 0x1F ADD PUSH1 0x20 DUP1 SWAP2 DIV MUL PUSH1 0x20 ADD PUSH1 0x40 MLOAD SWAP1 DUP2 ADD PUSH1 0x40 MSTORE DUP1 SWAP3 SWAP2 SWAP1 DUP2 DUP2 MSTORE PUSH1 0x20 ADD DUP3 DUP1 SLOAD PUSH2 0x12E4 SWAP1 PUSH2 0x15E6 JUMP JUMPDEST DUP1 ISZERO PUSH2 0x1331 JUMPI DUP1 PUSH1 0x1F LT PUSH2 0x1306 JUMPI PUSH2 0x100 DUP1 DUP4 SLOAD DIV MUL DUP4 MSTORE SWAP2 PUSH1 0x20 ADD SWAP2 PUSH2 0x1331 JUMP JUMPDEST DUP3 ADD SWAP2 SWAP1 PUSH1 0x0 MSTORE PUSH1 0x20 PUSH1 0x0 KECCAK256 SWAP1 JUMPDEST DUP2 SLOAD DUP2 MSTORE SWAP1 PUSH1 0x1 ADD SWAP1 PUSH1 0x20 ADD DUP1 DUP4 GT PUSH2 0x1314 JUMPI DUP3 SWAP1 SUB PUSH1 0x1F AND DUP3 ADD SWAP2 JUMPDEST POP POP POP POP POP DUP2 JUMP JUMPDEST PUSH1 0x8 SLOAD PUSH1 0x7 SLOAD PUSH2 0x1349 SWAP2 SWAP1 PUSH2 0x175B JUMP JUMPDEST TIMESTAMP LT PUSH2 0x1357 JUMPI PUSH2 0x1357 PUSH2 0x13FF JUMP JUMPDEST JUMP JUMPDEST PUSH1 0x0 DUP3 PUSH1 0x60 ADD MLOAD ISZERO PUSH2 0x13CB JUMPI DUP3 PUSH1 0x40 ADD MLOAD DUP3 GT ISZERO PUSH2 0x139D JUMPI PUSH1 0x40 DUP4 ADD MLOAD DUP4 MLOAD PUSH2 0x1382 DUP3 DUP6 PUSH2 0x178A JUMP JUMPDEST PUSH2 0x138C SWAP2 SWAP1 PUSH2 0x1722 JUMP JUMPDEST PUSH2 0x1396 SWAP2 SWAP1 PUSH2 0x1739 JUMP JUMPDEST SWAP1 POP PUSH2 0x13F9 JUMP JUMPDEST PUSH1 0x40 DUP4 ADD MLOAD DUP4 MLOAD PUSH2 0x13AE DUP5 DUP4 PUSH2 0x178A JUMP JUMPDEST PUSH2 0x13B8 SWAP2 SWAP1 PUSH2 0x1722 JUMP JUMPDEST PUSH2 0x13C2 SWAP2 SWAP1 PUSH2 0x1739 JUMP JUMPDEST PUSH2 0x1396 SWAP1 PUSH2 0x176E JUMP JUMPDEST DUP2 DUP4 PUSH1 0x40 ADD MLOAD GT ISZERO PUSH2 0x13E8 JUMPI PUSH1 0x40 DUP4 ADD MLOAD DUP4 MLOAD PUSH2 0x1382 DUP5 DUP4 PUSH2 0x178A JUMP JUMPDEST PUSH1 0x40 DUP4 ADD MLOAD DUP4 MLOAD PUSH2 0x13AE DUP3 DUP6 PUSH2 0x178A JUMP JUMPDEST SWAP3 SWAP2 POP POP JUMP JUMPDEST PUSH1 0x4 SLOAD ISZERO DUP1 ISZERO PUSH2 0x140F JUMPI POP PUSH1 0x5 SLOAD ISZERO JUMPDEST ISZERO PUSH2 0x141E JUMPI PUSH1 0x0 PUSH1 0x6 SSTORE PUSH2 0x14E2 JUMP JUMPDEST PUSH1 0x0 PUSH1 0x5 SLOAD PUSH1 0x4 SLOAD GT ISZERO PUSH2 0x1470 JUMPI PUSH1 0x5 SLOAD PUSH1 0x4 SLOAD PUSH2 0x143C SWAP2 SWAP1 PUSH2 0x175B JUMP JUMPDEST PUSH8 0xDE0B6B3A7640000 PUSH1 0x5 SLOAD PUSH1 0x4 SLOAD PUSH2 0x1455 SWAP2 SWAP1 PUSH2 0x178A JUMP JUMPDEST PUSH2 0x145F SWAP2 SWAP1 PUSH2 0x1722 JUMP JUMPDEST PUSH2 0x1469 SWAP2 SWAP1 PUSH2 0x1739 JUMP JUMPDEST SWAP1 POP PUSH2 0x14B9 JUMP JUMPDEST PUSH1 0x5 SLOAD PUSH1 0x4 SLOAD PUSH2 0x1480 SWAP2 SWAP1 PUSH2 0x175B JUMP JUMPDEST PUSH8 0xDE0B6B3A7640000 PUSH1 0x4 SLOAD PUSH1 0x5 SLOAD PUSH2 0x1499 SWAP2 SWAP1 PUSH2 0x178A JUMP JUMPDEST PUSH2 0x14A3 SWAP2 SWAP1 PUSH2 0x1722 JUMP JUMPDEST PUSH2 0x14AD SWAP2 SWAP1 PUSH2 0x1739 JUMP JUMPDEST PUSH2 0x14B6 SWAP1 PUSH2 0x176E JUMP JUMPDEST SWAP1 POP JUMPDEST PUSH1 0x64 PUSH1 0x0 DUP3 SGT PUSH2 0x14D1 JUMPI PUSH2 0x14CC DUP3 PUSH2 0x176E JUMP JUMPDEST PUSH2 0x14D3 JUMP JUMPDEST DUP2 JUMPDEST PUSH2 0x14DD SWAP2 SWAP1 PUSH2 0x1739 JUMP JUMPDEST PUSH1 0x6 SSTORE POP JUMPDEST TIMESTAMP PUSH1 0x7 SSTORE PUSH1 0x6 SLOAD PUSH1 0x40 MLOAD SWAP1 DUP2 MSTORE PUSH32 0x54B4F3D4A67CC5DA94AEFDC1F13908A295DC0BA318E23F92E728131ED95D27C5 SWAP1 PUSH1 0x20 ADD PUSH1 0x40 MLOAD DUP1 SWAP2 SUB SWAP1 LOG1 JUMP JUMPDEST DUP1 ISZERO ISZERO DUP2 EQ PUSH2 0x152C JUMPI PUSH1 0x0 DUP1 REVERT JUMPDEST POP JUMP JUMPDEST PUSH1 0x0 DUP1 PUSH1 0x0 PUSH1 0x60 DUP5 DUP7 SUB SLT ISZERO PUSH2 0x1544 JUMPI PUSH1 0x0 DUP1 REVERT JUMPDEST DUP4 CALLDATALOAD SWAP3 POP PUSH1 0x20 DUP5 ADD CALLDATALOAD SWAP2 POP PUSH1 0x40 DUP5 ADD CALLDATALOAD PUSH2 0x155D DUP2 PUSH2 0x151E JUMP JUMPDEST DUP1 SWAP2 POP POP SWAP3 POP SWAP3 POP SWAP3 JUMP JUMPDEST PUSH1 0x0 PUSH1 0x20 DUP3 DUP5 SUB SLT ISZERO PUSH2 0x157A JUMPI PUSH1 0x0 DUP1 REVERT JUMPDEST DUP2 CALLDATALOAD PUSH1 0x1 PUSH1 0x1 PUSH1 0xA0 SHL SUB DUP2 AND DUP2 EQ PUSH2 0x1591 JUMPI PUSH1 0x0 DUP1 REVERT JUMPDEST SWAP4 SWAP3 POP POP POP JUMP JUMPDEST PUSH1 0x0 PUSH1 0x20 DUP1 DUP4 MSTORE DUP4 MLOAD DUP1 DUP3 DUP6 ADD MSTORE PUSH1 0x0 JUMPDEST DUP2 DUP2 LT ISZERO PUSH2 0x15C5 JUMPI DUP6 DUP2 ADD DUP4 ADD MLOAD DUP6 DUP3 ADD PUSH1 0x40 ADD MSTORE DUP3 ADD PUSH2 0x15A9 JUMP JUMPDEST POP PUSH1 0x0 PUSH1 0x40 DUP3 DUP7 ADD ADD MSTORE PUSH1 0x40 PUSH1 0x1F NOT PUSH1 0x1F DUP4 ADD AND DUP6 ADD ADD SWAP3 POP POP POP SWAP3 SWAP2 POP POP JUMP JUMPDEST PUSH1 0x1 DUP2 DUP2 SHR SWAP1 DUP3 AND DUP1 PUSH2 0x15FA JUMPI PUSH1 0x7F DUP3 AND SWAP2 POP JUMPDEST PUSH1 0x20 DUP3 LT DUP2 SUB PUSH2 0x161A JUMPI PUSH4 0x4E487B71 PUSH1 0xE0 SHL PUSH1 0x0 MSTORE PUSH1 0x22 PUSH1 0x4 MSTORE PUSH1 0x24 PUSH1 0x0 REVERT JUMPDEST POP SWAP2 SWAP1 POP JUMP JUMPDEST PUSH1 0x0 PUSH1 0x20 DUP1 DUP4 MSTORE PUSH1 0x0 DUP5 SLOAD DUP2 PUSH1 0x1 DUP3 DUP2 SHR SWAP2 POP DUP1 DUP4 AND DUP1 PUSH2 0x1642 JUMPI PUSH1 0x7F DUP4 AND SWAP3 POP JUMPDEST DUP6 DUP4 LT DUP2 SUB PUSH2 0x165F JUMPI PUSH4 0x4E487B71 PUSH1 0xE0 SHL DUP6 MSTORE PUSH1 0x22 PUSH1 0x4 MSTORE PUSH1 0x24 DUP6 REVERT JUMPDEST DUP8 DUP7 ADD DUP4 DUP2 MSTORE PUSH1 0x20 ADD DUP2 DUP1 ISZERO PUSH2 0x167C JUMPI PUSH1 0x1 DUP2 EQ PUSH2 0x1692 JUMPI PUSH2 0x16BD JUMP JUMPDEST PUSH1 0xFF NOT DUP7 AND DUP3 MSTORE DUP5 ISZERO ISZERO PUSH1 0x5 SHL DUP3 ADD SWAP7 POP PUSH2 0x16BD JUMP JUMPDEST PUSH1 0x0 DUP12 DUP2 MSTORE PUSH1 0x20 SWAP1 KECCAK256 PUSH1 0x0 JUMPDEST DUP7 DUP2 LT ISZERO PUSH2 0x16B7 JUMPI DUP2 SLOAD DUP5 DUP3 ADD MSTORE SWAP1 DUP6 ADD SWAP1 DUP10 ADD PUSH2 0x169E JUMP JUMPDEST DUP4 ADD SWAP8 POP POP JUMPDEST POP SWAP5 SWAP10 SWAP9 POP POP POP POP POP POP POP POP POP JUMP JUMPDEST PUSH1 0x0 PUSH1 0x20 DUP3 DUP5 SUB SLT ISZERO PUSH2 0x16DE JUMPI PUSH1 0x0 DUP1 REVERT JUMPDEST POP MLOAD SWAP2 SWAP1 POP JUMP JUMPDEST PUSH1 0x20 DUP1 DUP3 MSTORE PUSH1 0xD SWAP1 DUP3 ADD MSTORE PUSH13 0x496E76616C6964207072696365 PUSH1 0x98 SHL PUSH1 0x40 DUP3 ADD MSTORE PUSH1 0x60 ADD SWAP1 JUMP JUMPDEST PUSH4 0x4E487B71 PUSH1 0xE0 SHL PUSH1 0x0 MSTORE PUSH1 0x11 PUSH1 0x4 MSTORE PUSH1 0x24 PUSH1 0x0 REVERT JUMPDEST DUP1 DUP3 MUL DUP2 ISZERO DUP3 DUP3 DIV DUP5 EQ OR PUSH2 0x13F9 JUMPI PUSH2 0x13F9 PUSH2 0x170C JUMP JUMPDEST PUSH1 0x0 DUP3 PUSH2 0x1756 JUMPI PUSH4 0x4E487B71 PUSH1 0xE0 SHL PUSH1 0x0 MSTORE PUSH1 0x12 PUSH1 0x4 MSTORE PUSH1 0x24 PUSH1 0x0 REVERT JUMPDEST POP DIV SWAP1 JUMP JUMPDEST DUP1 DUP3 ADD DUP1 DUP3 GT ISZERO PUSH2 0x13F9 JUMPI PUSH2 0x13F9 PUSH2 0x170C JUMP JUMPDEST PUSH1 0x0 PUSH1 0x1 PUSH1 0xFF SHL DUP3 ADD PUSH2 0x1783 JUMPI PUSH2 0x1783 PUSH2 0x170C JUMP JUMPDEST POP PUSH1 0x0 SUB SWAP1 JUMP JUMPDEST DUP2 DUP2 SUB DUP2 DUP2 GT ISZERO PUSH2 0x13F9 JUMPI PUSH2 0x13F9 PUSH2 0x170C JUMP JUMPDEST PUSH1 0x0 PUSH1 0x20 DUP3 DUP5 SUB SLT ISZERO PUSH2 0x17AF JUMPI PUSH1 0x0 DUP1 REVERT JUMPDEST DUP2 MLOAD PUSH2 0x1591 DUP2 PUSH2 0x151E JUMP INVALID LOG2 PUSH5 0x6970667358 0x22 SLT KECCAK256 0xD3 0xC2 0xA5 0xA6 MSTORE 0xA6 MLOAD 0x22 0xAA SUB SWAP2 SIGNEXTEND 0x21 SSTORE 0xC7 0xAB 0xD3 0xA8 DUP3 0x49 0xB4 0x1F 0x5E 0x2A 0xD9 0xEE SAR 0xBB 0xF9 0xE4 0xFC SLT PUSH5 0x736F6C6343 STOP ADDMOD EQ STOP CALLER "},"methodIdentifiers":{"LIQUIDATION_THRESHOLD()":"90a8ae9b","MAX_LEVERAGE()":"9b45ec97","PRECISION()":"aaf5eb68","closePosition()":"c393d0e3","collateralManager()":"23be345c","fundingInterval()":"9849e412","fundingRate()":"41d3c84c","lastFundingTime()":"321d7fa9","liquidatePosition(address)":"7498a0f0","liquidityPool()":"665a11ca","marketSymbol()":"dcdd079d","openInterestLong()":"310a2240","openInterestShort()":"794a9747","openPosition(uint256,uint256,bool)":"1558c966","oracle()":"7dc0d1d0","pauseTrading()":"1031e36e","positions(address)":"55f57510","resumeTrading()":"0694db1e","tradingEnabled()":"4ada218b","tradingFee()":"56f43352"}}}}}