{"contracts/PerpetualMarket.sol":{"PerpetualMarket":{"abi":[{"inputs":[{"internalType":"address","name":"_oracle","type":"address"},{"internalType":"address","name":"_collateralManager","type":"address"},{"internalType":"address","name":"_liquidityPool","type":"address"},{"internalType":"string","name":"_marketSymbol","type":"string"},{"internalType":"uint256","name":"_fundingInterval","type":"uint256"},{"internalType":"uint256","name":"_tradingFee","type":"uint256"}],"stateMutability":"nonpayable","type":"constructor"},{"anonymous":false,"inputs":[{"indexed":false,"internalType":"uint256","name":"newFundingRate","type":"uint256"}],"name":"FundingRateUpdated","type":"event"},{"anonymous":false,"inputs":[],"name":"MarketPaused","type":"event"},{"anonymous":false,"inputs":[],"name":"MarketResumed","type":"event"},{"anonymous":false,"inputs":[{"indexed":true,"internalType":"address","name":"trader","type":"address"},{"indexed":false,"internalType":"uint256","name":"size","type":"uint256"},{"indexed":false,"internalType":"uint256","name":"margin","type":"uint256"},{"indexed":false,"internalType":"bool","name":"isLong","type":"bool"},{"indexed":false,"internalType":"uint256","name":"price","type":"uint256"},{"indexed":false,"internalType":"int256","name":"pnl","type":"int256"}],"name":"PositionClosed","type":"event"},{"anonymous":false,"inputs":[{"indexed":true,"internalType":"address","name":"trader","type":"address"},{"indexed":false,"internalType":"uint256","name":"size","type":"uint256"},{"indexed":false,"internalType":"uint256","name":"margin","type":"uint256"},{"indexed":false,"internalType":"bool","name":"isLong","type":"bool"},{"indexed":false,"internalType":"uint256","name":"price","type":"uint256"}],"name":"PositionLiquidated","type":"event"},{"anonymous":false,"inputs":[{"indexed":true,"internalType":"address","name":"trader","type":"address"},{"indexed":false,"internalType":"uint256","name":"size","type":"uint256"},{"indexed":false,"internalType":"uint256","name":"margin","type":"uint256"},{"indexed":false,"internalType":"bool","name":"isLong","type":"bool"},{"indexed":false,"internalType":"uint256","name":"price","type":"uint256"}],"name":"PositionOpened","type":"event"},{"inputs":[],"name":"LIQUIDATION_THRESHOLD","outputs":[{"internalType":"uint256","name":"","type":"uint256"}],"stateMutability":"view","type":"function"},{"inputs":[],"name":"MAX_LEVERAGE","outputs":[{"internalType":"uint256","name":"","type":"uint256"}],"stateMutability":"view","type":"function"},{"inputs":[],"name":"PRECISION","outputs":[{"internalType":"uint256","name":"","type":"uint256"}],"stateMutability":"view","type":"function"},{"inputs":[],"name":"closePosition","outputs":[],"stateMutability":"nonpayable","type":"function"},{"inputs":[],"name":"collateralManager","outputs":[{"internalType":"contract ICollateralManager","name":"","type":"address"}],"stateMutability":"view","type":"function"},{"inputs":[],"name":"fundingInterval","outputs":[{"internalType":"uint256","name":"","type":"uint256"}],"stateMutability":"view","type":"function"},{"inputs":[],"name":"fundingRate","outputs":[{"internalType":"uint256","name":"","type":"uint256"}],"stateMutability":"view","type":"function"},{"inputs":[],"name":"lastFundingTime","outputs":[{"internalType":"uint256","name":"","type":"uint256"}],"stateMutability":"view","type":"function"},{"inputs":[{"internalType":"address","name":"_trader","type":"address"}],"name":"liquidatePosition","outputs":[],"stateMutability":"nonpayable","type":"function"},{"inputs":[],"name":"liquidityPool","outputs":[{"internalType":"contract ILiquidityPool","name":"","type":"address"}],"stateMutability":"view","type":"function"},{"inputs":[],"name":"marketSymbol","outputs":[{"internalType":"string","name":"","type":"string"}],"stateMutability":"view","type":"function"},{"inputs":[],"name":"openInterestLong","outputs":[{"internalType":"uint256","name":"","type":"uint256"}],"stateMutability":"view","type":"function"},{"inputs":[],"name":"openInterestShort","outputs":[{"internalType":"uint256","name":"","type":"uint256"}],"stateMutability":"view","type":"function"},{"inputs":[{"internalType":"uint256","name":"_margin","type":"uint256"},{"internalType":"uint256","name":"_leverage","type":"uint256"},{"internalType":"bool","name":"_isLong","type":"bool"}],"name":"openPosition","outputs":[],"stateMutability":"nonpayable","type":"function"},{"inputs":[],"name":"oracle","outputs":[{"internalType":"contract IPriceOracle","name":"","type":"address"}],"stateMutability":"view","type":"function"},{"inputs":[],"name":"pauseTrading","outputs":[],"stateMutability":"nonpayable","type":"function"},{"inputs":[{"internalType":"address","name":"","type":"address"}],"name":"positions","outputs":[{"internalType":"uint256","name":"size","type":"uint256"},{"internalType":"uint256","name":"margin","type":"uint256"},{"internalType":"uint256","name":"entryPrice","type":"uint256"},{"internalType":"bool","name":"isLong","type":"bool"},{"internalType":"uint256","name":"lastFundingPayment","type":"uint256"}],"stateMutability":"view","type":"function"},{"inputs":[],"name":"resumeTrading","outputs":[],"stateMutability":"nonpayable","type":"function"},{"inputs":[],"name":"tradingEnabled","outputs":[{"internalType":"bool","name":"","type":"bool"}],"stateMutability":"view","type":"function"},{"inputs":[],"name":"tradingFee","outputs":[{"internalType":"uint256","name":"","type":"uint256"}],"stateMutability":"view","type":"function"}],"evm":{"bytecode":{"linkReferences":{},"object":"60806040523480156200001157600080fd5b5060405162001bb738038062001bb78339810160408190526200003491620000d7565b600080546001600160a01b038089166001600160a01b03199283161790925560018054888416908316179055600280549287169290911691909117905560096200007f848262000285565b50600891909155600b555050426007555050600a805460ff1916600117905562000351565b80516001600160a01b0381168114620000bc57600080fd5b919050565b634e487b7160e01b600052604160045260246000fd5b60008060008060008060c08789031215620000f157600080fd5b620000fc87620000a4565b955060206200010d818901620000a4565b95506200011d60408901620000a4565b60608901519095506001600160401b03808211156200013b57600080fd5b818a0191508a601f8301126200015057600080fd5b815181811115620001655762000165620000c1565b604051601f8201601f19908116603f01168101908382118183101715620001905762000190620000c1565b816040528281528d86848701011115620001a957600080fd5b600093505b82841015620001cd5784840186015181850187015292850192620001ae565b60008684830101528098505050505050506080870151915060a087015190509295509295509295565b600181811c908216806200020b57607f821691505b6020821081036200022c57634e487b7160e01b600052602260045260246000fd5b50919050565b601f8211156200028057600081815260208120601f850160051c810160208610156200025b5750805b601f850160051c820191505b818110156200027c5782815560010162000267565b5050505b505050565b81516001600160401b03811115620002a157620002a1620000c1565b620002b981620002b28454620001f6565b8462000232565b602080601f831160018114620002f15760008415620002d85750858301515b600019600386901b1c1916600185901b1785556200027c565b600085815260208120601f198616915b82811015620003225788860151825594840194600190910190840162000301565b5085821015620003415787850151600019600388901b60f8161c191681555b5050505050600190811b01905550565b61185680620003616000396000f3fe608060405234801561001057600080fd5b506004361061012c5760003560e01c8063665a11ca116100ad5780639849e412116100715780639849e4121461028d5780639b45ec9714610296578063aaf5eb681461029e578063c393d0e3146102ad578063dcdd079d146102b557600080fd5b8063665a11ca146102435780637498a0f014610256578063794a9747146102695780637dc0d1d01461027257806390a8ae9b1461028557600080fd5b8063321d7fa9116100f4578063321d7fa91461019d57806341d3c84c146101a65780634ada218b146101af57806355f57510146101cc57806356f433521461023a57600080fd5b80630694db1e146101315780631031e36e1461013b5780631558c9661461014357806323be345c14610156578063310a224014610186575b600080fd5b6101396102ca565b005b610139610302565b610139610151366004611595565b610337565b600154610169906001600160a01b031681565b6040516001600160a01b0390911681526020015b60405180910390f35b61018f60045481565b60405190815260200161017d565b61018f60075481565b61018f60065481565b600a546101bc9060ff1681565b604051901515815260200161017d565b6102106101da3660046115ce565b60036020819052600091825260409091208054600182015460028301549383015460049093015491939092909160ff9091169085565b6040805195865260208601949094529284019190915215156060830152608082015260a00161017d565b61018f600b5481565b600254610169906001600160a01b031681565b6101396102643660046115ce565b610847565b61018f60055481565b600054610169906001600160a01b031681565b61018f605081565b61018f60085481565b61018f601481565b61018f670de0b6b3a764000081565b610139610dc6565b6102bd611311565b60405161017d91906115fe565b600a805460ff191660011790556040517fd1f57e4ea31dbdc1e20bfa1e1bd3b7165389e65ec7f9c6fc5ba0b1d55e61fcd090600090a1565b600a805460ff191690556040517f54882d18a6359e96e87b8aaeffe9f2fa9548a1dc5b62f8d0010e5554e6c7771d90600090a1565b600a5460ff1661038e5760405162461bcd60e51b815260206004820152601d60248201527f54726164696e672069732063757272656e746c792064697361626c656400000060448201526064015b60405180910390fd5b60008211801561039f575060148211155b6103de5760405162461bcd60e51b815260206004820152601060248201526f496e76616c6964206c6576657261676560801b6044820152606401610385565b6000831161042e5760405162461bcd60e51b815260206004820152601d60248201527f4d617267696e206d7573742062652067726561746572207468616e20300000006044820152606401610385565b336000908152600360205260409020541561048b5760405162461bcd60e51b815260206004820152601760248201527f506f736974696f6e20616c7265616479206578697374730000000000000000006044820152606401610385565b6000805460405163524f388960e01b81526001600160a01b039091169063524f3889906104bd90600990600401611686565b602060405180830381865afa1580156104da573d6000803e3d6000fd5b505050506040513d601f19601f820116820180604052508101906104fe9190611732565b9050600081116105205760405162461bcd60e51b81526004016103859061174b565b600061052c8486611788565b90506000670de0b6b3a7640000600b54836105479190611788565b610551919061179f565b6001546040516347a7d10760e01b8152336004820152602481018990529192506001600160a01b0316906347a7d10790604401600060405180830381600087803b15801561059e57600080fd5b505af11580156105b2573d6000803e3d6000fd5b50505050600081111561061e5760025460405163b17acdcd60e01b8152600481018390526001600160a01b039091169063b17acdcd90602401600060405180830381600087803b15801561060557600080fd5b505af1158015610619573d6000803e3d6000fd5b505050505b6040805160a081018252838152602080820189815282840187815288158015606086019081524260808701908152336000908152600396879052979097209551865592516001860155905160028501559051918301805460ff19169215159290921790915591516004909101556106ac5781600460008282546106a191906117c1565b909155506106c49050565b81600560008282546106be91906117c1565b90915550505b60006005546004546106d691906117c1565b90506000600260009054906101000a90046001600160a01b03166001600160a01b03166315770f926040518163ffffffff1660e01b8152600401602060405180830381865afa15801561072d573d6000803e3d6000fd5b505050506040513d601f19601f820116820180604052508101906107519190611732565b9050600080821161076357600061078a565b61076e826002611788565b610780670de0b6b3a764000085611788565b61078a919061179f565b600254604051635c0f8f0160e01b8152600481018390529192506001600160a01b031690635c0f8f0190602401600060405180830381600087803b1580156107d157600080fd5b505af11580156107e5573d6000803e3d6000fd5b505050506107f161139f565b60408051868152602081018b90528815158183015260608101889052905133917fcd994640f2c49b14feb3faffeeb78367dd4be7f01b02e885e5c905ef46a535af919081900360800190a2505050505050505050565b6001600160a01b038116600090815260036020818152604092839020835160a08101855281548082526001830154938201939093526002820154948101949094529182015460ff161515606084015260049091015460808301526108e25760405162461bcd60e51b81526020600482015260126024820152714e6f20706f736974696f6e2065786973747360701b6044820152606401610385565b6000805460405163524f388960e01b81526001600160a01b039091169063524f38899061091490600990600401611686565b602060405180830381865afa158015610931573d6000803e3d6000fd5b505050506040513d601f19601f820116820180604052508101906109559190611732565b9050600081116109775760405162461bcd60e51b81526004016103859061174b565b600061098383836113bf565b905060008082126109985783602001516109ca565b6109a1826117d4565b8460200151116109b25760006109ca565b6109bb826117d4565b84602001516109ca91906117f0565b84519091506000906109dd836064611788565b6109e7919061179f565b905060508110610a395760405162461bcd60e51b815260206004820152601960248201527f506f736974696f6e206e6f74206c6971756964617461626c65000000000000006044820152606401610385565b846060015115610a6257845160048054600090610a579084906117f0565b90915550610a7c9050565b845160058054600090610a769084906117f0565b90915550505b8451600090610a8d9060649061179f565b90508560200151811115610aa2575060208501515b60008085128015610abe57506020870151610abc866117d4565b115b610ac9576000610ae1565b6020870151610ad7866117d4565b610ae191906117f0565b90508015610b5a5760025460405163a50e6fc960e01b8152600481018390526001600160a01b039091169063a50e6fc9906024016020604051808303816000875af1158015610b34573d6000803e3d6000fd5b505050506040513d601f19601f82011682018060405250810190610b589190611803565b505b602087015182811115610be2576001546001600160a01b031663bd6f2c528a610b8386856117f0565b6040516001600160e01b031960e085901b1681526001600160a01b0390921660048301526024820152604401600060405180830381600087803b158015610bc957600080fd5b505af1158015610bdd573d6000803e3d6000fd5b505050505b6000600554600454610bf491906117c1565b90506000600260009054906101000a90046001600160a01b03166001600160a01b03166315770f926040518163ffffffff1660e01b8152600401602060405180830381865afa158015610c4b573d6000803e3d6000fd5b505050506040513d601f19601f82011682018060405250810190610c6f9190611732565b905060008082118015610c825750600083115b610c8d576000610cb4565b610c98826002611788565b610caa670de0b6b3a764000085611788565b610cb4919061179f565b600254604051635c0f8f0160e01b8152600481018390529192506001600160a01b031690635c0f8f0190602401600060405180830381600087803b158015610cfb57600080fd5b505af1158015610d0f573d6000803e3d6000fd5b505050508b6001600160a01b03167fd53d819123736d03ecf50a5157bdb1eb07eec9394e022f7e466550828b4b77a28c600001518d602001518e606001518e604051610d769493929190938452602084019290925215156040830152606082015260800190565b60405180910390a25050506001600160a01b03909816600090815260036020819052604082208281556001810183905560028101839055908101805460ff19169055600401555050505050505050565b33600090815260036020526040902054610e175760405162461bcd60e51b81526020600482015260126024820152714e6f20706f736974696f6e2065786973747360701b6044820152606401610385565b336000908152600360208181526040808420815160a081018352815481526001820154938101939093526002810154838301529283015460ff161515606083015260049283015460808301528354905163524f388960e01b81529193926001600160a01b039091169163524f388991610e939160099101611686565b602060405180830381865afa158015610eb0573d6000803e3d6000fd5b505050506040513d601f19601f82011682018060405250810190610ed49190611732565b905060008111610ef65760405162461bcd60e51b81526004016103859061174b565b6000610f0283836113bf565b9050610f0c61139f565b826060015115610f3557825160048054600090610f2a9084906117f0565b90915550610f4f9050565b825160058054600090610f499084906117f0565b90915550505b6000670de0b6b3a7640000600b548560000151610f6c9190611788565b610f76919061179f565b90508015610fdd5760025460405163b17acdcd60e01b8152600481018390526001600160a01b039091169063b17acdcd90602401600060405180830381600087803b158015610fc457600080fd5b505af1158015610fd8573d6000803e3d6000fd5b505050505b60008212611082576000828560200151610ff791906117c1565b90508181111561107c576001546001600160a01b031663bd6f2c523361101d85856117f0565b6040516001600160e01b031960e085901b1681526001600160a01b0390921660048301526024820152604401600060405180830381600087803b15801561106357600080fd5b505af1158015611077573d6000803e3d6000fd5b505050505b5061113d565b600061108d836117d4565b85602001511161109e5760006110b6565b6110a7836117d4565b85602001516110b691906117f0565b90508181111561113b576001546001600160a01b031663bd6f2c52336110dc85856117f0565b6040516001600160e01b031960e085901b1681526001600160a01b0390921660048301526024820152604401600060405180830381600087803b15801561112257600080fd5b505af1158015611136573d6000803e3d6000fd5b505050505b505b600060055460045461114f91906117c1565b90506000600260009054906101000a90046001600160a01b03166001600160a01b03166315770f926040518163ffffffff1660e01b8152600401602060405180830381865afa1580156111a6573d6000803e3d6000fd5b505050506040513d601f19601f820116820180604052508101906111ca9190611732565b9050600080821180156111dd5750600083115b6111e857600061120f565b6111f3826002611788565b611205670de0b6b3a764000085611788565b61120f919061179f565b600254604051635c0f8f0160e01b8152600481018390529192506001600160a01b031690635c0f8f0190602401600060405180830381600087803b15801561125657600080fd5b505af115801561126a573d6000803e3d6000fd5b5050885160208a015160608b01516040513395507fcab106ae09bd9cbca858ce88089abda79f874f5e57bbc3f3aff1facd8acbfb0194506112cf939291908c908c90948552602085019390935290151560408401526060830152608082015260a00190565b60405180910390a2505033600090815260036020819052604082208281556001810183905560028101839055908101805460ff19169055600401555050505050565b6009805461131e9061164c565b80601f016020809104026020016040519081016040528092919081815260200182805461134a9061164c565b80156113975780601f1061136c57610100808354040283529160200191611397565b820191906000526020600020905b81548152906001019060200180831161137a57829003601f168201915b505050505081565b6008546007546113af91906117c1565b42106113bd576113bd611465565b565b600082606001511561143157826040015182111561140357604083015183516113e882856117f0565b6113f29190611788565b6113fc919061179f565b905061145f565b6040830151835161141484836117f0565b61141e9190611788565b611428919061179f565b6113fc906117d4565b818360400151111561144e57604083015183516113e884836117f0565b6040830151835161141482856117f0565b92915050565b6004541580156114755750600554155b15611484576000600655611548565b600060055460045411156114d6576005546004546114a291906117c1565b670de0b6b3a76400006005546004546114bb91906117f0565b6114c59190611788565b6114cf919061179f565b905061151f565b6005546004546114e691906117c1565b670de0b6b3a76400006004546005546114ff91906117f0565b6115099190611788565b611513919061179f565b61151c906117d4565b90505b60646000821361153757611532826117d4565b611539565b815b611543919061179f565b600655505b426007556006546040519081527f54b4f3d4a67cc5da94aefdc1f13908a295dc0ba318e23f92e728131ed95d27c59060200160405180910390a1565b801515811461159257600080fd5b50565b6000806000606084860312156115aa57600080fd5b833592506020840135915060408401356115c381611584565b809150509250925092565b6000602082840312156115e057600080fd5b81356001600160a01b03811681146115f757600080fd5b9392505050565b600060208083528351808285015260005b8181101561162b5785810183015185820160400152820161160f565b506000604082860101526040601f19601f8301168501019250505092915050565b600181811c9082168061166057607f821691505b60208210810361168057634e487b7160e01b600052602260045260246000fd5b50919050565b600060208083526000845481600182811c9150808316806116a857607f831692505b85831081036116c557634e487b7160e01b85526022600452602485fd5b8786018381526020018180156116e257600181146116f857611723565b60ff198616825284151560051b82019650611723565b60008b81526020902060005b8681101561171d57815484820152908501908901611704565b83019750505b50949998505050505050505050565b60006020828403121561174457600080fd5b5051919050565b6020808252600d908201526c496e76616c696420707269636560981b604082015260600190565b634e487b7160e01b600052601160045260246000fd5b808202811582820484141761145f5761145f611772565b6000826117bc57634e487b7160e01b600052601260045260246000fd5b500490565b8082018082111561145f5761145f611772565b6000600160ff1b82016117e9576117e9611772565b5060000390565b8181038181111561145f5761145f611772565b60006020828403121561181557600080fd5b81516115f78161158456fea2646970667358221220da43b28659b95415210b9849f4a73150564b3833b7f415a2587980c7f6e340f764736f6c63430008140033","opcodes":"PUSH1 0x80 PUSH1 0x40 MSTORE CALLVALUE DUP1 ISZERO PUSH3 0x11 JUMPI PUSH1 0x0 DUP1 REVERT JUMPDEST POP PUSH1 0x40 MLOAD PUSH3 0x1BB7 CODESIZE SUB DUP1 PUSH3 0x1BB7 DUP4 CODECOPY DUP2 ADD PUSH1 0x40 DUP2 SWAP1 MSTORE PUSH3 0x34 SWAP2 PUSH3 0xD7 JUMP JUMPDEST PUSH1 0x0 DUP1 SLOAD PUSH1 0x1 PUSH1 0x1 PUSH1 0xA0 SHL SUB DUP1 DUP10 AND PUSH1 0x1 PUSH1 0x1 PUSH1 0xA0 SHL SUB NOT SWAP3 DUP4 AND OR SWAP1 SWAP3 SSTORE PUSH1 0x1 DUP1 SLOAD DUP9 DUP5 AND SWAP1 DUP4 AND OR SWAP1 SSTORE PUSH1 0x2 DUP1 SLOAD SWAP3 DUP8 AND SWAP3 SWAP1 SWAP2 AND SWAP2 SWAP1 SWAP2 OR SWAP1 SSTORE PUSH1 0x9 PUSH3 0x7F DUP5 DUP3 PUSH3 0x285 JUMP JUMPDEST POP PUSH1 0x8 SWAP2 SWAP1 SWAP2 SSTORE PUSH1 0xB SSTORE POP POP TIMESTAMP PUSH1 0x7 SSTORE POP POP PUSH1 0xA DUP1 SLOAD PUSH1 0xFF NOT AND PUSH1 0x1 OR SWAP1 SSTORE PUSH3 0x351 JUMP JUMPDEST DUP1 MLOAD PUSH1 0x1 PUSH1 0x1 PUSH1 0xA0 SHL SUB DUP2 AND DUP2 EQ PUSH3 0xBC JUMPI PUSH1 0x0 DUP1 REVERT JUMPDEST SWAP2 SWAP1 POP JUMP JUMPDEST PUSH4 0x4E487B71 PUSH1 0xE0 SHL PUSH1 0x0 MSTORE PUSH1 0x41 PUSH1 0x4 MSTORE PUSH1 0x24 PUSH1 0x0 REVERT JUMPDEST PUSH1 0x0 DUP1 PUSH1 0x0 DUP1 PUSH1 0x0 DUP1 PUSH1 0xC0 DUP8 DUP10 SUB SLT ISZERO PUSH3 0xF1 JUMPI PUSH1 0x0 DUP1 REVERT JUMPDEST PUSH3 0xFC DUP8 PUSH3 0xA4 JUMP JUMPDEST SWAP6 POP PUSH1 0x20 PUSH3 0x10D DUP2 DUP10 ADD PUSH3 0xA4 JUMP JUMPDEST SWAP6 POP PUSH3 0x11D PUSH1 0x40 DUP10 ADD PUSH3 0xA4 JUMP JUMPDEST PUSH1 0x60 DUP10 ADD MLOAD SWAP1 SWAP6 POP PUSH1 0x1 PUSH1 0x1 PUSH1 0x40 SHL SUB DUP1 DUP3 GT ISZERO PUSH3 0x13B JUMPI PUSH1 0x0 DUP1 REVERT JUMPDEST DUP2 DUP11 ADD SWAP2 POP DUP11 PUSH1 0x1F DUP4 ADD SLT PUSH3 0x150 JUMPI PUSH1 0x0 DUP1 REVERT JUMPDEST DUP2 MLOAD DUP2 DUP2 GT ISZERO PUSH3 0x165 JUMPI PUSH3 0x165 PUSH3 0xC1 JUMP JUMPDEST PUSH1 0x40 MLOAD PUSH1 0x1F DUP3 ADD PUSH1 0x1F NOT SWAP1 DUP2 AND PUSH1 0x3F ADD AND DUP2 ADD SWAP1 DUP4 DUP3 GT DUP2 DUP4 LT OR ISZERO PUSH3 0x190 JUMPI PUSH3 0x190 PUSH3 0xC1 JUMP JUMPDEST DUP2 PUSH1 0x40 MSTORE DUP3 DUP2 MSTORE DUP14 DUP7 DUP5 DUP8 ADD ADD GT ISZERO PUSH3 0x1A9 JUMPI PUSH1 0x0 DUP1 REVERT JUMPDEST PUSH1 0x0 SWAP4 POP JUMPDEST DUP3 DUP5 LT ISZERO PUSH3 0x1CD JUMPI DUP5 DUP5 ADD DUP7 ADD MLOAD DUP2 DUP6 ADD DUP8 ADD MSTORE SWAP3 DUP6 ADD SWAP3 PUSH3 0x1AE JUMP JUMPDEST PUSH1 0x0 DUP7 DUP5 DUP4 ADD ADD MSTORE DUP1 SWAP9 POP POP POP POP POP POP POP PUSH1 0x80 DUP8 ADD MLOAD SWAP2 POP PUSH1 0xA0 DUP8 ADD MLOAD SWAP1 POP SWAP3 SWAP6 POP SWAP3 SWAP6 POP SWAP3 SWAP6 JUMP JUMPDEST PUSH1 0x1 DUP2 DUP2 SHR SWAP1 DUP3 AND DUP1 PUSH3 0x20B JUMPI PUSH1 0x7F DUP3 AND SWAP2 POP JUMPDEST PUSH1 0x20 DUP3 LT DUP2 SUB PUSH3 0x22C JUMPI PUSH4 0x4E487B71 PUSH1 0xE0 SHL PUSH1 0x0 MSTORE PUSH1 0x22 PUSH1 0x4 MSTORE PUSH1 0x24 PUSH1 0x0 REVERT JUMPDEST POP SWAP2 SWAP1 POP JUMP JUMPDEST PUSH1 0x1F DUP3 GT ISZERO PUSH3 0x280 JUMPI PUSH1 0x0 DUP2 DUP2 MSTORE PUSH1 0x20 DUP2 KECCAK256 PUSH1 0x1F DUP6 ADD PUSH1 0x5 SHR DUP2 ADD PUSH1 0x20 DUP7 LT ISZERO PUSH3 0x25B JUMPI POP DUP1 JUMPDEST PUSH1 0x1F DUP6 ADD PUSH1 0x5 SHR DUP3 ADD SWAP2 POP JUMPDEST DUP2 DUP2 LT ISZERO PUSH3 0x27C JUMPI DUP3 DUP2 SSTORE PUSH1 0x1 ADD PUSH3 0x267 JUMP JUMPDEST POP POP POP JUMPDEST POP POP POP JUMP JUMPDEST DUP2 MLOAD PUSH1 0x1 PUSH1 0x1 PUSH1 0x40 SHL SUB DUP2 GT ISZERO PUSH3 0x2A1 JUMPI PUSH3 0x2A1 PUSH3 0xC1 JUMP JUMPDEST PUSH3 0x2B9 DUP2 PUSH3 0x2B2 DUP5 SLOAD PUSH3 0x1F6 JUMP JUMPDEST DUP5 PUSH3 0x232 JUMP JUMPDEST PUSH1 0x20 DUP1 PUSH1 0x1F DUP4 GT PUSH1 0x1 DUP2 EQ PUSH3 0x2F1 JUMPI PUSH1 0x0 DUP5 ISZERO PUSH3 0x2D8 JUMPI POP DUP6 DUP4 ADD MLOAD JUMPDEST PUSH1 0x0 NOT PUSH1 0x3 DUP7 SWAP1 SHL SHR NOT AND PUSH1 0x1 DUP6 SWAP1 SHL OR DUP6 SSTORE PUSH3 0x27C JUMP JUMPDEST PUSH1 0x0 DUP6 DUP2 MSTORE PUSH1 0x20 DUP2 KECCAK256 PUSH1 0x1F NOT DUP7 AND SWAP2 JUMPDEST DUP3 DUP2 LT ISZERO PUSH3 0x322 JUMPI DUP9 DUP7 ADD MLOAD DUP3 SSTORE SWAP5 DUP5 ADD SWAP5 PUSH1 0x1 SWAP1 SWAP2 ADD SWAP1 DUP5 ADD PUSH3 0x301 JUMP JUMPDEST POP DUP6 DUP3 LT ISZERO PUSH3 0x341 JUMPI DUP8 DUP6 ADD MLOAD PUSH1 0x0 NOT PUSH1 0x3 DUP9 SWAP1 SHL PUSH1 0xF8 AND SHR NOT AND DUP2 SSTORE JUMPDEST POP POP POP POP POP PUSH1 0x1 SWAP1 DUP2 SHL ADD SWAP1 SSTORE POP JUMP JUMPDEST PUSH2 0x1856 DUP1 PUSH3 0x361 PUSH1 0x0 CODECOPY PUSH1 0x0 RETURN INVALID PUSH1 0x80 PUSH1 0x40 MSTORE CALLVALUE DUP1 ISZERO PUSH2 0x10 JUMPI PUSH1 0x0 DUP1 REVERT JUMPDEST POP PUSH1 0x4 CALLDATASIZE LT PUSH2 0x12C JUMPI PUSH1 0x0 CALLDATALOAD PUSH1 0xE0 SHR DUP1 PUSH4 0x665A11CA GT PUSH2 0xAD JUMPI DUP1 PUSH4 0x9849E412 GT PUSH2 0x71 JUMPI DUP1 PUSH4 0x9849E412 EQ PUSH2 0x28D JUMPI DUP1 PUSH4 0x9B45EC97 EQ PUSH2 0x296 JUMPI DUP1 PUSH4 0xAAF5EB68 EQ PUSH2 0x29E JUMPI DUP1 PUSH4 0xC393D0E3 EQ PUSH2 0x2AD JUMPI DUP1 PUSH4 0xDCDD079D EQ PUSH2 0x2B5 JUMPI PUSH1 0x0 DUP1 REVERT JUMPDEST DUP1 PUSH4 0x665A11CA EQ PUSH2 0x243 JUMPI DUP1 PUSH4 0x7498A0F0 EQ PUSH2 0x256 JUMPI DUP1 PUSH4 0x794A9747 EQ PUSH2 0x269 JUMPI DUP1 PUSH4 0x7DC0D1D0 EQ PUSH2 0x272 JUMPI DUP1 PUSH4 0x90A8AE9B EQ PUSH2 0x285 JUMPI PUSH1 0x0 DUP1 REVERT JUMPDEST DUP1 PUSH4 0x321D7FA9 GT PUSH2 0xF4 JUMPI DUP1 PUSH4 0x321D7FA9 EQ PUSH2 0x19D JUMPI DUP1 PUSH4 0x41D3C84C EQ PUSH2 0x1A6 JUMPI DUP1 PUSH4 0x4ADA218B EQ PUSH2 0x1AF JUMPI DUP1 PUSH4 0x55F57510 EQ PUSH2 0x1CC JUMPI DUP1 PUSH4 0x56F43352 EQ PUSH2 0x23A JUMPI PUSH1 0x0 DUP1 REVERT JUMPDEST DUP1 PUSH4 0x694DB1E EQ PUSH2 0x131 JUMPI DUP1 PUSH4 0x1031E36E EQ PUSH2 0x13B JUMPI DUP1 PUSH4 0x1558C966 EQ PUSH2 0x143 JUMPI DUP1 PUSH4 0x23BE345C EQ PUSH2 0x156 JUMPI DUP1 PUSH4 0x310A2240 EQ PUSH2 0x186 JUMPI JUMPDEST PUSH1 0x0 DUP1 REVERT JUMPDEST PUSH2 0x139 PUSH2 0x2CA JUMP JUMPDEST STOP JUMPDEST PUSH2 0x139 PUSH2 0x302 JUMP JUMPDEST PUSH2 0x139 PUSH2 0x151 CALLDATASIZE PUSH1 0x4 PUSH2 0x1595 JUMP JUMPDEST PUSH2 0x337 JUMP JUMPDEST PUSH1 0x1 SLOAD PUSH2 0x169 SWAP1 PUSH1 0x1 PUSH1 0x1 PUSH1 0xA0 SHL SUB AND DUP2 JUMP JUMPDEST PUSH1 0x40 MLOAD PUSH1 0x1 PUSH1 0x1 PUSH1 0xA0 SHL SUB SWAP1 SWAP2 AND DUP2 MSTORE PUSH1 0x20 ADD JUMPDEST PUSH1 0x40 MLOAD DUP1 SWAP2 SUB SWAP1 RETURN JUMPDEST PUSH2 0x18F PUSH1 0x4 SLOAD DUP2 JUMP JUMPDEST PUSH1 0x40 MLOAD SWAP1 DUP2 MSTORE PUSH1 0x20 ADD PUSH2 0x17D JUMP JUMPDEST PUSH2 0x18F PUSH1 0x7 SLOAD DUP2 JUMP JUMPDEST PUSH2 0x18F PUSH1 0x6 SLOAD DUP2 JUMP JUMPDEST PUSH1 0xA SLOAD PUSH2 0x1BC SWAP1 PUSH1 0xFF AND DUP2 JUMP JUMPDEST PUSH1 0x40 MLOAD SWAP1 ISZERO ISZERO DUP2 MSTORE PUSH1 0x20 ADD PUSH2 0x17D JUMP JUMPDEST PUSH2 0x210 PUSH2 0x1DA CALLDATASIZE PUSH1 0x4 PUSH2 0x15CE JUMP JUMPDEST PUSH1 0x3 PUSH1 0x20 DUP2 SWAP1 MSTORE PUSH1 0x0 SWAP2 DUP3 MSTORE PUSH1 0x40 SWAP1 SWAP2 KECCAK256 DUP1 SLOAD PUSH1 0x1 DUP3 ADD SLOAD PUSH1 0x2 DUP4 ADD SLOAD SWAP4 DUP4 ADD SLOAD PUSH1 0x4 SWAP1 SWAP4 ADD SLOAD SWAP2 SWAP4 SWAP1 SWAP3 SWAP1 SWAP2 PUSH1 0xFF SWAP1 SWAP2 AND SWAP1 DUP6 JUMP JUMPDEST PUSH1 0x40 DUP1 MLOAD SWAP6 DUP7 MSTORE PUSH1 0x20 DUP7 ADD SWAP5 SWAP1 SWAP5 MSTORE SWAP3 DUP5 ADD SWAP2 SWAP1 SWAP2 MSTORE ISZERO ISZERO PUSH1 0x60 DUP4 ADD MSTORE PUSH1 0x80 DUP3 ADD MSTORE PUSH1 0xA0 ADD PUSH2 0x17D JUMP JUMPDEST PUSH2 0x18F PUSH1 0xB SLOAD DUP2 JUMP JUMPDEST PUSH1 0x2 SLOAD PUSH2 0x169 SWAP1 PUSH1 0x1 PUSH1 0x1 PUSH1 0xA0 SHL SUB AND DUP2 JUMP JUMPDEST PUSH2 0x139 PUSH2 0x264 CALLDATASIZE PUSH1 0x4 PUSH2 0x15CE JUMP JUMPDEST PUSH2 0x847 JUMP JUMPDEST PUSH2 0x18F PUSH1 0x5 SLOAD DUP2 JUMP JUMPDEST PUSH1 0x0 SLOAD PUSH2 0x169 SWAP1 PUSH1 0x1 PUSH1 0x1 PUSH1 0xA0 SHL SUB AND DUP2 JUMP JUMPDEST PUSH2 0x18F PUSH1 0x50 DUP2 JUMP JUMPDEST PUSH2 0x18F PUSH1 0x8 SLOAD DUP2 JUMP JUMPDEST PUSH2 0x18F PUSH1 0x14 DUP2 JUMP JUMPDEST PUSH2 0x18F PUSH8 0xDE0B6B3A7640000 DUP2 JUMP JUMPDEST PUSH2 0x139 PUSH2 0xDC6 JUMP JUMPDEST PUSH2 0x2BD PUSH2 0x1311 JUMP JUMPDEST PUSH1 0x40 MLOAD PUSH2 0x17D SWAP2 SWAP1 PUSH2 0x15FE JUMP JUMPDEST PUSH1 0xA DUP1 SLOAD PUSH1 0xFF NOT AND PUSH1 0x1 OR SWAP1 SSTORE PUSH1 0x40 MLOAD PUSH32 0xD1F57E4EA31DBDC1E20BFA1E1BD3B7165389E65EC7F9C6FC5BA0B1D55E61FCD0 SWAP1 PUSH1 0x0 SWAP1 LOG1 JUMP JUMPDEST PUSH1 0xA DUP1 SLOAD PUSH1 0xFF NOT AND SWAP1 SSTORE PUSH1 0x40 MLOAD PUSH32 0x54882D18A6359E96E87B8AAEFFE9F2FA9548A1DC5B62F8D0010E5554E6C7771D SWAP1 PUSH1 0x0 SWAP1 LOG1 JUMP JUMPDEST PUSH1 0xA SLOAD PUSH1 0xFF AND PUSH2 0x38E JUMPI PUSH1 0x40 MLOAD PUSH3 0x461BCD PUSH1 0xE5 SHL DUP2 MSTORE PUSH1 0x20 PUSH1 0x4 DUP3 ADD MSTORE PUSH1 0x1D PUSH1 0x24 DUP3 ADD MSTORE PUSH32 0x54726164696E672069732063757272656E746C792064697361626C6564000000 PUSH1 0x44 DUP3 ADD MSTORE PUSH1 0x64 ADD JUMPDEST PUSH1 0x40 MLOAD DUP1 SWAP2 SUB SWAP1 REVERT JUMPDEST PUSH1 0x0 DUP3 GT DUP1 ISZERO PUSH2 0x39F JUMPI POP PUSH1 0x14 DUP3 GT ISZERO JUMPDEST PUSH2 0x3DE JUMPI PUSH1 0x40 MLOAD PUSH3 0x461BCD PUSH1 0xE5 SHL DUP2 MSTORE PUSH1 0x20 PUSH1 0x4 DUP3 ADD MSTORE PUSH1 0x10 PUSH1 0x24 DUP3 ADD MSTORE PUSH16 0x496E76616C6964206C65766572616765 PUSH1 0x80 SHL PUSH1 0x44 DUP3 ADD MSTORE PUSH1 0x64 ADD PUSH2 0x385 JUMP JUMPDEST PUSH1 0x0 DUP4 GT PUSH2 0x42E JUMPI PUSH1 0x40 MLOAD PUSH3 0x461BCD PUSH1 0xE5 SHL DUP2 MSTORE PUSH1 0x20 PUSH1 0x4 DUP3 ADD MSTORE PUSH1 0x1D PUSH1 0x24 DUP3 ADD MSTORE PUSH32 0x4D617267696E206D7573742062652067726561746572207468616E2030000000 PUSH1 0x44 DUP3 ADD MSTORE PUSH1 0x64 ADD PUSH2 0x385 JUMP JUMPDEST CALLER PUSH1 0x0 SWAP1 DUP2 MSTORE PUSH1 0x3 PUSH1 0x20 MSTORE PUSH1 0x40 SWAP1 KECCAK256 SLOAD ISZERO PUSH2 0x48B JUMPI PUSH1 0x40 MLOAD PUSH3 0x461BCD PUSH1 0xE5 SHL DUP2 MSTORE PUSH1 0x20 PUSH1 0x4 DUP3 ADD MSTORE PUSH1 0x17 PUSH1 0x24 DUP3 ADD MSTORE PUSH32 0x506F736974696F6E20616C726561647920657869737473000000000000000000 PUSH1 0x44 DUP3 ADD MSTORE PUSH1 0x64 ADD PUSH2 0x385 JUMP JUMPDEST PUSH1 0x0 DUP1 SLOAD PUSH1 0x40 MLOAD PUSH4 0x524F3889 PUSH1 0xE0 SHL DUP2 MSTORE PUSH1 0x1 PUSH1 0x1 PUSH1 0xA0 SHL SUB SWAP1 SWAP2 AND SWAP1 PUSH4 0x524F3889 SWAP1 PUSH2 0x4BD SWAP1 PUSH1 0x9 SWAP1 PUSH1 0x4 ADD PUSH2 0x1686 JUMP JUMPDEST PUSH1 0x20 PUSH1 0x40 MLOAD DUP1 DUP4 SUB DUP2 DUP7 GAS STATICCALL ISZERO DUP1 ISZERO PUSH2 0x4DA JUMPI RETURNDATASIZE PUSH1 0x0 DUP1 RETURNDATACOPY RETURNDATASIZE PUSH1 0x0 REVERT JUMPDEST POP POP POP POP PUSH1 0x40 MLOAD RETURNDATASIZE PUSH1 0x1F NOT PUSH1 0x1F DUP3 ADD AND DUP3 ADD DUP1 PUSH1 0x40 MSTORE POP DUP2 ADD SWAP1 PUSH2 0x4FE SWAP2 SWAP1 PUSH2 0x1732 JUMP JUMPDEST SWAP1 POP PUSH1 0x0 DUP2 GT PUSH2 0x520 JUMPI PUSH1 0x40 MLOAD PUSH3 0x461BCD PUSH1 0xE5 SHL DUP2 MSTORE PUSH1 0x4 ADD PUSH2 0x385 SWAP1 PUSH2 0x174B JUMP JUMPDEST PUSH1 0x0 PUSH2 0x52C DUP5 DUP7 PUSH2 0x1788 JUMP JUMPDEST SWAP1 POP PUSH1 0x0 PUSH8 0xDE0B6B3A7640000 PUSH1 0xB SLOAD DUP4 PUSH2 0x547 SWAP2 SWAP1 PUSH2 0x1788 JUMP JUMPDEST PUSH2 0x551 SWAP2 SWAP1 PUSH2 0x179F JUMP JUMPDEST PUSH1 0x1 SLOAD PUSH1 0x40 MLOAD PUSH4 0x47A7D107 PUSH1 0xE0 SHL DUP2 MSTORE CALLER PUSH1 0x4 DUP3 ADD MSTORE PUSH1 0x24 DUP2 ADD DUP10 SWAP1 MSTORE SWAP2 SWAP3 POP PUSH1 0x1 PUSH1 0x1 PUSH1 0xA0 SHL SUB AND SWAP1 PUSH4 0x47A7D107 SWAP1 PUSH1 0x44 ADD PUSH1 0x0 PUSH1 0x40 MLOAD DUP1 DUP4 SUB DUP2 PUSH1 0x0 DUP8 DUP1 EXTCODESIZE ISZERO DUP1 ISZERO PUSH2 0x59E JUMPI PUSH1 0x0 DUP1 REVERT JUMPDEST POP GAS CALL ISZERO DUP1 ISZERO PUSH2 0x5B2 JUMPI RETURNDATASIZE PUSH1 0x0 DUP1 RETURNDATACOPY RETURNDATASIZE PUSH1 0x0 REVERT JUMPDEST POP POP POP POP PUSH1 0x0 DUP2 GT ISZERO PUSH2 0x61E JUMPI PUSH1 0x2 SLOAD PUSH1 0x40 MLOAD PUSH4 0xB17ACDCD PUSH1 0xE0 SHL DUP2 MSTORE PUSH1 0x4 DUP2 ADD DUP4 SWAP1 MSTORE PUSH1 0x1 PUSH1 0x1 PUSH1 0xA0 SHL SUB SWAP1 SWAP2 AND SWAP1 PUSH4 0xB17ACDCD SWAP1 PUSH1 0x24 ADD PUSH1 0x0 PUSH1 0x40 MLOAD DUP1 DUP4 SUB DUP2 PUSH1 0x0 DUP8 DUP1 EXTCODESIZE ISZERO DUP1 ISZERO PUSH2 0x605 JUMPI PUSH1 0x0 DUP1 REVERT JUMPDEST POP GAS CALL ISZERO DUP1 ISZERO PUSH2 0x619 JUMPI RETURNDATASIZE PUSH1 0x0 DUP1 RETURNDATACOPY RETURNDATASIZE PUSH1 0x0 REVERT JUMPDEST POP POP POP POP JUMPDEST PUSH1 0x40 DUP1 MLOAD PUSH1 0xA0 DUP2 ADD DUP3 MSTORE DUP4 DUP2 MSTORE PUSH1 0x20 DUP1 DUP3 ADD DUP10 DUP2 MSTORE DUP3 DUP5 ADD DUP8 DUP2 MSTORE DUP9 ISZERO DUP1 ISZERO PUSH1 0x60 DUP7 ADD SWAP1 DUP2 MSTORE TIMESTAMP PUSH1 0x80 DUP8 ADD SWAP1 DUP2 MSTORE CALLER PUSH1 0x0 SWAP1 DUP2 MSTORE PUSH1 0x3 SWAP7 DUP8 SWAP1 MSTORE SWAP8 SWAP1 SWAP8 KECCAK256 SWAP6 MLOAD DUP7 SSTORE SWAP3 MLOAD PUSH1 0x1 DUP7 ADD SSTORE SWAP1 MLOAD PUSH1 0x2 DUP6 ADD SSTORE SWAP1 MLOAD SWAP2 DUP4 ADD DUP1 SLOAD PUSH1 0xFF NOT AND SWAP3 ISZERO ISZERO SWAP3 SWAP1 SWAP3 OR SWAP1 SWAP2 SSTORE SWAP2 MLOAD PUSH1 0x4 SWAP1 SWAP2 ADD SSTORE PUSH2 0x6AC JUMPI DUP2 PUSH1 0x4 PUSH1 0x0 DUP3 DUP3 SLOAD PUSH2 0x6A1 SWAP2 SWAP1 PUSH2 0x17C1 JUMP JUMPDEST SWAP1 SWAP2 SSTORE POP PUSH2 0x6C4 SWAP1 POP JUMP JUMPDEST DUP2 PUSH1 0x5 PUSH1 0x0 DUP3 DUP3 SLOAD PUSH2 0x6BE SWAP2 SWAP1 PUSH2 0x17C1 JUMP JUMPDEST SWAP1 SWAP2 SSTORE POP POP JUMPDEST PUSH1 0x0 PUSH1 0x5 SLOAD PUSH1 0x4 SLOAD PUSH2 0x6D6 SWAP2 SWAP1 PUSH2 0x17C1 JUMP JUMPDEST SWAP1 POP PUSH1 0x0 PUSH1 0x2 PUSH1 0x0 SWAP1 SLOAD SWAP1 PUSH2 0x100 EXP SWAP1 DIV PUSH1 0x1 PUSH1 0x1 PUSH1 0xA0 SHL SUB AND PUSH1 0x1 PUSH1 0x1 PUSH1 0xA0 SHL SUB AND PUSH4 0x15770F92 PUSH1 0x40 MLOAD DUP2 PUSH4 0xFFFFFFFF AND PUSH1 0xE0 SHL DUP2 MSTORE PUSH1 0x4 ADD PUSH1 0x20 PUSH1 0x40 MLOAD DUP1 DUP4 SUB DUP2 DUP7 GAS STATICCALL ISZERO DUP1 ISZERO PUSH2 0x72D JUMPI RETURNDATASIZE PUSH1 0x0 DUP1 RETURNDATACOPY RETURNDATASIZE PUSH1 0x0 REVERT JUMPDEST POP POP POP POP PUSH1 0x40 MLOAD RETURNDATASIZE PUSH1 0x1F NOT PUSH1 0x1F DUP3 ADD AND DUP3 ADD DUP1 PUSH1 0x40 MSTORE POP DUP2 ADD SWAP1 PUSH2 0x751 SWAP2 SWAP1 PUSH2 0x1732 JUMP JUMPDEST SWAP1 POP PUSH1 0x0 DUP1 DUP3 GT PUSH2 0x763 JUMPI PUSH1 0x0 PUSH2 0x78A JUMP JUMPDEST PUSH2 0x76E DUP3 PUSH1 0x2 PUSH2 0x1788 JUMP JUMPDEST PUSH2 0x780 PUSH8 0xDE0B6B3A7640000 DUP6 PUSH2 0x1788 JUMP JUMPDEST PUSH2 0x78A SWAP2 SWAP1 PUSH2 0x179F JUMP JUMPDEST PUSH1 0x2 SLOAD PUSH1 0x40 MLOAD PUSH4 0x5C0F8F01 PUSH1 0xE0 SHL DUP2 MSTORE PUSH1 0x4 DUP2 ADD DUP4 SWAP1 MSTORE SWAP2 SWAP3 POP PUSH1 0x1 PUSH1 0x1 PUSH1 0xA0 SHL SUB AND SWAP1 PUSH4 0x5C0F8F01 SWAP1 PUSH1 0x24 ADD PUSH1 0x0 PUSH1 0x40 MLOAD DUP1 DUP4 SUB DUP2 PUSH1 0x0 DUP8 DUP1 EXTCODESIZE ISZERO DUP1 ISZERO PUSH2 0x7D1 JUMPI PUSH1 0x0 DUP1 REVERT JUMPDEST POP GAS CALL ISZERO DUP1 ISZERO PUSH2 0x7E5 JUMPI RETURNDATASIZE PUSH1 0x0 DUP1 RETURNDATACOPY RETURNDATASIZE PUSH1 0x0 REVERT JUMPDEST POP POP POP POP PUSH2 0x7F1 PUSH2 0x139F JUMP JUMPDEST PUSH1 0x40 DUP1 MLOAD DUP7 DUP2 MSTORE PUSH1 0x20 DUP2 ADD DUP12 SWAP1 MSTORE DUP9 ISZERO ISZERO DUP2 DUP4 ADD MSTORE PUSH1 0x60 DUP2 ADD DUP9 SWAP1 MSTORE SWAP1 MLOAD CALLER SWAP2 PUSH32 0xCD994640F2C49B14FEB3FAFFEEB78367DD4BE7F01B02E885E5C905EF46A535AF SWAP2 SWAP1 DUP2 SWAP1 SUB PUSH1 0x80 ADD SWAP1 LOG2 POP POP POP POP POP POP POP POP POP JUMP JUMPDEST PUSH1 0x1 PUSH1 0x1 PUSH1 0xA0 SHL SUB DUP2 AND PUSH1 0x0 SWAP1 DUP2 MSTORE PUSH1 0x3 PUSH1 0x20 DUP2 DUP2 MSTORE PUSH1 0x40 SWAP3 DUP4 SWAP1 KECCAK256 DUP4 MLOAD PUSH1 0xA0 DUP2 ADD DUP6 MSTORE DUP2 SLOAD DUP1 DUP3 MSTORE PUSH1 0x1 DUP4 ADD SLOAD SWAP4 DUP3 ADD SWAP4 SWAP1 SWAP4 MSTORE PUSH1 0x2 DUP3 ADD SLOAD SWAP5 DUP2 ADD SWAP5 SWAP1 SWAP5 MSTORE SWAP2 DUP3 ADD SLOAD PUSH1 0xFF AND ISZERO ISZERO PUSH1 0x60 DUP5 ADD MSTORE PUSH1 0x4 SWAP1 SWAP2 ADD SLOAD PUSH1 0x80 DUP4 ADD MSTORE PUSH2 0x8E2 JUMPI PUSH1 0x40 MLOAD PUSH3 0x461BCD PUSH1 0xE5 SHL DUP2 MSTORE PUSH1 0x20 PUSH1 0x4 DUP3 ADD MSTORE PUSH1 0x12 PUSH1 0x24 DUP3 ADD MSTORE PUSH18 0x4E6F20706F736974696F6E20657869737473 PUSH1 0x70 SHL PUSH1 0x44 DUP3 ADD MSTORE PUSH1 0x64 ADD PUSH2 0x385 JUMP JUMPDEST PUSH1 0x0 DUP1 SLOAD PUSH1 0x40 MLOAD PUSH4 0x524F3889 PUSH1 0xE0 SHL DUP2 MSTORE PUSH1 0x1 PUSH1 0x1 PUSH1 0xA0 SHL SUB SWAP1 SWAP2 AND SWAP1 PUSH4 0x524F3889 SWAP1 PUSH2 0x914 SWAP1 PUSH1 0x9 SWAP1 PUSH1 0x4 ADD PUSH2 0x1686 JUMP JUMPDEST PUSH1 0x20 PUSH1 0x40 MLOAD DUP1 DUP4 SUB DUP2 DUP7 GAS STATICCALL ISZERO DUP1 ISZERO PUSH2 0x931 JUMPI RETURNDATASIZE PUSH1 0x0 DUP1 RETURNDATACOPY RETURNDATASIZE PUSH1 0x0 REVERT JUMPDEST POP POP POP POP PUSH1 0x40 MLOAD RETURNDATASIZE PUSH1 0x1F NOT PUSH1 0x1F DUP3 ADD AND DUP3 ADD DUP1 PUSH1 0x40 MSTORE POP DUP2 ADD SWAP1 PUSH2 0x955 SWAP2 SWAP1 PUSH2 0x1732 JUMP JUMPDEST SWAP1 POP PUSH1 0x0 DUP2 GT PUSH2 0x977 JUMPI PUSH1 0x40 MLOAD PUSH3 0x461BCD PUSH1 0xE5 SHL DUP2 MSTORE PUSH1 0x4 ADD PUSH2 0x385 SWAP1 PUSH2 0x174B JUMP JUMPDEST PUSH1 0x0 PUSH2 0x983 DUP4 DUP4 PUSH2 0x13BF JUMP JUMPDEST SWAP1 POP PUSH1 0x0 DUP1 DUP3 SLT PUSH2 0x998 JUMPI DUP4 PUSH1 0x20 ADD MLOAD PUSH2 0x9CA JUMP JUMPDEST PUSH2 0x9A1 DUP3 PUSH2 0x17D4 JUMP JUMPDEST DUP5 PUSH1 0x20 ADD MLOAD GT PUSH2 0x9B2 JUMPI PUSH1 0x0 PUSH2 0x9CA JUMP JUMPDEST PUSH2 0x9BB DUP3 PUSH2 0x17D4 JUMP JUMPDEST DUP5 PUSH1 0x20 ADD MLOAD PUSH2 0x9CA SWAP2 SWAP1 PUSH2 0x17F0 JUMP JUMPDEST DUP5 MLOAD SWAP1 SWAP2 POP PUSH1 0x0 SWAP1 PUSH2 0x9DD DUP4 PUSH1 0x64 PUSH2 0x1788 JUMP JUMPDEST PUSH2 0x9E7 SWAP2 SWAP1 PUSH2 0x179F JUMP JUMPDEST SWAP1 POP PUSH1 0x50 DUP2 LT PUSH2 0xA39 JUMPI PUSH1 0x40 MLOAD PUSH3 0x461BCD PUSH1 0xE5 SHL DUP2 MSTORE PUSH1 0x20 PUSH1 0x4 DUP3 ADD MSTORE PUSH1 0x19 PUSH1 0x24 DUP3 ADD MSTORE PUSH32 0x506F736974696F6E206E6F74206C6971756964617461626C6500000000000000 PUSH1 0x44 DUP3 ADD MSTORE PUSH1 0x64 ADD PUSH2 0x385 JUMP JUMPDEST DUP5 PUSH1 0x60 ADD MLOAD ISZERO PUSH2 0xA62 JUMPI DUP5 MLOAD PUSH1 0x4 DUP1 SLOAD PUSH1 0x0 SWAP1 PUSH2 0xA57 SWAP1 DUP5 SWAP1 PUSH2 0x17F0 JUMP JUMPDEST SWAP1 SWAP2 SSTORE POP PUSH2 0xA7C SWAP1 POP JUMP JUMPDEST DUP5 MLOAD PUSH1 0x5 DUP1 SLOAD PUSH1 0x0 SWAP1 PUSH2 0xA76 SWAP1 DUP5 SWAP1 PUSH2 0x17F0 JUMP JUMPDEST SWAP1 SWAP2 SSTORE POP POP JUMPDEST DUP5 MLOAD PUSH1 0x0 SWAP1 PUSH2 0xA8D SWAP1 PUSH1 0x64 SWAP1 PUSH2 0x179F JUMP JUMPDEST SWAP1 POP DUP6 PUSH1 0x20 ADD MLOAD DUP2 GT ISZERO PUSH2 0xAA2 JUMPI POP PUSH1 0x20 DUP6 ADD MLOAD JUMPDEST PUSH1 0x0 DUP1 DUP6 SLT DUP1 ISZERO PUSH2 0xABE JUMPI POP PUSH1 0x20 DUP8 ADD MLOAD PUSH2 0xABC DUP7 PUSH2 0x17D4 JUMP JUMPDEST GT JUMPDEST PUSH2 0xAC9 JUMPI PUSH1 0x0 PUSH2 0xAE1 JUMP JUMPDEST PUSH1 0x20 DUP8 ADD MLOAD PUSH2 0xAD7 DUP7 PUSH2 0x17D4 JUMP JUMPDEST PUSH2 0xAE1 SWAP2 SWAP1 PUSH2 0x17F0 JUMP JUMPDEST SWAP1 POP DUP1 ISZERO PUSH2 0xB5A JUMPI PUSH1 0x2 SLOAD PUSH1 0x40 MLOAD PUSH4 0xA50E6FC9 PUSH1 0xE0 SHL DUP2 MSTORE PUSH1 0x4 DUP2 ADD DUP4 SWAP1 MSTORE PUSH1 0x1 PUSH1 0x1 PUSH1 0xA0 SHL SUB SWAP1 SWAP2 AND SWAP1 PUSH4 0xA50E6FC9 SWAP1 PUSH1 0x24 ADD PUSH1 0x20 PUSH1 0x40 MLOAD DUP1 DUP4 SUB DUP2 PUSH1 0x0 DUP8 GAS CALL ISZERO DUP1 ISZERO PUSH2 0xB34 JUMPI RETURNDATASIZE PUSH1 0x0 DUP1 RETURNDATACOPY RETURNDATASIZE PUSH1 0x0 REVERT JUMPDEST POP POP POP POP PUSH1 0x40 MLOAD RETURNDATASIZE PUSH1 0x1F NOT PUSH1 0x1F DUP3 ADD AND DUP3 ADD DUP1 PUSH1 0x40 MSTORE POP DUP2 ADD SWAP1 PUSH2 0xB58 SWAP2 SWAP1 PUSH2 0x1803 JUMP JUMPDEST POP JUMPDEST PUSH1 0x20 DUP8 ADD MLOAD DUP3 DUP2 GT ISZERO PUSH2 0xBE2 JUMPI PUSH1 0x1 SLOAD PUSH1 0x1 PUSH1 0x1 PUSH1 0xA0 SHL SUB AND PUSH4 0xBD6F2C52 DUP11 PUSH2 0xB83 DUP7 DUP6 PUSH2 0x17F0 JUMP JUMPDEST PUSH1 0x40 MLOAD PUSH1 0x1 PUSH1 0x1 PUSH1 0xE0 SHL SUB NOT PUSH1 0xE0 DUP6 SWAP1 SHL AND DUP2 MSTORE PUSH1 0x1 PUSH1 0x1 PUSH1 0xA0 SHL SUB SWAP1 SWAP3 AND PUSH1 0x4 DUP4 ADD MSTORE PUSH1 0x24 DUP3 ADD MSTORE PUSH1 0x44 ADD PUSH1 0x0 PUSH1 0x40 MLOAD DUP1 DUP4 SUB DUP2 PUSH1 0x0 DUP8 DUP1 EXTCODESIZE ISZERO DUP1 ISZERO PUSH2 0xBC9 JUMPI PUSH1 0x0 DUP1 REVERT JUMPDEST POP GAS CALL ISZERO DUP1 ISZERO PUSH2 0xBDD JUMPI RETURNDATASIZE PUSH1 0x0 DUP1 RETURNDATACOPY RETURNDATASIZE PUSH1 0x0 REVERT JUMPDEST POP POP POP POP JUMPDEST PUSH1 0x0 PUSH1 0x5 SLOAD PUSH1 0x4 SLOAD PUSH2 0xBF4 SWAP2 SWAP1 PUSH2 0x17C1 JUMP JUMPDEST SWAP1 POP PUSH1 0x0 PUSH1 0x2 PUSH1 0x0 SWAP1 SLOAD SWAP1 PUSH2 0x100 EXP SWAP1 DIV PUSH1 0x1 PUSH1 0x1 PUSH1 0xA0 SHL SUB AND PUSH1 0x1 PUSH1 0x1 PUSH1 0xA0 SHL SUB AND PUSH4 0x15770F92 PUSH1 0x40 MLOAD DUP2 PUSH4 0xFFFFFFFF AND PUSH1 0xE0 SHL DUP2 MSTORE PUSH1 0x4 ADD PUSH1 0x20 PUSH1 0x40 MLOAD DUP1 DUP4 SUB DUP2 DUP7 GAS STATICCALL ISZERO DUP1 ISZERO PUSH2 0xC4B JUMPI RETURNDATASIZE PUSH1 0x0 DUP1 RETURNDATACOPY RETURNDATASIZE PUSH1 0x0 REVERT JUMPDEST POP POP POP POP PUSH1 0x40 MLOAD RETURNDATASIZE PUSH1 0x1F NOT PUSH1 0x1F DUP3 ADD AND DUP3 ADD DUP1 PUSH1 0x40 MSTORE POP DUP2 ADD SWAP1 PUSH2 0xC6F SWAP2 SWAP1 PUSH2 0x1732 JUMP JUMPDEST SWAP1 POP PUSH1 0x0 DUP1 DUP3 GT DUP1 ISZERO PUSH2 0xC82 JUMPI POP PUSH1 0x0 DUP4 GT JUMPDEST PUSH2 0xC8D JUMPI PUSH1 0x0 PUSH2 0xCB4 JUMP JUMPDEST PUSH2 0xC98 DUP3 PUSH1 0x2 PUSH2 0x1788 JUMP JUMPDEST PUSH2 0xCAA PUSH8 0xDE0B6B3A7640000 DUP6 PUSH2 0x1788 JUMP JUMPDEST PUSH2 0xCB4 SWAP2 SWAP1 PUSH2 0x179F JUMP JUMPDEST PUSH1 0x2 SLOAD PUSH1 0x40 MLOAD PUSH4 0x5C0F8F01 PUSH1 0xE0 SHL DUP2 MSTORE PUSH1 0x4 DUP2 ADD DUP4 SWAP1 MSTORE SWAP2 SWAP3 POP PUSH1 0x1 PUSH1 0x1 PUSH1 0xA0 SHL SUB AND SWAP1 PUSH4 0x5C0F8F01 SWAP1 PUSH1 0x24 ADD PUSH1 0x0 PUSH1 0x40 MLOAD DUP1 DUP4 SUB DUP2 PUSH1 0x0 DUP8 DUP1 EXTCODESIZE ISZERO DUP1 ISZERO PUSH2 0xCFB JUMPI PUSH1 0x0 DUP1 REVERT JUMPDEST POP GAS CALL ISZERO DUP1 ISZERO PUSH2 0xD0F JUMPI RETURNDATASIZE PUSH1 0x0 DUP1 RETURNDATACOPY RETURNDATASIZE PUSH1 0x0 REVERT JUMPDEST POP POP POP POP DUP12 PUSH1 0x1 PUSH1 0x1 PUSH1 0xA0 SHL SUB AND PUSH32 0xD53D819123736D03ECF50A5157BDB1EB07EEC9394E022F7E466550828B4B77A2 DUP13 PUSH1 0x0 ADD MLOAD DUP14 PUSH1 0x20 ADD MLOAD DUP15 PUSH1 0x60 ADD MLOAD DUP15 PUSH1 0x40 MLOAD PUSH2 0xD76 SWAP5 SWAP4 SWAP3 SWAP2 SWAP1 SWAP4 DUP5 MSTORE PUSH1 0x20 DUP5 ADD SWAP3 SWAP1 SWAP3 MSTORE ISZERO ISZERO PUSH1 0x40 DUP4 ADD MSTORE PUSH1 0x60 DUP3 ADD MSTORE PUSH1 0x80 ADD SWAP1 JUMP JUMPDEST PUSH1 0x40 MLOAD DUP1 SWAP2 SUB SWAP1 LOG2 POP POP POP PUSH1 0x1 PUSH1 0x1 PUSH1 0xA0 SHL SUB SWAP1 SWAP9 AND PUSH1 0x0 SWAP1 DUP2 MSTORE PUSH1 0x3 PUSH1 0x20 DUP2 SWAP1 MSTORE PUSH1 0x40 DUP3 KECCAK256 DUP3 DUP2 SSTORE PUSH1 0x1 DUP2 ADD DUP4 SWAP1 SSTORE PUSH1 0x2 DUP2 ADD DUP4 SWAP1 SSTORE SWAP1 DUP2 ADD DUP1 SLOAD PUSH1 0xFF NOT AND SWAP1 SSTORE PUSH1 0x4 ADD SSTORE POP POP POP POP POP POP POP POP JUMP JUMPDEST CALLER PUSH1 0x0 SWAP1 DUP2 MSTORE PUSH1 0x3 PUSH1 0x20 MSTORE PUSH1 0x40 SWAP1 KECCAK256 SLOAD PUSH2 0xE17 JUMPI PUSH1 0x40 MLOAD PUSH3 0x461BCD PUSH1 0xE5 SHL DUP2 MSTORE PUSH1 0x20 PUSH1 0x4 DUP3 ADD MSTORE PUSH1 0x12 PUSH1 0x24 DUP3 ADD MSTORE PUSH18 0x4E6F20706F736974696F6E20657869737473 PUSH1 0x70 SHL PUSH1 0x44 DUP3 ADD MSTORE PUSH1 0x64 ADD PUSH2 0x385 JUMP JUMPDEST CALLER PUSH1 0x0 SWAP1 DUP2 MSTORE PUSH1 0x3 PUSH1 0x20 DUP2 DUP2 MSTORE PUSH1 0x40 DUP1 DUP5 KECCAK256 DUP2 MLOAD PUSH1 0xA0 DUP2 ADD DUP4 MSTORE DUP2 SLOAD DUP2 MSTORE PUSH1 0x1 DUP3 ADD SLOAD SWAP4 DUP2 ADD SWAP4 SWAP1 SWAP4 MSTORE PUSH1 0x2 DUP2 ADD SLOAD DUP4 DUP4 ADD MSTORE SWAP3 DUP4 ADD SLOAD PUSH1 0xFF AND ISZERO ISZERO PUSH1 0x60 DUP4 ADD MSTORE PUSH1 0x4 SWAP3 DUP4 ADD SLOAD PUSH1 0x80 DUP4 ADD MSTORE DUP4 SLOAD SWAP1 MLOAD PUSH4 0x524F3889 PUSH1 0xE0 SHL DUP2 MSTORE SWAP2 SWAP4 SWAP3 PUSH1 0x1 PUSH1 0x1 PUSH1 0xA0 SHL SUB SWAP1 SWAP2 AND SWAP2 PUSH4 0x524F3889 SWAP2 PUSH2 0xE93 SWAP2 PUSH1 0x9 SWAP2 ADD PUSH2 0x1686 JUMP JUMPDEST PUSH1 0x20 PUSH1 0x40 MLOAD DUP1 DUP4 SUB DUP2 DUP7 GAS STATICCALL ISZERO DUP1 ISZERO PUSH2 0xEB0 JUMPI RETURNDATASIZE PUSH1 0x0 DUP1 RETURNDATACOPY RETURNDATASIZE PUSH1 0x0 REVERT JUMPDEST POP POP POP POP PUSH1 0x40 MLOAD RETURNDATASIZE PUSH1 0x1F NOT PUSH1 0x1F DUP3 ADD AND DUP3 ADD DUP1 PUSH1 0x40 MSTORE POP DUP2 ADD SWAP1 PUSH2 0xED4 SWAP2 SWAP1 PUSH2 0x1732 JUMP JUMPDEST SWAP1 POP PUSH1 0x0 DUP2 GT PUSH2 0xEF6 JUMPI PUSH1 0x40 MLOAD PUSH3 0x461BCD PUSH1 0xE5 SHL DUP2 MSTORE PUSH1 0x4 ADD PUSH2 0x385 SWAP1 PUSH2 0x174B JUMP JUMPDEST PUSH1 0x0 PUSH2 0xF02 DUP4 DUP4 PUSH2 0x13BF JUMP JUMPDEST SWAP1 POP PUSH2 0xF0C PUSH2 0x139F JUMP JUMPDEST DUP3 PUSH1 0x60 ADD MLOAD ISZERO PUSH2 0xF35 JUMPI DUP3 MLOAD PUSH1 0x4 DUP1 SLOAD PUSH1 0x0 SWAP1 PUSH2 0xF2A SWAP1 DUP5 SWAP1 PUSH2 0x17F0 JUMP JUMPDEST SWAP1 SWAP2 SSTORE POP PUSH2 0xF4F SWAP1 POP JUMP JUMPDEST DUP3 MLOAD PUSH1 0x5 DUP1 SLOAD PUSH1 0x0 SWAP1 PUSH2 0xF49 SWAP1 DUP5 SWAP1 PUSH2 0x17F0 JUMP JUMPDEST SWAP1 SWAP2 SSTORE POP POP JUMPDEST PUSH1 0x0 PUSH8 0xDE0B6B3A7640000 PUSH1 0xB SLOAD DUP6 PUSH1 0x0 ADD MLOAD PUSH2 0xF6C SWAP2 SWAP1 PUSH2 0x1788 JUMP JUMPDEST PUSH2 0xF76 SWAP2 SWAP1 PUSH2 0x179F JUMP JUMPDEST SWAP1 POP DUP1 ISZERO PUSH2 0xFDD JUMPI PUSH1 0x2 SLOAD PUSH1 0x40 MLOAD PUSH4 0xB17ACDCD PUSH1 0xE0 SHL DUP2 MSTORE PUSH1 0x4 DUP2 ADD DUP4 SWAP1 MSTORE PUSH1 0x1 PUSH1 0x1 PUSH1 0xA0 SHL SUB SWAP1 SWAP2 AND SWAP1 PUSH4 0xB17ACDCD SWAP1 PUSH1 0x24 ADD PUSH1 0x0 PUSH1 0x40 MLOAD DUP1 DUP4 SUB DUP2 PUSH1 0x0 DUP8 DUP1 EXTCODESIZE ISZERO DUP1 ISZERO PUSH2 0xFC4 JUMPI PUSH1 0x0 DUP1 REVERT JUMPDEST POP GAS CALL ISZERO DUP1 ISZERO PUSH2 0xFD8 JUMPI RETURNDATASIZE PUSH1 0x0 DUP1 RETURNDATACOPY RETURNDATASIZE PUSH1 0x0 REVERT JUMPDEST POP POP POP POP JUMPDEST PUSH1 0x0 DUP3 SLT PUSH2 0x1082 JUMPI PUSH1 0x0 DUP3 DUP6 PUSH1 0x20 ADD MLOAD PUSH2 0xFF7 SWAP2 SWAP1 PUSH2 0x17C1 JUMP JUMPDEST SWAP1 POP DUP2 DUP2 GT ISZERO PUSH2 0x107C JUMPI PUSH1 0x1 SLOAD PUSH1 0x1 PUSH1 0x1 PUSH1 0xA0 SHL SUB AND PUSH4 0xBD6F2C52 CALLER PUSH2 0x101D DUP6 DUP6 PUSH2 0x17F0 JUMP JUMPDEST PUSH1 0x40 MLOAD PUSH1 0x1 PUSH1 0x1 PUSH1 0xE0 SHL SUB NOT PUSH1 0xE0 DUP6 SWAP1 SHL AND DUP2 MSTORE PUSH1 0x1 PUSH1 0x1 PUSH1 0xA0 SHL SUB SWAP1 SWAP3 AND PUSH1 0x4 DUP4 ADD MSTORE PUSH1 0x24 DUP3 ADD MSTORE PUSH1 0x44 ADD PUSH1 0x0 PUSH1 0x40 MLOAD DUP1 DUP4 SUB DUP2 PUSH1 0x0 DUP8 DUP1 EXTCODESIZE ISZERO DUP1 ISZERO PUSH2 0x1063 JUMPI PUSH1 0x0 DUP1 REVERT JUMPDEST POP GAS CALL ISZERO DUP1 ISZERO PUSH2 0x1077 JUMPI RETURNDATASIZE PUSH1 0x0 DUP1 RETURNDATACOPY RETURNDATASIZE PUSH1 0x0 REVERT JUMPDEST POP POP POP POP JUMPDEST POP PUSH2 0x113D JUMP JUMPDEST PUSH1 0x0 PUSH2 0x108D DUP4 PUSH2 0x17D4 JUMP JUMPDEST DUP6 PUSH1 0x20 ADD MLOAD GT PUSH2 0x109E JUMPI PUSH1 0x0 PUSH2 0x10B6 JUMP JUMPDEST PUSH2 0x10A7 DUP4 PUSH2 0x17D4 JUMP JUMPDEST DUP6 PUSH1 0x20 ADD MLOAD PUSH2 0x10B6 SWAP2 SWAP1 PUSH2 0x17F0 JUMP JUMPDEST SWAP1 POP DUP2 DUP2 GT ISZERO PUSH2 0x113B JUMPI PUSH1 0x1 SLOAD PUSH1 0x1 PUSH1 0x1 PUSH1 0xA0 SHL SUB AND PUSH4 0xBD6F2C52 CALLER PUSH2 0x10DC DUP6 DUP6 PUSH2 0x17F0 JUMP JUMPDEST PUSH1 0x40 MLOAD PUSH1 0x1 PUSH1 0x1 PUSH1 0xE0 SHL SUB NOT PUSH1 0xE0 DUP6 SWAP1 SHL AND DUP2 MSTORE PUSH1 0x1 PUSH1 0x1 PUSH1 0xA0 SHL SUB SWAP1 SWAP3 AND PUSH1 0x4 DUP4 ADD MSTORE PUSH1 0x24 DUP3 ADD MSTORE PUSH1 0x44 ADD PUSH1 0x0 PUSH1 0x40 MLOAD DUP1 DUP4 SUB DUP2 PUSH1 0x0 DUP8 DUP1 EXTCODESIZE ISZERO DUP1 ISZERO PUSH2 0x1122 JUMPI PUSH1 0x0 DUP1 REVERT JUMPDEST POP GAS CALL ISZERO DUP1 ISZERO PUSH2 0x1136 JUMPI RETURNDATASIZE PUSH1 0x0 DUP1 RETURNDATACOPY RETURNDATASIZE PUSH1 0x0 REVERT JUMPDEST POP POP POP POP JUMPDEST POP JUMPDEST PUSH1 0x0 PUSH1 0x5 SLOAD PUSH1 0x4 SLOAD PUSH2 0x114F SWAP2 SWAP1 PUSH2 0x17C1 JUMP JUMPDEST SWAP1 POP PUSH1 0x0 PUSH1 0x2 PUSH1 0x0 SWAP1 SLOAD SWAP1 PUSH2 0x100 EXP SWAP1 DIV PUSH1 0x1 PUSH1 0x1 PUSH1 0xA0 SHL SUB AND PUSH1 0x1 PUSH1 0x1 PUSH1 0xA0 SHL SUB AND PUSH4 0x15770F92 PUSH1 0x40 MLOAD DUP2 PUSH4 0xFFFFFFFF AND PUSH1 0xE0 SHL DUP2 MSTORE PUSH1 0x4 ADD PUSH1 0x20 PUSH1 0x40 MLOAD DUP1 DUP4 SUB DUP2 DUP7 GAS STATICCALL ISZERO DUP1 ISZERO PUSH2 0x11A6 JUMPI RETURNDATASIZE PUSH1 0x0 DUP1 RETURNDATACOPY RETURNDATASIZE PUSH1 0x0 REVERT JUMPDEST POP POP POP POP PUSH1 0x40 MLOAD RETURNDATASIZE PUSH1 0x1F NOT PUSH1 0x1F DUP3 ADD AND DUP3 ADD DUP1 PUSH1 0x40 MSTORE POP DUP2 ADD SWAP1 PUSH2 0x11CA SWAP2 SWAP1 PUSH2 0x1732 JUMP JUMPDEST SWAP1 POP PUSH1 0x0 DUP1 DUP3 GT DUP1 ISZERO PUSH2 0x11DD JUMPI POP PUSH1 0x0 DUP4 GT JUMPDEST PUSH2 0x11E8 JUMPI PUSH1 0x0 PUSH2 0x120F JUMP JUMPDEST PUSH2 0x11F3 DUP3 PUSH1 0x2 PUSH2 0x1788 JUMP JUMPDEST PUSH2 0x1205 PUSH8 0xDE0B6B3A7640000 DUP6 PUSH2 0x1788 JUMP JUMPDEST PUSH2 0x120F SWAP2 SWAP1 PUSH2 0x179F JUMP JUMPDEST PUSH1 0x2 SLOAD PUSH1 0x40 MLOAD PUSH4 0x5C0F8F01 PUSH1 0xE0 SHL DUP2 MSTORE PUSH1 0x4 DUP2 ADD DUP4 SWAP1 MSTORE SWAP2 SWAP3 POP PUSH1 0x1 PUSH1 0x1 PUSH1 0xA0 SHL SUB AND SWAP1 PUSH4 0x5C0F8F01 SWAP1 PUSH1 0x24 ADD PUSH1 0x0 PUSH1 0x40 MLOAD DUP1 DUP4 SUB DUP2 PUSH1 0x0 DUP8 DUP1 EXTCODESIZE ISZERO DUP1 ISZERO PUSH2 0x1256 JUMPI PUSH1 0x0 DUP1 REVERT JUMPDEST POP GAS CALL ISZERO DUP1 ISZERO PUSH2 0x126A JUMPI RETURNDATASIZE PUSH1 0x0 DUP1 RETURNDATACOPY RETURNDATASIZE PUSH1 0x0 REVERT JUMPDEST POP POP DUP9 MLOAD PUSH1 0x20 DUP11 ADD MLOAD PUSH1 0x60 DUP12 ADD MLOAD PUSH1 0x40 MLOAD CALLER SWAP6 POP PUSH32 0xCAB106AE09BD9CBCA858CE88089ABDA79F874F5E57BBC3F3AFF1FACD8ACBFB01 SWAP5 POP PUSH2 0x12CF SWAP4 SWAP3 SWAP2 SWAP1 DUP13 SWAP1 DUP13 SWAP1 SWAP5 DUP6 MSTORE PUSH1 0x20 DUP6 ADD SWAP4 SWAP1 SWAP4 MSTORE SWAP1 ISZERO ISZERO PUSH1 0x40 DUP5 ADD MSTORE PUSH1 0x60 DUP4 ADD MSTORE PUSH1 0x80 DUP3 ADD MSTORE PUSH1 0xA0 ADD SWAP1 JUMP JUMPDEST PUSH1 0x40 MLOAD DUP1 SWAP2 SUB SWAP1 LOG2 POP POP CALLER PUSH1 0x0 SWAP1 DUP2 MSTORE PUSH1 0x3 PUSH1 0x20 DUP2 SWAP1 MSTORE PUSH1 0x40 DUP3 KECCAK256 DUP3 DUP2 SSTORE PUSH1 0x1 DUP2 ADD DUP4 SWAP1 SSTORE PUSH1 0x2 DUP2 ADD DUP4 SWAP1 SSTORE SWAP1 DUP2 ADD DUP1 SLOAD PUSH1 0xFF NOT AND SWAP1 SSTORE PUSH1 0x4 ADD SSTORE POP POP POP POP POP JUMP JUMPDEST PUSH1 0x9 DUP1 SLOAD PUSH2 0x131E SWAP1 PUSH2 0x164C JUMP JUMPDEST DUP1 PUSH1 0x1F ADD PUSH1 0x20 DUP1 SWAP2 DIV MUL PUSH1 0x20 ADD PUSH1 0x40 MLOAD SWAP1 DUP2 ADD PUSH1 0x40 MSTORE DUP1 SWAP3 SWAP2 SWAP1 DUP2 DUP2 MSTORE PUSH1 0x20 ADD DUP3 DUP1 SLOAD PUSH2 0x134A SWAP1 PUSH2 0x164C JUMP JUMPDEST DUP1 ISZERO PUSH2 0x1397 JUMPI DUP1 PUSH1 0x1F LT PUSH2 0x136C JUMPI PUSH2 0x100 DUP1 DUP4 SLOAD DIV MUL DUP4 MSTORE SWAP2 PUSH1 0x20 ADD SWAP2 PUSH2 0x1397 JUMP JUMPDEST DUP3 ADD SWAP2 SWAP1 PUSH1 0x0 MSTORE PUSH1 0x20 PUSH1 0x0 KECCAK256 SWAP1 JUMPDEST DUP2 SLOAD DUP2 MSTORE SWAP1 PUSH1 0x1 ADD SWAP1 PUSH1 0x20 ADD DUP1 DUP4 GT PUSH2 0x137A JUMPI DUP3 SWAP1 SUB PUSH1 0x1F AND DUP3 ADD SWAP2 JUMPDEST POP POP POP POP POP DUP2 JUMP JUMPDEST PUSH1 0x8 SLOAD PUSH1 0x7 SLOAD PUSH2 0x13AF SWAP2 SWAP1 PUSH2 0x17C1 JUMP JUMPDEST TIMESTAMP LT PUSH2 0x13BD JUMPI PUSH2 0x13BD PUSH2 0x1465 JUMP JUMPDEST JUMP JUMPDEST PUSH1 0x0 DUP3 PUSH1 0x60 ADD MLOAD ISZERO PUSH2 0x1431 JUMPI DUP3 PUSH1 0x40 ADD MLOAD DUP3 GT ISZERO PUSH2 0x1403 JUMPI PUSH1 0x40 DUP4 ADD MLOAD DUP4 MLOAD PUSH2 0x13E8 DUP3 DUP6 PUSH2 0x17F0 JUMP JUMPDEST PUSH2 0x13F2 SWAP2 SWAP1 PUSH2 0x1788 JUMP JUMPDEST PUSH2 0x13FC SWAP2 SWAP1 PUSH2 0x179F JUMP JUMPDEST SWAP1 POP PUSH2 0x145F JUMP JUMPDEST PUSH1 0x40 DUP4 ADD MLOAD DUP4 MLOAD PUSH2 0x1414 DUP5 DUP4 PUSH2 0x17F0 JUMP JUMPDEST PUSH2 0x141E SWAP2 SWAP1 PUSH2 0x1788 JUMP JUMPDEST PUSH2 0x1428 SWAP2 SWAP1 PUSH2 0x179F JUMP JUMPDEST PUSH2 0x13FC SWAP1 PUSH2 0x17D4 JUMP JUMPDEST DUP2 DUP4 PUSH1 0x40 ADD MLOAD GT ISZERO PUSH2 0x144E JUMPI PUSH1 0x40 DUP4 ADD MLOAD DUP4 MLOAD PUSH2 0x13E8 DUP5 DUP4 PUSH2 0x17F0 JUMP JUMPDEST PUSH1 0x40 DUP4 ADD MLOAD DUP4 MLOAD PUSH2 0x1414 DUP3 DUP6 PUSH2 0x17F0 JUMP JUMPDEST SWAP3 SWAP2 POP POP JUMP JUMPDEST PUSH1 0x4 SLOAD ISZERO DUP1 ISZERO PUSH2 0x1475 JUMPI POP PUSH1 0x5 SLOAD ISZERO JUMPDEST ISZERO PUSH2 0x1484 JUMPI PUSH1 0x0 PUSH1 0x6 SSTORE PUSH2 0x1548 JUMP JUMPDEST PUSH1 0x0 PUSH1 0x5 SLOAD PUSH1 0x4 SLOAD GT ISZERO PUSH2 0x14D6 JUMPI PUSH1 0x5 SLOAD PUSH1 0x4 SLOAD PUSH2 0x14A2 SWAP2 SWAP1 PUSH2 0x17C1 JUMP JUMPDEST PUSH8 0xDE0B6B3A7640000 PUSH1 0x5 SLOAD PUSH1 0x4 SLOAD PUSH2 0x14BB SWAP2 SWAP1 PUSH2 0x17F0 JUMP JUMPDEST PUSH2 0x14C5 SWAP2 SWAP1 PUSH2 0x1788 JUMP JUMPDEST PUSH2 0x14CF SWAP2 SWAP1 PUSH2 0x179F JUMP JUMPDEST SWAP1 POP PUSH2 0x151F JUMP JUMPDEST PUSH1 0x5 SLOAD PUSH1 0x4 SLOAD PUSH2 0x14E6 SWAP2 SWAP1 PUSH2 0x17C1 JUMP JUMPDEST PUSH8 0xDE0B6B3A7640000 PUSH1 0x4 SLOAD PUSH1 0x5 SLOAD PUSH2 0x14FF SWAP2 SWAP1 PUSH2 0x17F0 JUMP JUMPDEST PUSH2 0x1509 SWAP2 SWAP1 PUSH2 0x1788 JUMP JUMPDEST PUSH2 0x1513 SWAP2 SWAP1 PUSH2 0x179F JUMP JUMPDEST PUSH2 0x151C SWAP1 PUSH2 0x17D4 JUMP JUMPDEST SWAP1 POP JUMPDEST PUSH1 0x64 PUSH1 0x0 DUP3 SGT PUSH2 0x1537 JUMPI PUSH2 0x1532 DUP3 PUSH2 0x17D4 JUMP JUMPDEST PUSH2 0x1539 JUMP JUMPDEST DUP2 JUMPDEST PUSH2 0x1543 SWAP2 SWAP1 PUSH2 0x179F JUMP JUMPDEST PUSH1 0x6 SSTORE POP JUMPDEST TIMESTAMP PUSH1 0x7 SSTORE PUSH1 0x6 SLOAD PUSH1 0x40 MLOAD SWAP1 DUP2 MSTORE PUSH32 0x54B4F3D4A67CC5DA94AEFDC1F13908A295DC0BA318E23F92E728131ED95D27C5 SWAP1 PUSH1 0x20 ADD PUSH1 0x40 MLOAD DUP1 SWAP2 SUB SWAP1 LOG1 JUMP JUMPDEST DUP1 ISZERO ISZERO DUP2 EQ PUSH2 0x1592 JUMPI PUSH1 0x0 DUP1 REVERT JUMPDEST POP JUMP JUMPDEST PUSH1 0x0 DUP1 PUSH1 0x0 PUSH1 0x60 DUP5 DUP7 SUB SLT ISZERO PUSH2 0x15AA JUMPI PUSH1 0x0 DUP1 REVERT JUMPDEST DUP4 CALLDATALOAD SWAP3 POP PUSH1 0x20 DUP5 ADD CALLDATALOAD SWAP2 POP PUSH1 0x40 DUP5 ADD CALLDATALOAD PUSH2 0x15C3 DUP2 PUSH2 0x1584 JUMP JUMPDEST DUP1 SWAP2 POP POP SWAP3 POP SWAP3 POP SWAP3 JUMP JUMPDEST PUSH1 0x0 PUSH1 0x20 DUP3 DUP5 SUB SLT ISZERO PUSH2 0x15E0 JUMPI PUSH1 0x0 DUP1 REVERT JUMPDEST DUP2 CALLDATALOAD PUSH1 0x1 PUSH1 0x1 PUSH1 0xA0 SHL SUB DUP2 AND DUP2 EQ PUSH2 0x15F7 JUMPI PUSH1 0x0 DUP1 REVERT JUMPDEST SWAP4 SWAP3 POP POP POP JUMP JUMPDEST PUSH1 0x0 PUSH1 0x20 DUP1 DUP4 MSTORE DUP4 MLOAD DUP1 DUP3 DUP6 ADD MSTORE PUSH1 0x0 JUMPDEST DUP2 DUP2 LT ISZERO PUSH2 0x162B JUMPI DUP6 DUP2 ADD DUP4 ADD MLOAD DUP6 DUP3 ADD PUSH1 0x40 ADD MSTORE DUP3 ADD PUSH2 0x160F JUMP JUMPDEST POP PUSH1 0x0 PUSH1 0x40 DUP3 DUP7 ADD ADD MSTORE PUSH1 0x40 PUSH1 0x1F NOT PUSH1 0x1F DUP4 ADD AND DUP6 ADD ADD SWAP3 POP POP POP SWAP3 SWAP2 POP POP JUMP JUMPDEST PUSH1 0x1 DUP2 DUP2 SHR SWAP1 DUP3 AND DUP1 PUSH2 0x1660 JUMPI PUSH1 0x7F DUP3 AND SWAP2 POP JUMPDEST PUSH1 0x20 DUP3 LT DUP2 SUB PUSH2 0x1680 JUMPI PUSH4 0x4E487B71 PUSH1 0xE0 SHL PUSH1 0x0 MSTORE PUSH1 0x22 PUSH1 0x4 MSTORE PUSH1 0x24 PUSH1 0x0 REVERT JUMPDEST POP SWAP2 SWAP1 POP JUMP JUMPDEST PUSH1 0x0 PUSH1 0x20 DUP1 DUP4 MSTORE PUSH1 0x0 DUP5 SLOAD DUP2 PUSH1 0x1 DUP3 DUP2 SHR SWAP2 POP DUP1 DUP4 AND DUP1 PUSH2 0x16A8 JUMPI PUSH1 0x7F DUP4 AND SWAP3 POP JUMPDEST DUP6 DUP4 LT DUP2 SUB PUSH2 0x16C5 JUMPI PUSH4 0x4E487B71 PUSH1 0xE0 SHL DUP6 MSTORE PUSH1 0x22 PUSH1 0x4 MSTORE PUSH1 0x24 DUP6 REVERT JUMPDEST DUP8 DUP7 ADD DUP4 DUP2 MSTORE PUSH1 0x20 ADD DUP2 DUP1 ISZERO PUSH2 0x16E2 JUMPI PUSH1 0x1 DUP2 EQ PUSH2 0x16F8 JUMPI PUSH2 0x1723 JUMP JUMPDEST PUSH1 0xFF NOT DUP7 AND DUP3 MSTORE DUP5 ISZERO ISZERO PUSH1 0x5 SHL DUP3 ADD SWAP7 POP PUSH2 0x1723 JUMP JUMPDEST PUSH1 0x0 DUP12 DUP2 MSTORE PUSH1 0x20 SWAP1 KECCAK256 PUSH1 0x0 JUMPDEST DUP7 DUP2 LT ISZERO PUSH2 0x171D JUMPI DUP2 SLOAD DUP5 DUP3 ADD MSTORE SWAP1 DUP6 ADD SWAP1 DUP10 ADD PUSH2 0x1704 JUMP JUMPDEST DUP4 ADD SWAP8 POP POP JUMPDEST POP SWAP5 SWAP10 SWAP9 POP POP POP POP POP POP POP POP POP JUMP JUMPDEST PUSH1 0x0 PUSH1 0x20 DUP3 DUP5 SUB SLT ISZERO PUSH2 0x1744 JUMPI PUSH1 0x0 DUP1 REVERT JUMPDEST POP MLOAD SWAP2 SWAP1 POP JUMP JUMPDEST PUSH1 0x20 DUP1 DUP3 MSTORE PUSH1 0xD SWAP1 DUP3 ADD MSTORE PUSH13 0x496E76616C6964207072696365 PUSH1 0x98 SHL PUSH1 0x40 DUP3 ADD MSTORE PUSH1 0x60 ADD SWAP1 JUMP JUMPDEST PUSH4 0x4E487B71 PUSH1 0xE0 SHL PUSH1 0x0 MSTORE PUSH1 0x11 PUSH1 0x4 MSTORE PUSH1 0x24 PUSH1 0x0 REVERT JUMPDEST DUP1 DUP3 MUL DUP2 ISZERO DUP3 DUP3 DIV DUP5 EQ OR PUSH2 0x145F JUMPI PUSH2 0x145F PUSH2 0x1772 JUMP JUMPDEST PUSH1 0x0 DUP3 PUSH2 0x17BC JUMPI PUSH4 0x4E487B71 PUSH1 0xE0 SHL PUSH1 0x0 MSTORE PUSH1 0x12 PUSH1 0x4 MSTORE PUSH1 0x24 PUSH1 0x0 REVERT JUMPDEST POP DIV SWAP1 JUMP JUMPDEST DUP1 DUP3 ADD DUP1 DUP3 GT ISZERO PUSH2 0x145F JUMPI PUSH2 0x145F PUSH2 0x1772 JUMP JUMPDEST PUSH1 0x0 PUSH1 0x1 PUSH1 0xFF SHL DUP3 ADD PUSH2 0x17E9 JUMPI PUSH2 0x17E9 PUSH2 0x1772 JUMP JUMPDEST POP PUSH1 0x0 SUB SWAP1 JUMP JUMPDEST DUP2 DUP2 SUB DUP2 DUP2 GT ISZERO PUSH2 0x145F JUMPI PUSH2 0x145F PUSH2 0x1772 JUMP JUMPDEST PUSH1 0x0 PUSH1 0x20 DUP3 DUP5 SUB SLT ISZERO PUSH2 0x1815 JUMPI PUSH1 0x0 DUP1 REVERT JUMPDEST DUP2 MLOAD PUSH2 0x15F7 DUP2 PUSH2 0x1584 JUMP INVALID LOG2 PUSH5 0x6970667358 0x22 SLT KECCAK256 0xDA NUMBER 0xB2 DUP7 MSIZE 0xB9 SLOAD ISZERO 0x21 SIGNEXTEND SWAP9 0x49 DELEGATECALL 0xA7 BALANCE POP JUMP 0x4B CODESIZE CALLER 0xB7 DELEGATECALL ISZERO LOG2 PC PUSH26 0x80C7F6E340F764736F6C63430008140033000000000000000000 "},"methodIdentifiers":{"LIQUIDATION_THRESHOLD()":"90a8ae9b","MAX_LEVERAGE()":"9b45ec97","PRECISION()":"aaf5eb68","closePosition()":"c393d0e3","collateralManager()":"23be345c","fundingInterval()":"9849e412","fundingRate()":"41d3c84c","lastFundingTime()":"321d7fa9","liquidatePosition(address)":"7498a0f0","liquidityPool()":"665a11ca","marketSymbol()":"dcdd079d","openInterestLong()":"310a2240","openInterestShort()":"794a9747","openPosition(uint256,uint256,bool)":"1558c966","oracle()":"7dc0d1d0","pauseTrading()":"1031e36e","positions(address)":"55f57510","resumeTrading()":"0694db1e","tradingEnabled()":"4ada218b","tradingFee()":"56f43352"}}}}}