{
  "_format": "hh-sol-artifact-1",
  "contractName": "PerpetualMarket",
  "sourceName": "contracts/PerpetualMarket.sol",
  "abi": [
    {
      "inputs": [
        {
          "internalType": "address",
          "name": "_oracle",
          "type": "address"
        },
        {
          "internalType": "address",
          "name": "_collateralManager",
          "type": "address"
        },
        {
          "internalType": "address",
          "name": "_liquidityPool",
          "type": "address"
        },
        {
          "internalType": "string",
          "name": "_marketSymbol",
          "type": "string"
        },
        {
          "internalType": "uint256",
          "name": "_fundingInterval",
          "type": "uint256"
        },
        {
          "internalType": "uint256",
          "name": "_tradingFee",
          "type": "uint256"
        }
      ],
      "stateMutability": "nonpayable",
      "type": "constructor"
    },
    {
      "anonymous": false,
      "inputs": [
        {
          "indexed": false,
          "internalType": "uint256",
          "name": "newFundingRate",
          "type": "uint256"
        }
      ],
      "name": "FundingRateUpdated",
      "type": "event"
    },
    {
      "anonymous": false,
      "inputs": [],
      "name": "MarketPaused",
      "type": "event"
    },
    {
      "anonymous": false,
      "inputs": [],
      "name": "MarketResumed",
      "type": "event"
    },
    {
      "anonymous": false,
      "inputs": [
        {
          "indexed": true,
          "internalType": "address",
          "name": "trader",
          "type": "address"
        },
        {
          "indexed": false,
          "internalType": "uint256",
          "name": "size",
          "type": "uint256"
        },
        {
          "indexed": false,
          "internalType": "uint256",
          "name": "margin",
          "type": "uint256"
        },
        {
          "indexed": false,
          "internalType": "bool",
          "name": "isLong",
          "type": "bool"
        },
        {
          "indexed": false,
          "internalType": "uint256",
          "name": "price",
          "type": "uint256"
        },
        {
          "indexed": false,
          "internalType": "int256",
          "name": "pnl",
          "type": "int256"
        }
      ],
      "name": "PositionClosed",
      "type": "event"
    },
    {
      "anonymous": false,
      "inputs": [
        {
          "indexed": true,
          "internalType": "address",
          "name": "trader",
          "type": "address"
        },
        {
          "indexed": false,
          "internalType": "uint256",
          "name": "size",
          "type": "uint256"
        },
        {
          "indexed": false,
          "internalType": "uint256",
          "name": "margin",
          "type": "uint256"
        },
        {
          "indexed": false,
          "internalType": "bool",
          "name": "isLong",
          "type": "bool"
        },
        {
          "indexed": false,
          "internalType": "uint256",
          "name": "price",
          "type": "uint256"
        }
      ],
      "name": "PositionLiquidated",
      "type": "event"
    },
    {
      "anonymous": false,
      "inputs": [
        {
          "indexed": true,
          "internalType": "address",
          "name": "trader",
          "type": "address"
        },
        {
          "indexed": false,
          "internalType": "uint256",
          "name": "size",
          "type": "uint256"
        },
        {
          "indexed": false,
          "internalType": "uint256",
          "name": "margin",
          "type": "uint256"
        },
        {
          "indexed": false,
          "internalType": "bool",
          "name": "isLong",
          "type": "bool"
        },
        {
          "indexed": false,
          "internalType": "uint256",
          "name": "price",
          "type": "uint256"
        }
      ],
      "name": "PositionOpened",
      "type": "event"
    },
    {
      "inputs": [],
      "name": "LIQUIDATION_THRESHOLD",
      "outputs": [
        {
          "internalType": "uint256",
          "name": "",
          "type": "uint256"
        }
      ],
      "stateMutability": "view",
      "type": "function"
    },
    {
      "inputs": [],
      "name": "MAX_LEVERAGE",
      "outputs": [
        {
          "internalType": "uint256",
          "name": "",
          "type": "uint256"
        }
      ],
      "stateMutability": "view",
      "type": "function"
    },
    {
      "inputs": [],
      "name": "PRECISION",
      "outputs": [
        {
          "internalType": "uint256",
          "name": "",
          "type": "uint256"
        }
      ],
      "stateMutability": "view",
      "type": "function"
    },
    {
      "inputs": [],
      "name": "closePosition",
      "outputs": [],
      "stateMutability": "nonpayable",
      "type": "function"
    },
    {
      "inputs": [],
      "name": "collateralManager",
      "outputs": [
        {
          "internalType": "contract ICollateralManager",
          "name": "",
          "type": "address"
        }
      ],
      "stateMutability": "view",
      "type": "function"
    },
    {
      "inputs": [],
      "name": "fundingInterval",
      "outputs": [
        {
          "internalType": "uint256",
          "name": "",
          "type": "uint256"
        }
      ],
      "stateMutability": "view",
      "type": "function"
    },
    {
      "inputs": [],
      "name": "fundingRate",
      "outputs": [
        {
          "internalType": "uint256",
          "name": "",
          "type": "uint256"
        }
      ],
      "stateMutability": "view",
      "type": "function"
    },
    {
      "inputs": [],
      "name": "lastFundingTime",
      "outputs": [
        {
          "internalType": "uint256",
          "name": "",
          "type": "uint256"
        }
      ],
      "stateMutability": "view",
      "type": "function"
    },
    {
      "inputs": [
        {
          "internalType": "address",
          "name": "_trader",
          "type": "address"
        }
      ],
      "name": "liquidatePosition",
      "outputs": [],
      "stateMutability": "nonpayable",
      "type": "function"
    },
    {
      "inputs": [],
      "name": "liquidityPool",
      "outputs": [
        {
          "internalType": "contract ILiquidityPool",
          "name": "",
          "type": "address"
        }
      ],
      "stateMutability": "view",
      "type": "function"
    },
    {
      "inputs": [],
      "name": "marketSymbol",
      "outputs": [
        {
          "internalType": "string",
          "name": "",
          "type": "string"
        }
      ],
      "stateMutability": "view",
      "type": "function"
    },
    {
      "inputs": [],
      "name": "openInterestLong",
      "outputs": [
        {
          "internalType": "uint256",
          "name": "",
          "type": "uint256"
        }
      ],
      "stateMutability": "view",
      "type": "function"
    },
    {
      "inputs": [],
      "name": "openInterestShort",
      "outputs": [
        {
          "internalType": "uint256",
          "name": "",
          "type": "uint256"
        }
      ],
      "stateMutability": "view",
      "type": "function"
    },
    {
      "inputs": [
        {
          "internalType": "uint256",
          "name": "_margin",
          "type": "uint256"
        },
        {
          "internalType": "uint256",
          "name": "_leverage",
          "type": "uint256"
        },
        {
          "internalType": "bool",
          "name": "_isLong",
          "type": "bool"
        }
      ],
      "name": "openPosition",
      "outputs": [],
      "stateMutability": "nonpayable",
      "type": "function"
    },
    {
      "inputs": [],
      "name": "oracle",
      "outputs": [
        {
          "internalType": "contract IPriceOracle",
          "name": "",
          "type": "address"
        }
      ],
      "stateMutability": "view",
      "type": "function"
    },
    {
      "inputs": [],
      "name": "pauseTrading",
      "outputs": [],
      "stateMutability": "nonpayable",
      "type": "function"
    },
    {
      "inputs": [
        {
          "internalType": "address",
          "name": "",
          "type": "address"
        }
      ],
      "name": "positions",
      "outputs": [
        {
          "internalType": "uint256",
          "name": "size",
          "type": "uint256"
        },
        {
          "internalType": "uint256",
          "name": "margin",
          "type": "uint256"
        },
        {
          "internalType": "uint256",
          "name": "entryPrice",
          "type": "uint256"
        },
        {
          "internalType": "bool",
          "name": "isLong",
          "type": "bool"
        },
        {
          "internalType": "uint256",
          "name": "lastFundingPayment",
          "type": "uint256"
        }
      ],
      "stateMutability": "view",
      "type": "function"
    },
    {
      "inputs": [],
      "name": "resumeTrading",
      "outputs": [],
      "stateMutability": "nonpayable",
      "type": "function"
    },
    {
      "inputs": [],
      "name": "tradingEnabled",
      "outputs": [
        {
          "internalType": "bool",
          "name": "",
          "type": "bool"
        }
      ],
      "stateMutability": "view",
      "type": "function"
    },
    {
      "inputs": [],
      "name": "tradingFee",
      "outputs": [
        {
          "internalType": "uint256",
          "name": "",
          "type": "uint256"
        }
      ],
      "stateMutability": "view",
      "type": "function"
    }
  ],
  "bytecode": "0x60806040523480156200001157600080fd5b5060405162001bb738038062001bb78339810160408190526200003491620000d7565b600080546001600160a01b038089166001600160a01b03199283161790925560018054888416908316179055600280549287169290911691909117905560096200007f848262000285565b50600891909155600b555050426007555050600a805460ff1916600117905562000351565b80516001600160a01b0381168114620000bc57600080fd5b919050565b634e487b7160e01b600052604160045260246000fd5b60008060008060008060c08789031215620000f157600080fd5b620000fc87620000a4565b955060206200010d818901620000a4565b95506200011d60408901620000a4565b60608901519095506001600160401b03808211156200013b57600080fd5b818a0191508a601f8301126200015057600080fd5b815181811115620001655762000165620000c1565b604051601f8201601f19908116603f01168101908382118183101715620001905762000190620000c1565b816040528281528d86848701011115620001a957600080fd5b600093505b82841015620001cd5784840186015181850187015292850192620001ae565b60008684830101528098505050505050506080870151915060a087015190509295509295509295565b600181811c908216806200020b57607f821691505b6020821081036200022c57634e487b7160e01b600052602260045260246000fd5b50919050565b601f8211156200028057600081815260208120601f850160051c810160208610156200025b5750805b601f850160051c820191505b818110156200027c5782815560010162000267565b5050505b505050565b81516001600160401b03811115620002a157620002a1620000c1565b620002b981620002b28454620001f6565b8462000232565b602080601f831160018114620002f15760008415620002d85750858301515b600019600386901b1c1916600185901b1785556200027c565b600085815260208120601f198616915b82811015620003225788860151825594840194600190910190840162000301565b5085821015620003415787850151600019600388901b60f8161c191681555b5050505050600190811b01905550565b61185680620003616000396000f3fe608060405234801561001057600080fd5b506004361061012c5760003560e01c8063665a11ca116100ad5780639849e412116100715780639849e4121461028d5780639b45ec9714610296578063aaf5eb681461029e578063c393d0e3146102ad578063dcdd079d146102b557600080fd5b8063665a11ca146102435780637498a0f014610256578063794a9747146102695780637dc0d1d01461027257806390a8ae9b1461028557600080fd5b8063321d7fa9116100f4578063321d7fa91461019d57806341d3c84c146101a65780634ada218b146101af57806355f57510146101cc57806356f433521461023a57600080fd5b80630694db1e146101315780631031e36e1461013b5780631558c9661461014357806323be345c14610156578063310a224014610186575b600080fd5b6101396102ca565b005b610139610302565b610139610151366004611595565b610337565b600154610169906001600160a01b031681565b6040516001600160a01b0390911681526020015b60405180910390f35b61018f60045481565b60405190815260200161017d565b61018f60075481565b61018f60065481565b600a546101bc9060ff1681565b604051901515815260200161017d565b6102106101da3660046115ce565b60036020819052600091825260409091208054600182015460028301549383015460049093015491939092909160ff9091169085565b6040805195865260208601949094529284019190915215156060830152608082015260a00161017d565b61018f600b5481565b600254610169906001600160a01b031681565b6101396102643660046115ce565b610847565b61018f60055481565b600054610169906001600160a01b031681565b61018f605081565b61018f60085481565b61018f601481565b61018f670de0b6b3a764000081565b610139610dc6565b6102bd611311565b60405161017d91906115fe565b600a805460ff191660011790556040517fd1f57e4ea31dbdc1e20bfa1e1bd3b7165389e65ec7f9c6fc5ba0b1d55e61fcd090600090a1565b600a805460ff191690556040517f54882d18a6359e96e87b8aaeffe9f2fa9548a1dc5b62f8d0010e5554e6c7771d90600090a1565b600a5460ff1661038e5760405162461bcd60e51b815260206004820152601d60248201527f54726164696e672069732063757272656e746c792064697361626c656400000060448201526064015b60405180910390fd5b60008211801561039f575060148211155b6103de5760405162461bcd60e51b815260206004820152601060248201526f496e76616c6964206c6576657261676560801b6044820152606401610385565b6000831161042e5760405162461bcd60e51b815260206004820152601d60248201527f4d617267696e206d7573742062652067726561746572207468616e20300000006044820152606401610385565b336000908152600360205260409020541561048b5760405162461bcd60e51b815260206004820152601760248201527f506f736974696f6e20616c7265616479206578697374730000000000000000006044820152606401610385565b6000805460405163524f388960e01b81526001600160a01b039091169063524f3889906104bd90600990600401611686565b602060405180830381865afa1580156104da573d6000803e3d6000fd5b505050506040513d601f19601f820116820180604052508101906104fe9190611732565b9050600081116105205760405162461bcd60e51b81526004016103859061174b565b600061052c8486611788565b90506000670de0b6b3a7640000600b54836105479190611788565b610551919061179f565b6001546040516347a7d10760e01b8152336004820152602481018990529192506001600160a01b0316906347a7d10790604401600060405180830381600087803b15801561059e57600080fd5b505af11580156105b2573d6000803e3d6000fd5b50505050600081111561061e5760025460405163b17acdcd60e01b8152600481018390526001600160a01b039091169063b17acdcd90602401600060405180830381600087803b15801561060557600080fd5b505af1158015610619573d6000803e3d6000fd5b505050505b6040805160a081018252838152602080820189815282840187815288158015606086019081524260808701908152336000908152600396879052979097209551865592516001860155905160028501559051918301805460ff19169215159290921790915591516004909101556106ac5781600460008282546106a191906117c1565b909155506106c49050565b81600560008282546106be91906117c1565b90915550505b60006005546004546106d691906117c1565b90506000600260009054906101000a90046001600160a01b03166001600160a01b03166315770f926040518163ffffffff1660e01b8152600401602060405180830381865afa15801561072d573d6000803e3d6000fd5b505050506040513d601f19601f820116820180604052508101906107519190611732565b9050600080821161076357600061078a565b61076e826002611788565b610780670de0b6b3a764000085611788565b61078a919061179f565b600254604051635c0f8f0160e01b8152600481018390529192506001600160a01b031690635c0f8f0190602401600060405180830381600087803b1580156107d157600080fd5b505af11580156107e5573d6000803e3d6000fd5b505050506107f161139f565b60408051868152602081018b90528815158183015260608101889052905133917fcd994640f2c49b14feb3faffeeb78367dd4be7f01b02e885e5c905ef46a535af919081900360800190a2505050505050505050565b6001600160a01b038116600090815260036020818152604092839020835160a08101855281548082526001830154938201939093526002820154948101949094529182015460ff161515606084015260049091015460808301526108e25760405162461bcd60e51b81526020600482015260126024820152714e6f20706f736974696f6e2065786973747360701b6044820152606401610385565b6000805460405163524f388960e01b81526001600160a01b039091169063524f38899061091490600990600401611686565b602060405180830381865afa158015610931573d6000803e3d6000fd5b505050506040513d601f19601f820116820180604052508101906109559190611732565b9050600081116109775760405162461bcd60e51b81526004016103859061174b565b600061098383836113bf565b905060008082126109985783602001516109ca565b6109a1826117d4565b8460200151116109b25760006109ca565b6109bb826117d4565b84602001516109ca91906117f0565b84519091506000906109dd836064611788565b6109e7919061179f565b905060508110610a395760405162461bcd60e51b815260206004820152601960248201527f506f736974696f6e206e6f74206c6971756964617461626c65000000000000006044820152606401610385565b846060015115610a6257845160048054600090610a579084906117f0565b90915550610a7c9050565b845160058054600090610a769084906117f0565b90915550505b8451600090610a8d9060649061179f565b90508560200151811115610aa2575060208501515b60008085128015610abe57506020870151610abc866117d4565b115b610ac9576000610ae1565b6020870151610ad7866117d4565b610ae191906117f0565b90508015610b5a5760025460405163a50e6fc960e01b8152600481018390526001600160a01b039091169063a50e6fc9906024016020604051808303816000875af1158015610b34573d6000803e3d6000fd5b505050506040513d601f19601f82011682018060405250810190610b589190611803565b505b602087015182811115610be2576001546001600160a01b031663bd6f2c528a610b8386856117f0565b6040516001600160e01b031960e085901b1681526001600160a01b0390921660048301526024820152604401600060405180830381600087803b158015610bc957600080fd5b505af1158015610bdd573d6000803e3d6000fd5b505050505b6000600554600454610bf491906117c1565b90506000600260009054906101000a90046001600160a01b03166001600160a01b03166315770f926040518163ffffffff1660e01b8152600401602060405180830381865afa158015610c4b573d6000803e3d6000fd5b505050506040513d601f19601f82011682018060405250810190610c6f9190611732565b905060008082118015610c825750600083115b610c8d576000610cb4565b610c98826002611788565b610caa670de0b6b3a764000085611788565b610cb4919061179f565b600254604051635c0f8f0160e01b8152600481018390529192506001600160a01b031690635c0f8f0190602401600060405180830381600087803b158015610cfb57600080fd5b505af1158015610d0f573d6000803e3d6000fd5b505050508b6001600160a01b03167fd53d819123736d03ecf50a5157bdb1eb07eec9394e022f7e466550828b4b77a28c600001518d602001518e606001518e604051610d769493929190938452602084019290925215156040830152606082015260800190565b60405180910390a25050506001600160a01b03909816600090815260036020819052604082208281556001810183905560028101839055908101805460ff19169055600401555050505050505050565b33600090815260036020526040902054610e175760405162461bcd60e51b81526020600482015260126024820152714e6f20706f736974696f6e2065786973747360701b6044820152606401610385565b336000908152600360208181526040808420815160a081018352815481526001820154938101939093526002810154838301529283015460ff161515606083015260049283015460808301528354905163524f388960e01b81529193926001600160a01b039091169163524f388991610e939160099101611686565b602060405180830381865afa158015610eb0573d6000803e3d6000fd5b505050506040513d601f19601f82011682018060405250810190610ed49190611732565b905060008111610ef65760405162461bcd60e51b81526004016103859061174b565b6000610f0283836113bf565b9050610f0c61139f565b826060015115610f3557825160048054600090610f2a9084906117f0565b90915550610f4f9050565b825160058054600090610f499084906117f0565b90915550505b6000670de0b6b3a7640000600b548560000151610f6c9190611788565b610f76919061179f565b90508015610fdd5760025460405163b17acdcd60e01b8152600481018390526001600160a01b039091169063b17acdcd90602401600060405180830381600087803b158015610fc457600080fd5b505af1158015610fd8573d6000803e3d6000fd5b505050505b60008212611082576000828560200151610ff791906117c1565b90508181111561107c576001546001600160a01b031663bd6f2c523361101d85856117f0565b6040516001600160e01b031960e085901b1681526001600160a01b0390921660048301526024820152604401600060405180830381600087803b15801561106357600080fd5b505af1158015611077573d6000803e3d6000fd5b505050505b5061113d565b600061108d836117d4565b85602001511161109e5760006110b6565b6110a7836117d4565b85602001516110b691906117f0565b90508181111561113b576001546001600160a01b031663bd6f2c52336110dc85856117f0565b6040516001600160e01b031960e085901b1681526001600160a01b0390921660048301526024820152604401600060405180830381600087803b15801561112257600080fd5b505af1158015611136573d6000803e3d6000fd5b505050505b505b600060055460045461114f91906117c1565b90506000600260009054906101000a90046001600160a01b03166001600160a01b03166315770f926040518163ffffffff1660e01b8152600401602060405180830381865afa1580156111a6573d6000803e3d6000fd5b505050506040513d601f19601f820116820180604052508101906111ca9190611732565b9050600080821180156111dd5750600083115b6111e857600061120f565b6111f3826002611788565b611205670de0b6b3a764000085611788565b61120f919061179f565b600254604051635c0f8f0160e01b8152600481018390529192506001600160a01b031690635c0f8f0190602401600060405180830381600087803b15801561125657600080fd5b505af115801561126a573d6000803e3d6000fd5b5050885160208a015160608b01516040513395507fcab106ae09bd9cbca858ce88089abda79f874f5e57bbc3f3aff1facd8acbfb0194506112cf939291908c908c90948552602085019390935290151560408401526060830152608082015260a00190565b60405180910390a2505033600090815260036020819052604082208281556001810183905560028101839055908101805460ff19169055600401555050505050565b6009805461131e9061164c565b80601f016020809104026020016040519081016040528092919081815260200182805461134a9061164c565b80156113975780601f1061136c57610100808354040283529160200191611397565b820191906000526020600020905b81548152906001019060200180831161137a57829003601f168201915b505050505081565b6008546007546113af91906117c1565b42106113bd576113bd611465565b565b600082606001511561143157826040015182111561140357604083015183516113e882856117f0565b6113f29190611788565b6113fc919061179f565b905061145f565b6040830151835161141484836117f0565b61141e9190611788565b611428919061179f565b6113fc906117d4565b818360400151111561144e57604083015183516113e884836117f0565b6040830151835161141482856117f0565b92915050565b6004541580156114755750600554155b15611484576000600655611548565b600060055460045411156114d6576005546004546114a291906117c1565b670de0b6b3a76400006005546004546114bb91906117f0565b6114c59190611788565b6114cf919061179f565b905061151f565b6005546004546114e691906117c1565b670de0b6b3a76400006004546005546114ff91906117f0565b6115099190611788565b611513919061179f565b61151c906117d4565b90505b60646000821361153757611532826117d4565b611539565b815b611543919061179f565b600655505b426007556006546040519081527f54b4f3d4a67cc5da94aefdc1f13908a295dc0ba318e23f92e728131ed95d27c59060200160405180910390a1565b801515811461159257600080fd5b50565b6000806000606084860312156115aa57600080fd5b833592506020840135915060408401356115c381611584565b809150509250925092565b6000602082840312156115e057600080fd5b81356001600160a01b03811681146115f757600080fd5b9392505050565b600060208083528351808285015260005b8181101561162b5785810183015185820160400152820161160f565b506000604082860101526040601f19601f8301168501019250505092915050565b600181811c9082168061166057607f821691505b60208210810361168057634e487b7160e01b600052602260045260246000fd5b50919050565b600060208083526000845481600182811c9150808316806116a857607f831692505b85831081036116c557634e487b7160e01b85526022600452602485fd5b8786018381526020018180156116e257600181146116f857611723565b60ff198616825284151560051b82019650611723565b60008b81526020902060005b8681101561171d57815484820152908501908901611704565b83019750505b50949998505050505050505050565b60006020828403121561174457600080fd5b5051919050565b6020808252600d908201526c496e76616c696420707269636560981b604082015260600190565b634e487b7160e01b600052601160045260246000fd5b808202811582820484141761145f5761145f611772565b6000826117bc57634e487b7160e01b600052601260045260246000fd5b500490565b8082018082111561145f5761145f611772565b6000600160ff1b82016117e9576117e9611772565b5060000390565b8181038181111561145f5761145f611772565b60006020828403121561181557600080fd5b81516115f78161158456fea2646970667358221220da43b28659b95415210b9849f4a73150564b3833b7f415a2587980c7f6e340f764736f6c63430008140033",
  "linkReferences": {},
  "deployedLinkReferences": {}
}