{
  "_format": "hh-sol-artifact-1",
  "contractName": "MockCollateralManager",
  "sourceName": "contracts/mocks/MockCollateralManager.sol",
  "abi": [
    {
      "inputs": [
        {
          "internalType": "address",
          "name": "_collateralToken",
          "type": "address"
        }
      ],
      "stateMutability": "nonpayable",
      "type": "constructor"
    },
    {
      "anonymous": false,
      "inputs": [
        {
          "indexed": true,
          "internalType": "address",
          "name": "user",
          "type": "address"
        },
        {
          "indexed": false,
          "internalType": "uint256",
          "name": "amount",
          "type": "uint256"
        }
      ],
      "name": "CollateralDeposited",
      "type": "event"
    },
    {
      "anonymous": false,
      "inputs": [
        {
          "indexed": true,
          "internalType": "address",
          "name": "user",
          "type": "address"
        },
        {
          "indexed": false,
          "internalType": "uint256",
          "name": "amount",
          "type": "uint256"
        }
      ],
      "name": "CollateralLocked",
      "type": "event"
    },
    {
      "anonymous": false,
      "inputs": [
        {
          "indexed": true,
          "internalType": "address",
          "name": "user",
          "type": "address"
        },
        {
          "indexed": false,
          "internalType": "uint256",
          "name": "amount",
          "type": "uint256"
        }
      ],
      "name": "CollateralReleased",
      "type": "event"
    },
    {
      "anonymous": false,
      "inputs": [
        {
          "indexed": true,
          "internalType": "address",
          "name": "user",
          "type": "address"
        },
        {
          "indexed": false,
          "internalType": "uint256",
          "name": "amount",
          "type": "uint256"
        }
      ],
      "name": "CollateralWithdrawn",
      "type": "event"
    },
    {
      "anonymous": false,
      "inputs": [
        {
          "indexed": true,
          "internalType": "address",
          "name": "market",
          "type": "address"
        }
      ],
      "name": "MarketAuthorized",
      "type": "event"
    },
    {
      "anonymous": false,
      "inputs": [
        {
          "indexed": true,
          "internalType": "address",
          "name": "market",
          "type": "address"
        }
      ],
      "name": "MarketDeauthorized",
      "type": "event"
    },
    {
      "inputs": [
        {
          "internalType": "address",
          "name": "_market",
          "type": "address"
        }
      ],
      "name": "authorizeMarket",
      "outputs": [],
      "stateMutability": "nonpayable",
      "type": "function"
    },
    {
      "inputs": [
        {
          "internalType": "address",
          "name": "",
          "type": "address"
        }
      ],
      "name": "authorizedMarkets",
      "outputs": [
        {
          "internalType": "bool",
          "name": "",
          "type": "bool"
        }
      ],
      "stateMutability": "view",
      "type": "function"
    },
    {
      "inputs": [],
      "name": "collateralToken",
      "outputs": [
        {
          "internalType": "contract IERC20",
          "name": "",
          "type": "address"
        }
      ],
      "stateMutability": "view",
      "type": "function"
    },
    {
      "inputs": [
        {
          "internalType": "address",
          "name": "_market",
          "type": "address"
        }
      ],
      "name": "deauthorizeMarket",
      "outputs": [],
      "stateMutability": "nonpayable",
      "type": "function"
    },
    {
      "inputs": [
        {
          "internalType": "uint256",
          "name": "_amount",
          "type": "uint256"
        }
      ],
      "name": "depositCollateral",
      "outputs": [],
      "stateMutability": "nonpayable",
      "type": "function"
    },
    {
      "inputs": [
        {
          "internalType": "address",
          "name": "_user",
          "type": "address"
        }
      ],
      "name": "getAvailableCollateral",
      "outputs": [
        {
          "internalType": "uint256",
          "name": "",
          "type": "uint256"
        }
      ],
      "stateMutability": "view",
      "type": "function"
    },
    {
      "inputs": [
        {
          "internalType": "address",
          "name": "_user",
          "type": "address"
        },
        {
          "internalType": "uint256",
          "name": "_amount",
          "type": "uint256"
        }
      ],
      "name": "lockCollateral",
      "outputs": [],
      "stateMutability": "nonpayable",
      "type": "function"
    },
    {
      "inputs": [
        {
          "internalType": "address",
          "name": "",
          "type": "address"
        }
      ],
      "name": "lockedCollateral",
      "outputs": [
        {
          "internalType": "uint256",
          "name": "",
          "type": "uint256"
        }
      ],
      "stateMutability": "view",
      "type": "function"
    },
    {
      "inputs": [
        {
          "internalType": "address",
          "name": "_user",
          "type": "address"
        },
        {
          "internalType": "uint256",
          "name": "_amount",
          "type": "uint256"
        }
      ],
      "name": "releaseCollateral",
      "outputs": [],
      "stateMutability": "nonpayable",
      "type": "function"
    },
    {
      "inputs": [
        {
          "internalType": "address",
          "name": "",
          "type": "address"
        }
      ],
      "name": "userBalance",
      "outputs": [
        {
          "internalType": "uint256",
          "name": "",
          "type": "uint256"
        }
      ],
      "stateMutability": "view",
      "type": "function"
    },
    {
      "inputs": [
        {
          "internalType": "uint256",
          "name": "_amount",
          "type": "uint256"
        }
      ],
      "name": "withdrawCollateral",
      "outputs": [],
      "stateMutability": "nonpayable",
      "type": "function"
    }
  ],
  "bytecode": "0x608060405234801561001057600080fd5b5060405161098038038061098083398101604081905261002f91610054565b600080546001600160a01b0319166001600160a01b0392909216919091179055610084565b60006020828403121561006657600080fd5b81516001600160a01b038116811461007d57600080fd5b9392505050565b6108ed806100936000396000f3fe608060405234801561001057600080fd5b50600436106100a95760003560e01c8063b2016bd411610071578063b2016bd41461015c578063bad4a01f14610187578063bb69bc711461019a578063bd6f2c52146101ad578063f2862e67146101c0578063fa26958c146101d357600080fd5b80630103c92b146100ae5780634299b8a2146100e157806347a7d107146101145780636112fe2e1461012957806392bdf9ba1461013c575b600080fd5b6100ce6100bc36600461077c565b60016020526000908152604090205481565b6040519081526020015b60405180910390f35b6101046100ef36600461077c565b60036020526000908152604090205460ff1681565b60405190151581526020016100d8565b61012761012236600461079e565b6101e6565b005b6101276101373660046107c8565b6102cf565b6100ce61014a36600461077c565b60026020526000908152604090205481565b60005461016f906001600160a01b031681565b6040516001600160a01b0390911681526020016100d8565b6101276101953660046107c8565b610460565b6100ce6101a836600461077c565b610558565b6101276101bb36600461079e565b61058c565b6101276101ce36600461077c565b61067c565b6101276101e136600461077c565b610717565b6000811161020f5760405162461bcd60e51b8152600401610206906107e1565b60405180910390fd5b6001600160a01b038216600090815260026020908152604080832054600190925282205461023d919061082e565b90508181101561025f5760405162461bcd60e51b815260040161020690610841565b6001600160a01b03831660009081526002602052604081208054849290610287908490610882565b90915550506040518281526001600160a01b038416907f2251f6a4ed7fe619e9e8ce557d05a63dd484284f9c95c9ab334f6a7707cd08009060200160405180910390a2505050565b600081116102ef5760405162461bcd60e51b8152600401610206906107e1565b336000908152600160205260409020548111156103455760405162461bcd60e51b8152602060048201526014602482015273496e73756666696369656e742062616c616e636560601b6044820152606401610206565b33600090815260026020908152604080832054600190925282205461036a919061082e565b90508181101561038c5760405162461bcd60e51b815260040161020690610841565b33600090815260016020526040812080548492906103ab90849061082e565b909155505060005460405163a9059cbb60e01b8152336004820152602481018490526001600160a01b039091169063a9059cbb906044016020604051808303816000875af1158015610401573d6000803e3d6000fd5b505050506040513d601f19601f820116820180604052508101906104259190610895565b5060405182815233907fc30fcfbcaac9e0deffa719714eaa82396ff506a0d0d0eebe170830177288715d906020015b60405180910390a25050565b600081116104805760405162461bcd60e51b8152600401610206906107e1565b6000546040516323b872dd60e01b8152336004820152306024820152604481018390526001600160a01b03909116906323b872dd906064016020604051808303816000875af11580156104d7573d6000803e3d6000fd5b505050506040513d601f19601f820116820180604052508101906104fb9190610895565b50336000908152600160205260408120805483929061051b908490610882565b909155505060405181815233907fd7243f6f8212d5188fd054141cf6ea89cfc0d91facb8c3afe2f88a13584801429060200160405180910390a250565b6001600160a01b0381166000908152600260209081526040808320546001909252822054610586919061082e565b92915050565b600081116105ac5760405162461bcd60e51b8152600401610206906107e1565b6001600160a01b0382166000908152600260205260409020548111156106145760405162461bcd60e51b815260206004820152601e60248201527f496e73756666696369656e74206c6f636b656420636f6c6c61746572616c00006044820152606401610206565b6001600160a01b0382166000908152600260205260408120805483929061063c90849061082e565b90915550506040518181526001600160a01b038316907f15192ee5c95e01de0681c61d6cbfa4b8d1e4c160294017332eb7d6e5c4ea38b790602001610454565b6001600160a01b0381166106cb5760405162461bcd60e51b8152602060048201526016602482015275496e76616c6964206d61726b6574206164647265737360501b6044820152606401610206565b6001600160a01b038116600081815260036020526040808220805460ff19166001179055517fff192fe3e3e847428def87bbc2d04aa27048f6669caf7380828f868acd86bbfa9190a250565b6001600160a01b038116600081815260036020526040808220805460ff19169055517f014dad1a8290ff4fc1990d6ffdfce4ef09f541b4e8e02abce86c42d4c310d0569190a250565b80356001600160a01b038116811461077757600080fd5b919050565b60006020828403121561078e57600080fd5b61079782610760565b9392505050565b600080604083850312156107b157600080fd5b6107ba83610760565b946020939093013593505050565b6000602082840312156107da57600080fd5b5035919050565b6020808252601d908201527f416d6f756e74206d7573742062652067726561746572207468616e2030000000604082015260600190565b634e487b7160e01b600052601160045260246000fd5b8181038181111561058657610586610818565b60208082526021908201527f496e73756666696369656e7420617661696c61626c6520636f6c6c61746572616040820152601b60fa1b606082015260800190565b8082018082111561058657610586610818565b6000602082840312156108a757600080fd5b8151801515811461079757600080fdfea264697066735822122056dcd7c182ee9d1ec9213009c8795c3fcadfc52c413e0ae937c4e05ba34234e264736f6c63430008140033",
  "linkReferences": {},
  "deployedLinkReferences": {}
}