{
  "_format": "hh-sol-artifact-1",
  "contractName": "LiquidityPool",
  "sourceName": "contracts/LiquidityPool.sol",
  "abi": [
    {
      "inputs": [
        {
          "internalType": "address",
          "name": "_collateralToken",
          "type": "address"
        },
        {
          "internalType": "address",
          "name": "_priceOracle",
          "type": "address"
        }
      ],
      "stateMutability": "nonpayable",
      "type": "constructor"
    },
    {
      "inputs": [
        {
          "internalType": "address",
          "name": "owner",
          "type": "address"
        }
      ],
      "name": "OwnableInvalidOwner",
      "type": "error"
    },
    {
      "inputs": [
        {
          "internalType": "address",
          "name": "account",
          "type": "address"
        }
      ],
      "name": "OwnableUnauthorizedAccount",
      "type": "error"
    },
    {
      "inputs": [],
      "name": "ReentrancyGuardReentrantCall",
      "type": "error"
    },
    {
      "inputs": [
        {
          "internalType": "address",
          "name": "token",
          "type": "address"
        }
      ],
      "name": "SafeERC20FailedOperation",
      "type": "error"
    },
    {
      "anonymous": false,
      "inputs": [
        {
          "indexed": false,
          "internalType": "uint256",
          "name": "amount",
          "type": "uint256"
        },
        {
          "indexed": false,
          "internalType": "uint256",
          "name": "insuranceAmount",
          "type": "uint256"
        }
      ],
      "name": "FeeCollected",
      "type": "event"
    },
    {
      "anonymous": false,
      "inputs": [
        {
          "indexed": false,
          "internalType": "uint256",
          "name": "newRate",
          "type": "uint256"
        }
      ],
      "name": "FeeRateUpdated",
      "type": "event"
    },
    {
      "anonymous": false,
      "inputs": [
        {
          "indexed": false,
          "internalType": "uint256",
          "name": "newRate",
          "type": "uint256"
        }
      ],
      "name": "InsuranceFundRateUpdated",
      "type": "event"
    },
    {
      "anonymous": false,
      "inputs": [
        {
          "indexed": true,
          "internalType": "address",
          "name": "provider",
          "type": "address"
        },
        {
          "indexed": false,
          "internalType": "uint256",
          "name": "amount",
          "type": "uint256"
        },
        {
          "indexed": false,
          "internalType": "uint256",
          "name": "sharePercentage",
          "type": "uint256"
        }
      ],
      "name": "LiquidityAdded",
      "type": "event"
    },
    {
      "anonymous": false,
      "inputs": [
        {
          "indexed": true,
          "internalType": "address",
          "name": "provider",
          "type": "address"
        },
        {
          "indexed": false,
          "internalType": "uint256",
          "name": "amount",
          "type": "uint256"
        }
      ],
      "name": "LiquidityRemoved",
      "type": "event"
    },
    {
      "anonymous": false,
      "inputs": [
        {
          "indexed": true,
          "internalType": "address",
          "name": "previousOwner",
          "type": "address"
        },
        {
          "indexed": true,
          "internalType": "address",
          "name": "newOwner",
          "type": "address"
        }
      ],
      "name": "OwnershipTransferred",
      "type": "event"
    },
    {
      "anonymous": false,
      "inputs": [
        {
          "indexed": true,
          "internalType": "address",
          "name": "provider",
          "type": "address"
        },
        {
          "indexed": false,
          "internalType": "uint256",
          "name": "amount",
          "type": "uint256"
        }
      ],
      "name": "RewardPaid",
      "type": "event"
    },
    {
      "anonymous": false,
      "inputs": [
        {
          "indexed": false,
          "internalType": "uint256",
          "name": "newRate",
          "type": "uint256"
        }
      ],
      "name": "UtilizationRateUpdated",
      "type": "event"
    },
    {
      "inputs": [],
      "name": "PRECISION",
      "outputs": [
        {
          "internalType": "uint256",
          "name": "",
          "type": "uint256"
        }
      ],
      "stateMutability": "view",
      "type": "function"
    },
    {
      "inputs": [
        {
          "internalType": "uint256",
          "name": "_amount",
          "type": "uint256"
        }
      ],
      "name": "addLiquidity",
      "outputs": [],
      "stateMutability": "nonpayable",
      "type": "function"
    },
    {
      "inputs": [],
      "name": "claimRewards",
      "outputs": [],
      "stateMutability": "nonpayable",
      "type": "function"
    },
    {
      "inputs": [],
      "name": "collateralToken",
      "outputs": [
        {
          "internalType": "contract IERC20",
          "name": "",
          "type": "address"
        }
      ],
      "stateMutability": "view",
      "type": "function"
    },
    {
      "inputs": [
        {
          "internalType": "uint256",
          "name": "_amount",
          "type": "uint256"
        }
      ],
      "name": "collectFees",
      "outputs": [],
      "stateMutability": "nonpayable",
      "type": "function"
    },
    {
      "inputs": [],
      "name": "feeRate",
      "outputs": [
        {
          "internalType": "uint256",
          "name": "",
          "type": "uint256"
        }
      ],
      "stateMutability": "view",
      "type": "function"
    },
    {
      "inputs": [
        {
          "internalType": "address",
          "name": "_provider",
          "type": "address"
        }
      ],
      "name": "getProviderInfo",
      "outputs": [
        {
          "internalType": "uint256",
          "name": "amount",
          "type": "uint256"
        },
        {
          "internalType": "uint256",
          "name": "sharePercentage",
          "type": "uint256"
        },
        {
          "internalType": "uint256",
          "name": "rewardsAccrued",
          "type": "uint256"
        }
      ],
      "stateMutability": "view",
      "type": "function"
    },
    {
      "inputs": [],
      "name": "insuranceFund",
      "outputs": [
        {
          "internalType": "uint256",
          "name": "",
          "type": "uint256"
        }
      ],
      "stateMutability": "view",
      "type": "function"
    },
    {
      "inputs": [],
      "name": "insuranceFundRate",
      "outputs": [
        {
          "internalType": "uint256",
          "name": "",
          "type": "uint256"
        }
      ],
      "stateMutability": "view",
      "type": "function"
    },
    {
      "inputs": [
        {
          "internalType": "address",
          "name": "",
          "type": "address"
        }
      ],
      "name": "liquidityProviders",
      "outputs": [
        {
          "internalType": "uint256",
          "name": "amount",
          "type": "uint256"
        },
        {
          "internalType": "uint256",
          "name": "sharePercentage",
          "type": "uint256"
        },
        {
          "internalType": "uint256",
          "name": "lastRewardTimestamp",
          "type": "uint256"
        },
        {
          "internalType": "uint256",
          "name": "rewardsAccrued",
          "type": "uint256"
        }
      ],
      "stateMutability": "view",
      "type": "function"
    },
    {
      "inputs": [],
      "name": "owner",
      "outputs": [
        {
          "internalType": "address",
          "name": "",
          "type": "address"
        }
      ],
      "stateMutability": "view",
      "type": "function"
    },
    {
      "inputs": [],
      "name": "priceOracle",
      "outputs": [
        {
          "internalType": "contract IPriceOracle",
          "name": "",
          "type": "address"
        }
      ],
      "stateMutability": "view",
      "type": "function"
    },
    {
      "inputs": [
        {
          "internalType": "uint256",
          "name": "",
          "type": "uint256"
        }
      ],
      "name": "providerAddresses",
      "outputs": [
        {
          "internalType": "address",
          "name": "",
          "type": "address"
        }
      ],
      "stateMutability": "view",
      "type": "function"
    },
    {
      "inputs": [
        {
          "internalType": "uint256",
          "name": "_amount",
          "type": "uint256"
        }
      ],
      "name": "removeLiquidity",
      "outputs": [],
      "stateMutability": "nonpayable",
      "type": "function"
    },
    {
      "inputs": [],
      "name": "renounceOwnership",
      "outputs": [],
      "stateMutability": "nonpayable",
      "type": "function"
    },
    {
      "inputs": [],
      "name": "totalLiquidity",
      "outputs": [
        {
          "internalType": "uint256",
          "name": "",
          "type": "uint256"
        }
      ],
      "stateMutability": "view",
      "type": "function"
    },
    {
      "inputs": [
        {
          "internalType": "address",
          "name": "newOwner",
          "type": "address"
        }
      ],
      "name": "transferOwnership",
      "outputs": [],
      "stateMutability": "nonpayable",
      "type": "function"
    },
    {
      "inputs": [
        {
          "internalType": "uint256",
          "name": "_newRate",
          "type": "uint256"
        }
      ],
      "name": "updateFeeRate",
      "outputs": [],
      "stateMutability": "nonpayable",
      "type": "function"
    },
    {
      "inputs": [
        {
          "internalType": "uint256",
          "name": "_newRate",
          "type": "uint256"
        }
      ],
      "name": "updateInsuranceFundRate",
      "outputs": [],
      "stateMutability": "nonpayable",
      "type": "function"
    },
    {
      "inputs": [
        {
          "internalType": "uint256",
          "name": "_newRate",
          "type": "uint256"
        }
      ],
      "name": "updateUtilizationRate",
      "outputs": [],
      "stateMutability": "nonpayable",
      "type": "function"
    },
    {
      "inputs": [
        {
          "internalType": "uint256",
          "name": "_amount",
          "type": "uint256"
        }
      ],
      "name": "useInsuranceFund",
      "outputs": [
        {
          "internalType": "bool",
          "name": "",
          "type": "bool"
        }
      ],
      "stateMutability": "nonpayable",
      "type": "function"
    },
    {
      "inputs": [],
      "name": "utilizationRate",
      "outputs": [
        {
          "internalType": "uint256",
          "name": "",
          "type": "uint256"
        }
      ],
      "stateMutability": "view",
      "type": "function"
    }
  ],
  "bytecode": "0x60806040526611c37937e08000600655662386f26fc1000060075534801561002657600080fd5b506040516111e23803806111e283398101604081905261004591610116565b338061006b57604051631e4fbdf760e01b81526000600482015260240160405180910390fd5b610074816100aa565b5060018055600280546001600160a01b039384166001600160a01b03199182161790915560038054929093169116179055610149565b600080546001600160a01b038381166001600160a01b0319831681178455604051919092169283917f8be0079c531659141344cd1fd0a4f28419497f9722a3daafe3b4186f6b6457e09190a35050565b80516001600160a01b038116811461011157600080fd5b919050565b6000806040838503121561012957600080fd5b610132836100fa565b9150610140602084016100fa565b90509250929050565b61108a806101586000396000f3fe608060405234801561001057600080fd5b50600436106101425760003560e01c80637b84fda5116100b8578063aaf5eb681161007c578063aaf5eb68146102de578063b17acdcd146102ed578063b2016bd414610300578063b790230314610313578063dbd942671461031c578063f2fde38b1461037157600080fd5b80637b84fda51461027b5780638da5cb5b1461028e578063978bbdb91461029f5780639c8f9f23146102a8578063a50e6fc9146102bb57600080fd5b80635f8c4aff1161010a5780635f8c4aff146101be578063618dd9a8146101d15780636214b86a146101e45780636c321c8a146101ed578063715018a6146101f65780637583902f146101fe57600080fd5b806315770f92146101475780632630c12f14610163578063372500ab1461018e57806351c6590a146101985780635c0f8f01146101ab575b600080fd5b61015060045481565b6040519081526020015b60405180910390f35b600354610176906001600160a01b031681565b6040516001600160a01b03909116815260200161015a565b610196610384565b005b6101966101a6366004610f14565b6103a0565b6101966101b9366004610f14565b6105cb565b6101966101cc366004610f14565b61065f565b6101766101df366004610f14565b6106ff565b61015060075481565b61015060055481565b610196610729565b61026061020c366004610f2d565b6001600160a01b031660009081526009602090815260409182902082516080810184528154808252600183015493820184905260028301549482019490945260039091015460609091018190529192909190565b6040805193845260208401929092529082015260600161015a565b610196610289366004610f14565b61073b565b6000546001600160a01b0316610176565b61015060065481565b6101966102b6366004610f14565b6107cf565b6102ce6102c9366004610f14565b610987565b604051901515815260200161015a565b610150670de0b6b3a764000081565b6101966102fb366004610f14565b6109ba565b600254610176906001600160a01b031681565b61015060085481565b61035161032a366004610f2d565b60096020526000908152604090208054600182015460028301546003909301549192909184565b60408051948552602085019390935291830152606082015260800161015a565b61019661037f366004610f2d565b610b04565b61038c610b3f565b61039533610b69565b61039e60018055565b565b6103a8610b3f565b600081116103d15760405162461bcd60e51b81526004016103c890610f5d565b60405180910390fd5b6002546103e9906001600160a01b0316333084610bf6565b60006004546000036104045750670de0b6b3a7640000610426565b600454610419670de0b6b3a764000084610faa565b6104239190610fc7565b90505b3360009081526009602052604081205490036104cc57600a805460018181019092557fc65a7bb8d6351c1cf70c95a316cc6a92839c986682d98bc35f958f4883f9d2a80180546001600160a01b031916339081179091556040805160808101825285815260208181018681524283850190815260006060850181815296815260099093529390912091518255519381019390935551600283015551600390910155610553565b6104d533610b69565b33600090815260096020526040812080548492906104f4908490610fe9565b9091555050600454610507908390610fe9565b3360009081526009602052604090205461052a90670de0b6b3a764000090610faa565b6105349190610fc7565b3360009081526009602052604090206001810191909155426002909101555b81600460008282546105659190610fe9565b909155506105739050610c63565b33600081815260096020908152604091829020600101548251868152918201527fac1d76749e5447b7b16f5ab61447e1bd502f3bb4807af3b28e620d1700a6ee45910160405180910390a2506105c860018055565b50565b670de0b6b3a76400008111156106235760405162461bcd60e51b815260206004820152601760248201527f526174652063616e6e6f7420657863656564203130302500000000000000000060448201526064016103c8565b60058190556040518181527f613732a0dba082a303cf35bf4da9e8584578e0b8a618723fa0b29e667ce86970906020015b60405180910390a150565b610667610ce9565b66470de4df8200008111156106ca5760405162461bcd60e51b8152602060048201526024808201527f496e737572616e63652066756e6420726174652063616e6e6f742065786365656044820152636420322560e01b60648201526084016103c8565b60078190556040518181527f6433fa173471d6e0112baac73be833fddd3b711d24d58957088fb91220c7953d90602001610654565b600a818154811061070f57600080fd5b6000918252602090912001546001600160a01b0316905081565b610731610ce9565b61039e6000610d16565b610743610ce9565b66b1a2bc2ec5000081111561079a5760405162461bcd60e51b815260206004820152601960248201527f46656520726174652063616e6e6f74206578636565642035250000000000000060448201526064016103c8565b60068190556040518181527f208f1b468d3d61f0f085e975bd9d04367c930d599642faad06695229f3eadcd890602001610654565b6107d7610b3f565b33600090815260096020526040902080548211156108305760405162461bcd60e51b8152602060048201526016602482015275496e73756666696369656e74206c697175696469747960501b60448201526064016103c8565b600082116108505760405162461bcd60e51b81526004016103c890610f5d565b6000670de0b6b3a7640000600554670de0b6b3a76400006108719190610ffc565b60045461087e9190610faa565b6108889190610fc7565b9050828110156108da5760405162461bcd60e51b815260206004820181905260248201527f496e73756666696369656e7420617661696c61626c65206c697175696469747960448201526064016103c8565b6108e333610b69565b828260000160008282546108f79190610ffc565b9250508190555082600460008282546109109190610ffc565b9091555061091e9050610c63565b81546000036109305761093033610d66565b600254610947906001600160a01b03163385610e6d565b60405183815233907fc2c3f06e49b9f15e7b4af9055e183b0d73362e033ad82a07dec9bf98401717199060200160405180910390a250506105c860018055565b600060085482111561099b57506000919050565b81600860008282546109ad9190610ffc565b9091555060019392505050565b600081116109da5760405162461bcd60e51b81526004016103c890610f5d565b6000670de0b6b3a7640000600754836109f39190610faa565b6109fd9190610fc7565b90506000610a0b8284610ffc565b90508160086000828254610a1f9190610fe9565b90915550600090505b600a54811015610ac5576000600a8281548110610a4757610a4761100f565b60009182526020808320909101546001600160a01b031680835260099091526040822060018101549193509190670de0b6b3a764000090610a889087610faa565b610a929190610fc7565b905080826003016000828254610aa89190610fe9565b925050819055505050508080610abd90611025565b915050610a28565b5060408051848152602081018490527faf7c505ee772ec188af7067e1f73db08ab028e3d564273442b907742b9c41fa0910160405180910390a1505050565b610b0c610ce9565b6001600160a01b038116610b3657604051631e4fbdf760e01b8152600060048201526024016103c8565b6105c881610d16565b600260015403610b6257604051633ee5aeb560e01b815260040160405180910390fd5b6002600155565b6001600160a01b0381166000908152600960205260409020600381015415610bf2576003810180546000909155600254610bad906001600160a01b03168483610e6d565b826001600160a01b03167fe2403640ba68fed3a2f88b7557551d1993f84b99bb10ff833f0cf8db0c5e048682604051610be891815260200190565b60405180910390a2505b5050565b6040516001600160a01b038481166024830152838116604483015260648201839052610c5d9186918216906323b872dd906084015b604051602081830303815290604052915060e01b6020820180516001600160e01b038381831617835250505050610ea3565b50505050565b60005b600a548110156105c8576000600a8281548110610c8557610c8561100f565b60009182526020808320909101546001600160a01b03168083526009909152604090912060045481549293509091610cc690670de0b6b3a764000090610faa565b610cd09190610fc7565b6001909101555080610ce181611025565b915050610c66565b6000546001600160a01b0316331461039e5760405163118cdaa760e01b81523360048201526024016103c8565b600080546001600160a01b038381166001600160a01b0319831681178455604051919092169283917f8be0079c531659141344cd1fd0a4f28419497f9722a3daafe3b4186f6b6457e09190a35050565b60005b600a54811015610bf257816001600160a01b0316600a8281548110610d9057610d9061100f565b6000918252602090912001546001600160a01b031603610e5b57600a8054610dba90600190610ffc565b81548110610dca57610dca61100f565b600091825260209091200154600a80546001600160a01b039092169183908110610df657610df661100f565b9060005260206000200160006101000a8154816001600160a01b0302191690836001600160a01b03160217905550600a805480610e3557610e3561103e565b600082815260209020810160001990810180546001600160a01b03191690550190555050565b80610e6581611025565b915050610d69565b6040516001600160a01b03838116602483015260448201839052610e9e91859182169063a9059cbb90606401610c2b565b505050565b600080602060008451602086016000885af180610ec6576040513d6000823e3d81fd5b50506000513d91508115610ede578060011415610eeb565b6001600160a01b0384163b155b15610c5d57604051635274afe760e01b81526001600160a01b03851660048201526024016103c8565b600060208284031215610f2657600080fd5b5035919050565b600060208284031215610f3f57600080fd5b81356001600160a01b0381168114610f5657600080fd5b9392505050565b6020808252601d908201527f416d6f756e74206d7573742062652067726561746572207468616e2030000000604082015260600190565b634e487b7160e01b600052601160045260246000fd5b8082028115828204841417610fc157610fc1610f94565b92915050565b600082610fe457634e487b7160e01b600052601260045260246000fd5b500490565b80820180821115610fc157610fc1610f94565b81810381811115610fc157610fc1610f94565b634e487b7160e01b600052603260045260246000fd5b60006001820161103757611037610f94565b5060010190565b634e487b7160e01b600052603160045260246000fdfea26469706673582212204b6c3c6c09d652fd7e79f73b5980506e337e2c5482097eeb4238f324df08845064736f6c63430008140033",
  "linkReferences": {},
  "deployedLinkReferences": {}
}