{
  "_format": "hh-sol-artifact-1",
  "contractName": "MockPriceOracle",
  "sourceName": "contracts/mocks/MockPriceOracle.sol",
  "abi": [
    {
      "inputs": [
        {
          "internalType": "string",
          "name": "symbol",
          "type": "string"
        }
      ],
      "name": "getLastUpdated",
      "outputs": [
        {
          "internalType": "uint256",
          "name": "",
          "type": "uint256"
        }
      ],
      "stateMutability": "view",
      "type": "function"
    },
    {
      "inputs": [
        {
          "internalType": "string",
          "name": "symbol",
          "type": "string"
        }
      ],
      "name": "getPrice",
      "outputs": [
        {
          "internalType": "uint256",
          "name": "",
          "type": "uint256"
        }
      ],
      "stateMutability": "view",
      "type": "function"
    },
    {
      "inputs": [
        {
          "internalType": "string",
          "name": "symbol",
          "type": "string"
        },
        {
          "internalType": "uint256",
          "name": "price",
          "type": "uint256"
        }
      ],
      "name": "setPrice",
      "outputs": [],
      "stateMutability": "nonpayable",
      "type": "function"
    },
    {
      "inputs": [
        {
          "internalType": "string",
          "name": "symbol",
          "type": "string"
        },
        {
          "internalType": "uint256",
          "name": "price",
          "type": "uint256"
        }
      ],
      "name": "updatePrice",
      "outputs": [],
      "stateMutability": "nonpayable",
      "type": "function"
    }
  ],
  "bytecode": "0x608060405234801561001057600080fd5b506102a9806100206000396000f3fe608060405234801561001057600080fd5b506004361061004c5760003560e01c806322e01192146100515780634a432a4614610051578063524f388914610066578063dd1388c21461008b575b600080fd5b61006461005f3660046101c2565b61009e565b005b610079610074366004610207565b6100e6565b60405190815260200160405180910390f35b610079610099366004610207565b61010d565b806000836040516100af9190610244565b908152602001604051809103902081905550426001836040516100d29190610244565b908152604051908190036020019020555050565b600080826040516100f79190610244565b9081526020016040518091039020549050919050565b60006001826040516100f79190610244565b634e487b7160e01b600052604160045260246000fd5b600082601f83011261014657600080fd5b813567ffffffffffffffff808211156101615761016161011f565b604051601f8301601f19908116603f011681019082821181831017156101895761018961011f565b816040528381528660208588010111156101a257600080fd5b836020870160208301376000602085830101528094505050505092915050565b600080604083850312156101d557600080fd5b823567ffffffffffffffff8111156101ec57600080fd5b6101f885828601610135565b95602094909401359450505050565b60006020828403121561021957600080fd5b813567ffffffffffffffff81111561023057600080fd5b61023c84828501610135565b949350505050565b6000825160005b81811015610265576020818601810151858301520161024b565b50600092019182525091905056fea26469706673582212202d6e1c0e3b9cc028feb68e9865f3bac4b8e5b598b039f4724dda703231a58f0464736f6c63430008140033",
  "linkReferences": {},
  "deployedLinkReferences": {}
}