{
  "_format": "hh-sol-artifact-1",
  "contractName": "PriceOracle",
  "sourceName": "contracts/PriceOracle.sol",
  "abi": [
    {
      "inputs": [],
      "stateMutability": "nonpayable",
      "type": "constructor"
    },
    {
      "inputs": [
        {
          "internalType": "address",
          "name": "owner",
          "type": "address"
        }
      ],
      "name": "OwnableInvalidOwner",
      "type": "error"
    },
    {
      "inputs": [
        {
          "internalType": "address",
          "name": "account",
          "type": "address"
        }
      ],
      "name": "OwnableUnauthorizedAccount",
      "type": "error"
    },
    {
      "anonymous": false,
      "inputs": [
        {
          "indexed": true,
          "internalType": "address",
          "name": "feeder",
          "type": "address"
        }
      ],
      "name": "FeederAuthorized",
      "type": "event"
    },
    {
      "anonymous": false,
      "inputs": [
        {
          "indexed": true,
          "internalType": "address",
          "name": "feeder",
          "type": "address"
        }
      ],
      "name": "FeederDeauthorized",
      "type": "event"
    },
    {
      "anonymous": false,
      "inputs": [
        {
          "indexed": true,
          "internalType": "address",
          "name": "previousOwner",
          "type": "address"
        },
        {
          "indexed": true,
          "internalType": "address",
          "name": "newOwner",
          "type": "address"
        }
      ],
      "name": "OwnershipTransferred",
      "type": "event"
    },
    {
      "anonymous": false,
      "inputs": [
        {
          "indexed": true,
          "internalType": "string",
          "name": "marketSymbol",
          "type": "string"
        },
        {
          "indexed": false,
          "internalType": "uint256",
          "name": "price",
          "type": "uint256"
        }
      ],
      "name": "PriceUpdated",
      "type": "event"
    },
    {
      "inputs": [
        {
          "internalType": "address",
          "name": "_feeder",
          "type": "address"
        }
      ],
      "name": "authorizeFeeder",
      "outputs": [],
      "stateMutability": "nonpayable",
      "type": "function"
    },
    {
      "inputs": [
        {
          "internalType": "address",
          "name": "",
          "type": "address"
        }
      ],
      "name": "authorizedFeeders",
      "outputs": [
        {
          "internalType": "bool",
          "name": "",
          "type": "bool"
        }
      ],
      "stateMutability": "view",
      "type": "function"
    },
    {
      "inputs": [
        {
          "internalType": "address",
          "name": "_feeder",
          "type": "address"
        }
      ],
      "name": "deauthorizeFeeder",
      "outputs": [],
      "stateMutability": "nonpayable",
      "type": "function"
    },
    {
      "inputs": [
        {
          "internalType": "string",
          "name": "_marketSymbol",
          "type": "string"
        }
      ],
      "name": "getPrice",
      "outputs": [
        {
          "internalType": "uint256",
          "name": "",
          "type": "uint256"
        }
      ],
      "stateMutability": "view",
      "type": "function"
    },
    {
      "inputs": [],
      "name": "owner",
      "outputs": [
        {
          "internalType": "address",
          "name": "",
          "type": "address"
        }
      ],
      "stateMutability": "view",
      "type": "function"
    },
    {
      "inputs": [
        {
          "internalType": "string",
          "name": "",
          "type": "string"
        }
      ],
      "name": "prices",
      "outputs": [
        {
          "internalType": "uint256",
          "name": "",
          "type": "uint256"
        }
      ],
      "stateMutability": "view",
      "type": "function"
    },
    {
      "inputs": [],
      "name": "renounceOwnership",
      "outputs": [],
      "stateMutability": "nonpayable",
      "type": "function"
    },
    {
      "inputs": [
        {
          "internalType": "address",
          "name": "newOwner",
          "type": "address"
        }
      ],
      "name": "transferOwnership",
      "outputs": [],
      "stateMutability": "nonpayable",
      "type": "function"
    },
    {
      "inputs": [
        {
          "internalType": "string",
          "name": "_marketSymbol",
          "type": "string"
        },
        {
          "internalType": "uint256",
          "name": "_price",
          "type": "uint256"
        }
      ],
      "name": "updatePrice",
      "outputs": [],
      "stateMutability": "nonpayable",
      "type": "function"
    }
  ],
  "bytecode": "0x608060405234801561001057600080fd5b50338061003757604051631e4fbdf760e01b81526000600482015260240160405180910390fd5b61004081610046565b50610096565b600080546001600160a01b038381166001600160a01b0319831681178455604051919092169283917f8be0079c531659141344cd1fd0a4f28419497f9722a3daafe3b4186f6b6457e09190a35050565b6106a1806100a56000396000f3fe608060405234801561001057600080fd5b50600436106100935760003560e01c80638da5cb5b116100665780638da5cb5b146100ee578063c3825f4b14610109578063d5ed6e9514610134578063f2fde38b14610167578063f821ca141461017a57600080fd5b80630311dc2d146100985780634a432a46146100ad578063524f3889146100c0578063715018a6146100e6575b600080fd5b6100ab6100a63660046104e7565b61018d565b005b6100ab6100bb3660046105ba565b6101de565b6100d36100ce3660046105ff565b610305565b6040519081526020015b60405180910390f35b6100ab610375565b6000546040516001600160a01b0390911681526020016100dd565b6100d36101173660046105ff565b805160208183018101805160018252928201919093012091525481565b6101576101423660046104e7565b60026020526000908152604090205460ff1681565b60405190151581526020016100dd565b6100ab6101753660046104e7565b610389565b6100ab6101883660046104e7565b6103c7565b61019561046a565b6001600160a01b038116600081815260026020526040808220805460ff19169055517fd2d647bed845173ee238b9dfab82f3081835cbc5e5147e2a1b92e30e2457f0fd9190a250565b3360009081526002602052604090205460ff168061020657506000546001600160a01b031633145b6102485760405162461bcd60e51b815260206004820152600e60248201526d139bdd08185d5d1a1bdc9a5e995960921b60448201526064015b60405180910390fd5b600081116102985760405162461bcd60e51b815260206004820152601c60248201527f5072696365206d7573742062652067726561746572207468616e203000000000604482015260640161023f565b806001836040516102a9919061063c565b908152604051908190036020018120919091556102c790839061063c565b604051908190038120828252907f159e83f4712ba2552e68be9d848e49bf6dd35c24f19564ffd523b6549450a2f49060200160405180910390a25050565b600080600183604051610318919061063c565b90815260200160405180910390205490506000811161036f5760405162461bcd60e51b81526020600482015260136024820152725072696365206e6f7420617661696c61626c6560681b604482015260640161023f565b92915050565b61037d61046a565b6103876000610497565b565b61039161046a565b6001600160a01b0381166103bb57604051631e4fbdf760e01b81526000600482015260240161023f565b6103c481610497565b50565b6103cf61046a565b6001600160a01b03811661041e5760405162461bcd60e51b8152602060048201526016602482015275496e76616c696420666565646572206164647265737360501b604482015260640161023f565b6001600160a01b038116600081815260026020526040808220805460ff19166001179055517f7afea1b8e6b29230f6d3607633dd55e2549eb789a055da30150fe64fcc9ea81d9190a250565b6000546001600160a01b031633146103875760405163118cdaa760e01b815233600482015260240161023f565b600080546001600160a01b038381166001600160a01b0319831681178455604051919092169283917f8be0079c531659141344cd1fd0a4f28419497f9722a3daafe3b4186f6b6457e09190a35050565b6000602082840312156104f957600080fd5b81356001600160a01b038116811461051057600080fd5b9392505050565b634e487b7160e01b600052604160045260246000fd5b600082601f83011261053e57600080fd5b813567ffffffffffffffff8082111561055957610559610517565b604051601f8301601f19908116603f0116810190828211818310171561058157610581610517565b8160405283815286602085880101111561059a57600080fd5b836020870160208301376000602085830101528094505050505092915050565b600080604083850312156105cd57600080fd5b823567ffffffffffffffff8111156105e457600080fd5b6105f08582860161052d565b95602094909401359450505050565b60006020828403121561061157600080fd5b813567ffffffffffffffff81111561062857600080fd5b6106348482850161052d565b949350505050565b6000825160005b8181101561065d5760208186018101518583015201610643565b50600092019182525091905056fea264697066735822122014acfb966a60d988419aaae675417463b89288b13f99fe965c881390488e08ba64736f6c63430008140033",
  "linkReferences": {},
  "deployedLinkReferences": {}
}